:100000000C9465010C9484010C9484010C9484017B
:100010000C9484010C9484010C943B1F0C94840177
:100020000C9484010C9484010C9484010C9484013C
:100030000C9484010C9484010C9484010C94F11EA2
:100040000C94081F0C9484010C9484010C9484017A
:100050000C9484010C9484010C9484010C9484010C
:100060000C94651F0C9484010C9484010C948401FD
:100070000C9484010C9484010C9484010C948401EC
:100080000C9484010C9484010C9484014A1EDA1EA1
:10009000DA1EDA1EDA1EDA1EDA1E411E6A1EDA1EA9
:1000A000661EDA1E3A1E371E5A1E5E1E621E2A1E6B
:1000B000331E261E4E1E301E521EDA1EDA1EDA1E99
:1000C000DA1EDA1EDA1EDA1E161EAD1E7E1E1B1E7C
:1000D000B31EB11EDA1ED81EDA1EDA1EDA1EAF1EDD
:1000E0008A1E861E091E8E1EB51EDA1E101E071ED3
:1000F000D61E821E0B1E201E481EDA1EDA1EDA1EB7
:10010000DA1EDA1EDA1EDA1EDA1EDA1E911E6E1EE4
:10011000A11E721EDA1E761EDA1E7A1E561EDA1E08
:100120009D1E991EA71EAA1EDA1EA41EDA1EDA1E26
:10013000DA1E951E07634236B79BD8A71A39685650
:1001400018AEBAAB558C1D3CB7CC5763BD6DEDFDF9
:10015000753EF6177231BF000000803F08000000B6
:10016000BE922449123EABAAAA2ABECDCCCC4C3EAC
:1001700000000080BEABAAAAAA3E00000000BF009B
:100180000000803F0000000000084178D3BB438797
:10019000D1133D190E3CC3BD4282AD2B3E68EC82AB
:1001A00076BED98FE1A93E4C80EFFFBE01C4FF7F30
:1001B0003F00000000006E616E00696E6600004046
:1001C0007A10F35A00A0724E18090010A5D4E80066
:1001D00000E87648170000E40B54020000CA9A3B7E
:1001E000000000E1F5050000809698000000404204
:1001F0000F000000A0860100000010270000000092
:10020000E803000000006400000000000A00000095
:1002100000000100000000002C76D888DC674F0841
:1002200023DFC1DFAE59E1B1B796E5E3E453C63A47
:10023000E651997696E8E6C28426EB898C9B62EDBE
:10024000407C6FFCEFBC9C9F40F2BAA56FA5F49078
:10025000055A2AF75C936B6CF9676DC11BFCE0E4EF
:100260000D47FEF520E6B500D0ED902E0300943545
:1002700077050080841E080000204E0A000000C898
:100280000C333333330F986E12831141EF8D2114E9
:10029000893BE65516CFFEE6DB18D1844B381BF7B9
:1002A0007C1D901DA4BBE424203284725E22810058
:1002B000C9F124ECA1E53D272569207365632E2053
:1002C000666F72206D656E75000011241FBECFEF42
:1002D000D0E4DEBFCDBF1DE1A0E0B1E0E4EAFAE585
:1002E00000E00BBF02C007900D92A834B107D9F708
:1002F0002DE1A8E4BDE101C01D92A63DB207E1F7E2
:100300000E94661F0C94502D0C9400002F923F9277
:100310004F925F926F927F928F929F92AF92BF9215
:10032000CF92DF92EF92FF920F931F93CF93DF93C1
:10033000CDB7DEB760970FB6F894DEBF0FBECDBF66
:100340007C011B016A01FC0117821682838181FFF7
:1003500044C39E012F5F3F4F3901F7019381F101A3
:1003600093FD859193FF81911F01882309F431C387
:10037000853239F493FD859193FF81911F01853278
:1003800039F4B70190E00E94772C56016501E5CF62
:1003900010E0512C912CFFE1F915D8F08B3279F057
:1003A00038F4803279F08332A1F4F92DF0612EC057
:1003B0008D3261F0803369F4292D21602DC0392DF3
:1003C0003260932E892D8460982E2AC0E92DE86032
:1003D00015C097FC2DC020ED280F2A3088F496FE1A
:1003E00006C03AE0139F200D1124122F19C08AE095
:1003F000589E200D1124522EE92DE0629E2E10C031
:100400008E3231F496FCE5C2F92DF0649F2E08C0BF
:100410008C3621F4292D2068922E02C0883641F4B2
:10042000F10193FD859193FF81911F018111B3CF5C
:100430009BEB980F933020F4992D9061805E07C05C
:100440009BE9980F933008F066C1992D9F7E96FF27
:1004500016E09F73992E853619F49064992E08C082
:10046000863621F4392F3068932E02C011111150B5
:1004700097FE07C01C3350F444244394410E27E0F8
:100480000BC0183038F027E017E005C027E09CE3E8
:10049000492E02C0212F412C560184E0A80EB11C28
:1004A000F6016081718182819381042DA3010E94F4
:1004B000362B6C01F981FC87F0FF02C0F3FF06C008
:1004C00091FC06C092FE06C000E205C00DE203C02A
:1004D0000BE201C000E08C858C7019F001115AC24A
:1004E0009BC297FE10C04C0CFC85F4FF04C08A81AF
:1004F000813309F44A94141474F528E0241578F52E
:1005000088E0482E2CC096FC2AC0812F90E08C15E4
:100510009D059CF03CEFC3163FEFD30674F0892D88
:100520008068982E0AC0E2E0F0E0EC0FFD1FE10FBA
:10053000F11D8081803319F411501111F4CF97FE11
:100540000EC044244394410E812F90E0C816D90672
:100550002CF41C1904C04424439401C010E097FEFD
:1005600006C01C141D0434F4C601019605C085E0C4
:1005700090E002C081E090E001110196112331F07A
:10058000212F30E02F5F3F4F820F931F252D30E04A
:100590008217930714F4581A01C0512C892D8970C1
:1005A00049F4552039F0B70180E290E00E94772CA1
:1005B0005A94F7CF002329F0B701802F90E00E94D2
:1005C000772C93FC09C0552039F0B70180E390E007
:1005D0000E94772C5A94F7CF97FE4CC04601D7FE65
:1005E00002C0812C912CC60188199909F301E80FEA
:1005F000F91FFE87ED87960124193109388B2F8763
:10060000012F10E01195019511093FEF8316930614
:1006100029F4B7018EE290E00E94772CC814D90427
:100620004CF08F8598898815990524F4ED85FE8511
:10063000818101C080E3F1E08F1A91082D853E850C
:100640002F5F3F4F3E872D87801691062CF0B70114
:1006500090E00E94772CD9CFC814D90441F49A8134
:10066000963320F4953319F43C8534FF81E3B701C8
:1006700090E04EC08A81813319F09C859F7E9C87D3
:10068000B70190E00E94772C111105C094FC18C0AE
:1006900085E690E017C0B7018EE290E00E94772CCB
:1006A0001E5F82E001E0080FF301E80FF11D808179
:1006B000B70190E00E94772C802F0113F3CFE6CF93
:1006C00085E490E0B7010E94772CD7FC06C0C114E6
:1006D000D10441F4EC85E4FF05C0D194C194D10864
:1006E0008DE201C08BE2B70190E00E94772C80E39D
:1006F0002AE0C216D1042CF08F5FFAE0CF1AD1089D
:10070000F7CFB70190E00E94772CB701C601C096E1
:100710000E94772C54C1833631F0833779F08335CA
:1007200009F056C020C0560132E0A30EB11CF601FC
:100730008081898301E010E0630112C05601F2E07C
:10074000AF0EB11CF601C080D18096FE03C0612FB0
:1007500070E002C06FEF7FEFC6010E94342C8C0165
:10076000F92DFF7714C0560122E0A20EB11CF6014C
:10077000C080D18096FE03C0612F70E002C06FEF91
:100780007FEFC6010E940E2C8C01F92DF0689F2E80
:10079000F3FD1AC0852D90E008171907A8F4B701DA
:1007A00080E290E00E94772C5A94F4CFF60197FCF7
:1007B000859197FE81916F01B70190E00E94772C9F
:1007C00051105A94015011090115110579F7F7C01C
:1007D000843611F0893661F5560197FE09C024E090
:1007E000A20EB11CF60160817181828193810AC0E1
:1007F000F2E0AF0EB11CF60160817181072E000C92
:10080000880B990BF92DFF769F2E97FF09C09095C5
:100810008095709561957F4F8F4F9F4FF0689F2E09
:100820002AE030E0A3010E94E22CC82EC6183FC087
:10083000092D853721F40F7E2AE030E01DC0097FA5
:100840008F3691F018F4883559F0C3C0803719F00D
:10085000883711F0BEC0006104FF09C0046007C002
:1008600094FE08C0066006C028E030E005C020E124
:1008700030E002C020E132E0560107FF09C084E009
:10088000A80EB11CF601608171818281938108C03C
:10089000F2E0AF0EB11CF6016081718180E090E062
:1008A000A3010E94E22CC82EC6180F77902E96FE48
:1008B0000BC0092D0E7FC11650F494FE0AC092FCA5
:1008C00008C0092D0E7E05C0DC2C092D03C0DC2CD0
:1008D00001C0D12E04FF0DC0FE01EC0DF11D808181
:1008E000803311F4097E09C002FF06C0D394D3946B
:1008F00004C0802F867809F0D39403FD11C000FF57
:1009000006C01C2DD51480F4150D1D190DC0D5146D
:1009100058F4B70180E290E00E94772CD394F7CF8F
:10092000D51410F45D1801C0512C04FF10C0B7019C
:1009300080E390E00E94772C02FF17C001FD03C006
:1009400088E790E002C088E590E0B7010CC0802FF6
:10095000867859F001FF02C08BE201C080E207FDFA
:100960008DE2B70190E00E94772CC11638F4B701F0
:1009700080E390E00E94772C1150F7CFCA94F301E6
:10098000EC0DF11D8081B70190E00E94772CC11021
:10099000F5CF15C0F4E0F51560F584E0581A93FE24
:1009A0001FC0011127C02C8523FF2AC006EB11E0D0
:1009B000392D3071932EF8018491811124C0552076
:1009C00009F4E4CCB70180E290E00E94772C5A94BD
:1009D000F6CFF7018681978126C08FEF9FEF23C066
:1009E000B70180E290E00E94772C5A945110F8CF22
:1009F000D8CF512CB701802F90E00E94772CD3CF15
:100A00000AEB11E0D5CF91108052B70190E00E941F
:100A1000772C0F5F1F4FCFCF23E0251510F483E015
:100A2000BDCF512CC0CF60960FB6F894DEBF0FBE7D
:100A3000CDBFDF91CF911F910F91FF90EF90DF908D
:100A4000CF90BF90AF909F908F907F906F905F906E
:100A50004F903F902F90089583B7817F826083BF2E
:100A6000EAE7F0E0808188608083089590917C00BF
:100A7000907E90937C0090917C00892B80937C00E9
:100A800080917A00806480937A0080917A0086FF5A
:100A9000FCCF809178009091790008951F93CF93B7
:100AA000DF9310E1C0E0D0E083B7816083BF889519
:100AB00083B78E7F83BF87E00E943605C80FD91F9A
:100AC000115091F7CE019695879596958795DF9170
:100AD000CF911F910895249A2C9A259A2E9A279A9D
:100AE0008CB581608CBD8CB580618CBD8CB580640B
:100AF0008CBD08958EBD0DB407FEFDCF0895CF9334
:100B0000DF93EB010E947A058D2F0E947A058C2FCE
:100B1000DF91CF910C947A052C9886E00E947A059B
:100B20002C9A0895CF92DF92EF92FF926B017C0195
:100B30002C9883E00E947A05C701B6010E947F05C8
:100B400080E00E947A052C9A8EB5FF90EF90DF909E
:100B5000CF900895CF92DF92EF92FF92CF936B01E7
:100B60007C01C42F0E948C052C9882E00E947A059B
:100B7000C701B6010E947F058C2F0E947A050DB433
:100B800007FEFDCF2C9ACF91FF90EF90DF90CF9092
:100B90000895CF92DF92EF92FF92CF93DF936B0194
:100BA0007C012C9883E00E947A05C701B6010E945F
:100BB0007F0580E00E947A05CEB5D0E0DC2FCC27FF
:100BC00080E00E947A058EB52C9A9E01280F311D77
:100BD000C901DF91CF91FF90EF90DF90CF90089502
:100BE000CF92DF92EF92FF92CF93DF936B017C0164
:100BF000EA010E948C052C9882E00E947A05C701C8
:100C0000B6010E947F058D2F0E947A058C2F0E94CD
:100C10007A052C9ADF91CF91FF90EF90DF90CF90E3
:100C20000895CF92DF92EF92FF92C12CD12C7601E2
:100C30000E948C052C9882E00E947A05C701B601BB
:100C40000E947F0580E00E947A058FEFC81AD80ABB
:100C5000E80AF80A2C9A8FEFC816D806E104F104C6
:100C600039F7FF90EF90DF90CF9008950E944607EC
:100C700084EC0E945F078091B900887F883199F5E4
:100C800088E191E00E94132388E10E94302485EFDF
:100C900098E10E94132380E00E945F078091B900D1
:100CA000887F883201F580E591E00E94132388E275
:100CB0000E94302485EF98E10E94132384E00E9473
:100CC0005F078091B900887F883269F484E791E0FA
:100CD0000E94132388E20E94302485EF98E10E944D
:100CE00013230C944B070895CF930E94460784EC7E
:100CF0000E945F078091B900887F883101F588E103
:100D000091E00E94132388E10E94302485EF98E14E
:100D10000E94132381E00E945F078091B900887FC1
:100D2000883269F482E991E00E94132388E20E94EC
:100D3000302485EF98E10E9413230E944B0786EB35
:100D400091E00E94132385EF98E10E9413230E94F3
:100D5000460785EC0E945F07C091B900C87F8C2FC1
:100D60000E94302485EF98E10E941323C034D1F40F
:100D700080EC91E00E94132380E40E94302485EFF0
:100D800098E10E9413230E945707C82F8EEF91E02D
:100D90000E9413238C2F0E94302485EF98E10E943B
:100DA000132301C0C0E08C2FCF9108951F93CF93E0
:100DB000DF930E94460784EC0E945F078091B90090
:100DC000887F883159F488E191E00E94132388E1FB
:100DD0000E94302485EF98E10E9413238FE80E943F
:100DE0005F078091B900887F883269F480E192E0E2
:100DF0000E94132388E20E94302485EF98E10E942C
:100E000013230E944B070E94460785EC0E945F0750
:100E10008091B900887F803409F584E392E00E94D4
:100E2000132380E40E94302485EF98E10E9413236D
:100E30000E944F07182F0E945707C82F0E944B0788
:100E4000D0E0D12B81E792E00E941323CE010E94D3
:100E50003F2385EF98E10E94132302C0C0E0D0E059
:100E6000CE01DF91CF911F91089588B1836088B939
:100E700086E48093B800ECEBF0E0808184608083AE
:100E800008958091BC0087FFFCCF089584EA809389
:100E9000BC000C94410784E98093BC00089584EC65
:100EA0008093BC000E9441078091BB00089584E8B4
:100EB0008093BC000E9441078091BB0008958093FD
:100EC000BB0084E88093BC000C944107CF93C82FEB
:100ED0000E9446078EE40E945F078C2F88600E9464
:100EE0005F07CF910C944B071F93CF93DF93D82FBD
:100EF00011E0611101C010E0D4FF02C080E101C027
:100F000080E0D5FD8062D6FD8064D7FD8068C82F63
:100F1000C12B8C2F84600E94660787EA91E60197B7
:100F2000F1F700C000008C2F0E946607D0FF02C0BE
:100F300080E101C080E0D1FD8062D2FD8064D3FDFC
:100F40008068182B812F84600E94660787EA91E6EB
:100F50000197F1F700C00000812FDF91CF911F9121
:100F60000C94660760E081E00E94740760E080E80E
:100F70000E9474071092481D089560E080E80E9466
:100F800074071092481D0895CF93C4E0C150B1F08A
:100F900084E30E9466078FE493EC0197F1F700C0A9
:100FA000000080E30E9466079FE72AE186E09150F7
:100FB00020408040E1F700C00000E8CF84E20E94BA
:100FC00066078FE493EC0197F1F700C0000080E220
:100FD0000E9466078FE493EC0197F1F700C00000D0
:100FE00060E088E20E94740760E08CE00E94740771
:100FF000CF910C94B207CF93C82F8091481D8031B8
:1010000021F460E080EC0E9474078091481D8032DA
:1010100031F460E080E80E9474071092481D8091CE
:10102000481D8F5F8093481D61E08C2FCF910C94F9
:1010300074070F931F93CF93DF93EC018E01888188
:101040008823F1F08091481D803121F460E080EC2C
:101050000E9474078091481D803231F460E080E87E
:101060000E9474071092481D8091481D8F5F8093E5
:10107000481D219661E0F80180810E947407DECF4F
:10108000DF91CF911F910F9108954F925F926F92D0
:101090007F928F929F92AF92BF92CF92DF92EF9208
:1010A000FF920F931F93CF93DF93CDB7DEB7649773
:1010B0000FB6F894DEBF0FBECDBFFE01B79681908C
:1010C00091907F01712C6E018BE0C80ED11CFE0146
:1010D00031965F0180E3682E2401FFEF4F1A5F0A0B
:1010E000F4018491882309F4A6C0853209F08FC0E9
:1010F00084010E5F1F4FF2018491282F30E02053AE
:1011000031092A303105D8F589831A82C5010E9438
:10111000182B782E94012D5F3F4FF801049109366A
:1011200051F138F40236E1F10336D1F0890148017A
:10113000D3CF033731F0083779F10F36B9F789018A
:1011400028C08901F70180809180F2E0EF0EF11C48
:10115000F40181914F01882351F30E94FB07F8CFDE
:1011600089014701F2E08F0E911CF70180810E94F6
:10117000FB077401DCCF890198014AE012C089366F
:10118000D9F308F448C08337E9F2883731F08F3655
:1011900071F6980148E005C08901980140E101C05D
:1011A00042E050E04701F2E08F0E911CF701808190
:1011B00091818901B6010E943F2CF601CF018C1963
:1011C0009D0921912111FACF272D30E08217930735
:1011D000C4F4781AF501872D90E09F012A193B0984
:1011E0002817390714F46192F8CFF501E80FF91FB9
:1011F0001082B601C5010E94192CB501C6010E94DA
:101200002D2CC6010E9419087401712C90CF0E94E8
:10121000FB0782018CCF823651F44701F2E08F0E3A
:10122000911CF7018081918142E050E0C3CF833669
:1012300009F497CF7CCF64960FB6F894DEBF0FBE4B
:10124000CDBFDF91CF911F910F91FF90EF90DF9075
:10125000CF90BF90AF909F908F907F906F905F9056
:101260004F90089550E05093890040938800882360
:1012700019F0109A549A02C01098549850938B0009
:1012800040938A00662319F0119A559A089511988F
:10129000559808954093B300882319F0129A569AEE
:1012A00002C0129856984093B400662319F0139A1E
:1012B000579A0895139857980895CF93DF93C82F9E
:1012C000D82FD6958D2F0E9426231F92DF938DE76E
:1012D00092E09F938F9389EA9DE19F938F930E9461
:1012E000B32C89EA9DE10E9419080F900F900F908E
:1012F0000F900F900F90C0FF07C080E892E00E940F
:10130000132385E892E006C08FE892E00E94132341
:1013100084E992E00E94190888E892E0DF91CF9179
:101320000C9419081092C50084E08093C400E0EC8E
:10133000F0E080818260808388E18093C10086E054
:101340008093C20008950F931F93CF938C01C62FF3
:1013500067E972E00E94242C892B21F44C2F60E075
:1013600081E01EC06FE972E0C8010E94242C892B25
:1013700069F44C2F60E081E00E944A094C2F61E043
:1013800080E0CF911F910F910C94320965EA72E0D1
:10139000C8010E94242C892B49F44C2F61E080E085
:1013A0000E944A094C2F60E081E0EBCF6AEA72E0CC
:1013B000C8010E94242C892B21F44C2F61E080E08D
:1013C000DBCF63EB72E0C8010E94242C892B41F42F
:1013D00040E060E080E00E944A0940E060E0D0CF59
:1013E00089EB92E00E94132385EF98E1CF911F9142
:1013F0000F910C9413232F923F924F925F926F9212
:101400007F928F929F92AF92BF92CF92DF92EF9294
:10141000FF920F931F93CF93DF9300D000D000D0A3
:10142000CDB7DEB7182F6E83B42E022FC82ED12C65
:10143000E12CF12C24E2C21AD1082FEFE20AF20AC1
:10144000C701B6010E9492058D831031E0F08FEC48
:1014500092E026960FB6F894DEBF0FBECDBFDF91A7
:10146000CF911F910F91FF90EF90DF90CF90BF90A1
:10147000AF909F908F907F906F905F904F903F9034
:101480002F900C9413238B2D90E0A0E0B0E0898383
:101490009A83AB83BC839D8197FD6CC1AE8144EF81
:1014A000242E33243394A7FDD8C09A170CF07BC0A8
:1014B000BD816B2FBB0F770B880B990B0E94032804
:1014C000AB01BC01812F0E9426224E81C701B601CB
:1014D0000E94AA0569817A818B819C810E940128E2
:1014E0002B013C0120E030E44CE955E40E94102936
:1014F0004B015C0120E030E040E85FE30E945B27A5
:1015000087FD22C020E03FEF4FE757E4C501B4015B
:101510000E940B2918169CF420E030E040E251E4D0
:10152000C301B2010E9410290E94D22761157105E2
:1015300081F0C1010197F1F761507109F7CFC50141
:10154000B4010E94D22702C061E070E0CB01019794
:10155000F1F72D81200F2D833E8132170CF0A8CF9B
:1015600085E093E00E941323812F0E94262388E2C6
:1015700093E00E9413233CEDC32EDD24DA94E12C8A
:10158000F12C812F90E09A838983B3C0C501B40107
:101590000E94D227CB010197F1F7BD81B01BBD831B
:1015A0002E81B217ECF2AD816A2FAA0F770B880B50
:1015B000990B0E940328AB01BC01812F0E942622B7
:1015C0004E81C701B6010E94AA0569817A818B818B
:1015D0009C810E9401282B013C0120E030E44CE971
:1015E00055E40E9410294B015C0120E030E040E806
:1015F0005FE30E945B2787FD1FC020E03FEF4FE7BE
:1016000057E4C501B4010E940B2918160CF0BECF97
:1016100020E030E040E251E4C301B2010E94102911
:101620000E94D2276115710509F4B7CFC101019756
:10163000F1F761507109F6CF61E070E0ABCFC50101
:10164000B4010E94D227CB010197F1F78D81801B55
:101650008D839E8189170CF483CF3D81632F330FD7
:10166000770B880B990B0E940328AB01BC01812FDB
:101670000E9426224E81C701B6010E94AA056981F7
:101680007A818B819C810E9401282B013C0120E002
:1016900030E44CE955E40E9410294B015C0120E044
:1016A00030E040E85FE30E945B2787FD1FC020E039
:1016B0003FEF4FE757E4C501B4010E940B2918160C
:1016C0000CF0BDCF20E030E040E251E4C301B201B4
:1016D0000E9410290E94D2276115710509F4B6CF26
:1016E000C1010197F1F761507109F6CF61E070E037
:1016F000AACF87E393E00E941323C6010E943F23F1
:1017000088E493E00E941323C701B6010E9492056A
:101710000E942623C6018496A981BA81A817B90719
:1017200021F481E593E00E941323BFEFCB1ADB0A7B
:10173000EB0AFB0A2CEEC2162FEFD206E104F104ED
:10174000C1F626960FB6F894DEBF0FBECDBFDF916F
:10175000CF911F910F91FF90EF90DF90CF90BF90AE
:10176000AF909F908F907F906F905F904F903F9041
:101770002F9008953E8137FD5DC024EF222E332443
:101780003394AD816A2FAA0F770B880B990B0E94B7
:101790000328AB01BC01812F0E9426224E81C70184
:1017A000B6010E94AA0569817A818B819C810E9481
:1017B00001282B013C0120E030E44CE955E40E9473
:1017C00010294B015C0120E030E040E85FE30E941B
:1017D0005B2787FD22C020E03FEF4FE757E4C501BC
:1017E000B4010E940B2918169CF420E030E040E27E
:1017F00051E4C301B2010E9410290E94D227611551
:10180000710581F0C1010197F1F761507109F7CFBE
:10181000C501B4010E94D22702C061E070E0CB0193
:101820000197F1F7BD81B00FBD832E812B170CF00E
:10183000A8CF96CE3D818E8194EF292E3324339408
:1018400038170CF067C0AD816A2FAA0F770B880B91
:10185000990B0E940328AB01BC01812F0E94262214
:101860004E81C701B6010E94AA0569817A818B81E8
:101870009C810E9401282B013C0120E030E44CE9CE
:1018800055E40E9410294B015C0120E030E040E863
:101890005FE30E945B2787FD22C020E03FEF4FE718
:1018A00057E4C501B4010E940B2918169CF420E0EE
:1018B00030E040E251E4C301B2010E9410290E94CD
:1018C000D2276115710581F0C1010197F1F76150CF
:1018D0007109F7CFC501B4010E94D22702C061E0AF
:1018E00070E0CB010197F1F7BD81B00FBD832E8170
:1018F0002B170CF0A8CF34CEC501B4010E94D2271B
:10190000CB010197F1F78D81801B8D839E81891713
:101910000CF426CE3D81632F330F770B880B990B88
:101920000E940328AB01BC01812F0E9426224E8118
:10193000C701B6010E94AA0569817A818B819C81C9
:101940000E9401282B013C0120E030E44CE955E4E1
:101950000E9410294B015C0120E030E040E85FE389
:101960000E945B2787FD1FC020E03FEF4FE757E451
:10197000C501B4010E940B2918160CF0BDCF20E060
:1019800030E040E251E4C301B2010E9410290E94FC
:10199000D2276115710509F4B6CFC1010197F1F79E
:1019A00061507109F6CF61E070E0AACF1F93CF9329
:1019B000DF9381E693E00E9413238CE893E00E947A
:1019C00013230E944E24D82F89EA93E00E94132308
:1019D0000E944E24C82F88EC93E00E9413230E949B
:1019E0000C238D3261F018F48B3231F00EC080334D
:1019F00019F0813321F009C08FE094E003C0C19554
:101A00008AE294E00E94132306C081E494E00E94DD
:101A10001323C0E0D4E60E940C238EE794E00E94DA
:101A200013230E944E24182F8FE994E00E94132361
:101A30000E944E24282F412F6C2F8D2F0E94FB09CE
:101A400087EC94E0DF91CF911F910C941323CF93F7
:101A5000C82F21E0482F60E080E00E94FB0921E0D0
:101A60004C2F60E084E00E94FB0921E04C2F60E0F5
:101A700083E00E94FB0921E04C2F60E082E00E949D
:101A8000FB0921E04C2F60E081E00E94FB0921E08E
:101A90004C2F60E085E00E94FB0921E04C2F6EE1B5
:101AA00086E00E94FB0921E04C2F60E087E00E9465
:101AB000FB0921E04C2F60E08BE00E94FB0921E054
:101AC0004C2F60E08AE00E94FB0921E04C2F60E08F
:101AD00089E00E94FB0921E04C2F60E088E00E9431
:101AE000FB0921E04C2F60E08CE00E94FB0921E023
:101AF0004C2F6CEE8DE0CF910C94FB09CF93C82F47
:101B000021E0482F6EE186E00E94FB0921E04C2F86
:101B100060E085E00E94FB0921E04C2F66EF80E049
:101B20000E94FB0921E04C2F62EB82E00E94FB093E
:101B300021E04C2F6FE684E00E94FB0921E04C2F4E
:101B400065E383E00E94FB0921E04C2F61E981E01D
:101B50000E94FB0921E04C2F67EE8DE00E94FB09FB
:101B600021E04C2F60E08CE00E94FB0921E04C2F2B
:101B700060E087E00E94FB0921E04C2F6AEB89E0DE
:101B80000E94FB0921E04C2F6BE78BE00E94FB09D0
:101B900021E04C2F65E38AE00E94FB0921E04C2FF5
:101BA00064E688E0CF910C94FB09CF93C82F21E025
:101BB000482F66EF80E00E94FB0921E04C2F62EB8A
:101BC00082E00E94FB0921E04C2F6FE684E00E9436
:101BD000FB0921E04C2F65E383E00E94FB0921E033
:101BE0004C2F66EA81E00E94FB0921E04C2F60E067
:101BF00085E00E94FB0921E04C2F6EE186E00E9407
:101C0000FB0921E04C2F60E087E00E94FB0921E006
:101C10004C2F6AEB89E00E94FB0921E04C2F6DE715
:101C20008BE00E94FB0921E04C2F65E38AE00E94D3
:101C3000FB0921E04C2F60E588E00E94FB0921E0D0
:101C40004C2F60E08CE00E94FB0921E04C2F6CEEF1
:101C50008DE0CF910C94FB09CF93C82F21E0482F42
:101C600066EF80E00E94FB0921E04C2F65E584E0EF
:101C70000E94FB0921E04C2F60E082E00E94FB09FA
:101C800021E04C2F65E383E00E94FB0921E04C2F0B
:101C900066EA81E00E94FB0921E04C2F6CE985E0B7
:101CA0000E94FB0921E04C2F6EEC86E00E94FB09AC
:101CB00021E04C2F60E087E00E94FB0921E04C2FDF
:101CC0006AE58BE00E94FB0921E04C2F60E089E08F
:101CD0000E94FB0921E04C2F6CE38AE00E94FB0983
:101CE00021E04C2F6AE488E00E94FB0921E04C2FA0
:101CF0006CE38CE00E94FB0921E04C2F60EB8DE04F
:101D0000CF910C94FB09CF93C82F21E0482F66EFA9
:101D100080E00E94FB0921E04C2F65E584E00E94F1
:101D2000FB0921E04C2F60E082E00E94FB0921E0EA
:101D30004C2F65E383E00E94FB0921E04C2F66EA0B
:101D400081E00E94FB0921E04C2F60E085E00E94C9
:101D5000FB0921E04C2F68E286E00E94FB0921E0AC
:101D60004C2F60E087E00E94FB0921E04C2F6AE5E0
:101D70008BE00E94FB0921E04C2F60E089E00E948B
:101D8000FB0921E04C2F6CE38AE00E94FB0921E073
:101D90004C2F6AE488E00E94FB0921E04C2F60E0B0
:101DA0008CE00E94FB0921E04C2F68EF8DE0CF9181
:101DB0000C94FB09CF93C82F21E0482F66EF80E0F9
:101DC0000E94FB0921E04C2F69E684E00E94FB0998
:101DD00021E04C2F63ED82E00E94FB0921E04C2FB3
:101DE00060E087E00E94FB0921E04C2F63E78BE075
:101DF0000E94FB0921E04C2F6CED89E0CF910C94FF
:101E0000FB09CF93C82F21E0482F60E087E00E94B4
:101E1000FB0921E04C2F60E08BE00E94FB0921E0F0
:101E20004C2F60E08AE00E94FB0921E04C2F60E02B
:101E300089E00E94FB0921E04C2F60E088E00E94CD
:101E4000FB0921E04C2F60E08CE00E94FB0921E0BF
:101E50004C2F6CEE8DE0CF910C94FB09CF93C82FE3
:101E600021E0482F60E080E00E94FB0921E04C2F38
:101E700060E084E00E94FB0921E04C2F60E083E0F9
:101E80000E94FB0921E04C2F60E082E00E94FB09E8
:101E900021E04C2F60E081E00E94FB0921E04C2F03
:101EA00060E085E00E94FB0921E04C2F6EE186E0B6
:101EB000CF910C94FB0921E0482F67E38EE00C944E
:101EC000FB09CF93C82F6AEE7FEF80E090E00E947D
:101ED0009205873344F464E0680F21E04C2F8EE0D4
:101EE000CF910C94FB09CF910895CF93C82F6AEE40
:101EF0007FEF80E090E00E949205823F44F06CEF1B
:101F0000680F21E04C2F8EE0CF910C94FB09CF910C
:101F1000089521E0482F61EF8EE00C94FB0921E049
:101F2000482F6AE08EE00C94FB09CF93C82F21E084
:101F3000482F66EF80E00E94FB0921E04C2F69E604
:101F400084E00E94FB0921E04C2F60E082E00E94C7
:101F5000FB0921E04C2F66EA81E00E94FB0921E0A9
:101F60004C2F68EF83E00E94FB0921E04C2F60E0DA
:101F700084E00E94FB0921E04C2F6DE280E00E948A
:101F8000FB0921E04C2F66EF80E00E94FB0921E075
:101F90004C2F6DE280E00E94FB0921E04C2F66EFA0
:101FA00080E00E94FB098C2F0E945B0F8C2F0E9407
:101FB000890F8C2F0E948F0F21E04C2F60E087E06B
:101FC0000E94FB0921E04C2F63E78BE00E94FB0994
:101FD00021E04C2F60E089E00E94FB0921E04C2FBA
:101FE0006CE488E00E94FB0921E04C2F60E08AE06D
:101FF0000E94FB0921E04C2F60E08BE0CF910C9414
:10200000FB09FF920F931F93CF93DF93D82F64EEBA
:102010007FEF80E090E00E949205F82E65EE7FEF62
:1020200080E090E00E949205082F66EE7FEF80E04E
:1020300090E00E949205182F67EE7FEF80E090E01D
:102040000E949205C82F84E28F153CF46CEF6F0D4F
:1020500021E04D2F88E00E94FB0908323CF464E047
:10206000600F21E04D2F89E00E94FB091B303CF0FE
:102070006DEF610F21E04D2F8AE00E94FB091C16D5
:1020800064F46DEF6C0F21E04D2F8BE0DF91CF9169
:102090001F910F91FF900C94FB09DF91CF911F913D
:1020A0000F91FF900895FF920F931F93CF93DF93AB
:1020B000D82F6DED7FEF80E090E00E949205F82E22
:1020C0006EED7FEF80E090E00E949205082F6FEDAB
:1020D0007FEF80E090E00E949205182F60EE7FEF86
:1020E00080E090E00E949205C82F8CEDF8163CF439
:1020F00064E06F0D21E04D2F81E00E94FB09083262
:102100003CF464E0600F21E04D2F82E00E94FB0967
:102110001B303CF06DEF610F21E04D2F83E00E94FA
:10212000FB091C1664F46DEF6C0F21E04D2F84E069
:10213000DF91CF911F910F91FF900C94FB09DF91DC
:10214000CF911F910F91FF900895FF920F931F93CE
:10215000CF93DF93D82F64EE7FEF80E090E00E9472
:102160009205F82E65EE7FEF80E090E00E949205E8
:10217000082F66EE7FEF80E090E00E949205182F16
:1021800067EE7FEF80E090E00E949205C82F83E623
:102190008F153CF064E06F0D21E04D2F88E00E9428
:1021A000FB0908323CF464E0600F21E04D2F89E028
:1021B0000E94FB091B303CF06DEF610F21E04D2FB9
:1021C0008AE00E94FB091C1664F46DEF6C0F21E09D
:1021D0004D2F8BE0DF91CF911F910F91FF900C94C9
:1021E000FB09DF91CF911F910F91FF900895FF920E
:1021F0000F931F93CF93DF93D82F6DED7FEF80E088
:1022000090E00E949205F82E6EED7FEF80E090E066
:102210000E949205082F6FED7FEF80E090E00E9412
:102220009205182F60EE7FEF80E090E00E9492050B
:10223000C82F8DE9F8163CF06CEF6F0D21E04D2FA3
:1022400081E00E94FB0908323CF464E0600F21E069
:102250004D2F82E00E94FB091B303CF06DEF610FB7
:1022600021E04D2F83E00E94FB091C1664F46DEF02
:102270006C0F21E04D2F84E0DF91CF911F910F91E2
:10228000FF900C94FB09DF91CF911F910F91FF906C
:102290000895CF93C82F6CED7FEF80E090E00E940F
:1022A00092058D3744F465E0680F21E04C2F80E003
:1022B000CF910C94FB09CF910895CF93C82F6CED6B
:1022C0007FEF80E090E00E949205873F44F06BEF43
:1022D000680F21E04C2F80E0CF910C94FB09CF9147
:1022E0000895CF93C82F63EE7FEF80E090E00E94C7
:1022F00092058A3044F465E0680F21E04C2F87E0B6
:10230000CF910C94FB09CF910895CF93C82F63EE22
:102310007FEF80E090E00E949205843844F06BEFFC
:10232000680F21E04C2F87E0CF910C94FB09CF91EF
:102330000895CF93C82F62EE7FEF80E090E00E9477
:1023400092058C3344F465E0680F21E04C2F86E061
:10235000CF910C94FB09CF910895CF93C82F62EED3
:102360007FEF80E090E00E949205803C44F06BEFAC
:10237000680F21E04C2F86E0CF910C94FB09CF91A0
:102380000895CF93C82F69EE7FEF80E090E00E9420
:1023900092058A3044F465E0680F21E04C2F8DE00F
:1023A000CF910C94FB09CF910895CF93C82F69EE7C
:1023B0007FEF80E090E00E949205893844F06BEF57
:1023C000680F21E04C2F8DE0CF910C94FB09CF9149
:1023D0000895CF93C82F61EE7FEF80E090E00E94D8
:1023E00092058D3744F465E0680F21E04C2F85E0BD
:1023F000CF910C94FB09CF910895CF93C82F61EE34
:102400007FEF80E090E00E949205843844F06BEF0B
:10241000680F21E04C2F85E0CF910C94FB09CF9100
:102420000895CF93C82F68EE7FEF80E090E00E9480
:1024300092058D3744F465E0680F21E04C2F8CE065
:10244000CF910C94FB09CF910895CF93C82F68EEDC
:102450007FEF80E090E00E949205843844F06BEFBB
:10246000680F21E04C2F8CE0CF910C94FB09CF91A9
:102470000895CF93C82F21E0482F60E087E00E94A5
:10248000FB0921E04C2F6AE58BE00E94FB0921E06B
:102490004C2F60E089E00E94FB0921E04C2F60E0B6
:1024A0008AE00E94FB0921E04C2F64E688E00E944C
:1024B000FB0921E04C2F68E789E00E94FB0921E03D
:1024C0004C2F6CE38CE00E94FB0921E04C2F60EB69
:1024D0008DE0CF910C94FB09CF92DF92EF920F9396
:1024E0001F93CF93DF936C01162FD42FC22F8FEF42
:1024F00094E00E941323C6010E943F238AE30E94B6
:10250000052380E20E94052386E095E00E941323C4
:10251000812F0E9426238AE30E94052380E20E94E5
:1025200005238EE095E00E9413238D2F0E94262321
:102530008AE30E94052380E20E94052384E195E05E
:102540000E9413238C2F0E9426238AE30E940523D6
:1025500080E20E9405238BE195E00E941323802FE7
:102560000E9426238AE30E94052380E20E9405231D
:1025700081E295E00E9413238E2D0E9426238DE098
:102580000E9405238AE0DF91CF911F910F91EF9078
:10259000DF90CF900C9405234F925F926F927F92C1
:1025A0008F929F92AF92BF92CF92DF92EF92FF9263
:1025B000CF93DF9300D000D0CDB7DEB720E030E07E
:1025C00048EC52E40E9410290E94CD2920E030E01E
:1025D00048EC52E40E9460276B017C0120E030E06F
:1025E00040E251E40E9460274B015C0120E030E0B2
:1025F00040E452E40E94EF260E94D227862F0E94D8
:102600000523C501B4010E943E282B013C0120E0B6
:1026100030E040E452E4C701B6010E94EF264B01CE
:102620005C0120E030E040E251E4C301B2010E94CD
:1026300010299B01AC01C501B4010E94EE260E9445
:10264000D227862F0E9405238EE20E94052320E0D8
:1026500030E040E251E4C701B6010E9410294B016D
:102660005C01C701B6010E943E282B013C0120E01D
:1026700030E040E452E4C501B4010E94EF266983D2
:102680007A838B839C8320E030E040E251E4C301F5
:10269000B2010E9410299B01AC0169817A818B8172
:1026A0009C810E94EE260E94D227862F0E9405233D
:1026B000C501B4010E943E284B015C0120E030E0DE
:1026C00048EC52E4C701B6010E94102920E030E036
:1026D00040E452E40E94EF266B017C0120E030E0F0
:1026E00040E251E4C501B4010E9410299B01AC01F4
:1026F000C701B6010E94EE260E94D227862F0E94B3
:10270000052385EF98E10F900F900F900F90DF91C8
:10271000CF91FF90EF90DF90CF90BF90AF909F90C0
:102720008F907F906F905F904F900C9413230F9336
:102730001F93CF93DF938C01EB0187E295E00E941A
:1027400013238BE395E00E941323C8010E943F23CB
:1027500080E20E9405238AE30E94052380E20E9412
:10276000052384E495E00E941323CE010E943F23B9
:1027700084E296E1DF91CF911F910F910C94132386
:10278000FC0140E050E0A6E0B8E04617570788F4A7
:1027900020E030E02E173F0731F08A2F8A95F1F7BD
:1027A0002F5F3F4FF7CF95B19B2795B94E0F5F1F16
:1027B000ECCF0895609100017091010183E194E0F4
:1027C0000E94C013609100017091010181EA93E0C1
:1027D0000E94C013609100017091010189E492E0B0
:1027E0000E94C0130E94B2070E94BD078CE495E0CE
:1027F0000E9419088BE595E00E94190889E695E08A
:102800000E9413238CE995E00E94132380ED95E04C
:102810000E94132387E096E00E9413238CE296E047
:102820000E94132382E696E00E94132380E996E03B
:102830000E94132386EC96E00E94132381E097E028
:102840000E9413238EE297E00E94132381E597E014
:102850000E94132382E897E00E9413238CE995E0FD
:102860000E94132383EA97E00E94132381EE97E0EE
:102870000E94132383E098E00E9413238DE298E0E6
:102880000E9413238BE498E00E9413238AE698E0C9
:102890000E9413238CE995E00E9413238AE898E0B4
:1028A0000E94132389EC98E00E94132387EE98E09E
:1028B0000E94132386E099E00E94132382E299E0AC
:1028C0000E94132384E499E00E94132382E699E096
:1028D0000E94132388E899E00E9413238EEA99E06E
:1028E0000E9413238CE995E00E94132388EE99E05F
:1028F0000E94132387E29AE00E94132382E69AE063
:102900000E94132383ED9AE00E94132384E49BE04A
:102910000E9413238EE69BE00E94132381E99BE033
:102920000E94132380EC9BE00E9413238FEE9BE018
:102930000E9413238EE19CE00E9413238DE49CE00F
:102940000E9413238CE79CE00E94132388EA9CE0FA
:102950000E94132385ED9CE00E94132382E09DE0FA
:102960000E94132380E39DE00E94132381E79DE0F2
:102970000E94132382EB9DE00E94132383EF9DE0CE
:102980000E9413238CE995E00E94132384E39EE0C8
:102990000E94132383E79EE00E94132388EA9EE0AF
:1029A0000E9413238DED9EE00E94132382E19FE09D
:1029B0000E94132387E49FE00E9413238EE79FE089
:1029C0000E94132385EB9FE00E9413238CEE9FE06F
:1029D0000E94132383E290E10C941323809106015B
:1029E0008F5F80930601809106018D3058F0109220
:1029F00006018091070190910801019690930801CA
:102A0000809307010895809105018F5F80930501F0
:102A100080910501803220F0109205010C94EE1493
:102A20000895809104018F5F8093040180910401D7
:102A3000883120F0109204010E940315609100017A
:102A40007091010180ED91E00E94C01388EE93E047
:102A500024EF31E0F9013197F1F70197D9F760914F
:102A60000001709101018DE093E00E94C01388EE97
:102A700093E024EF31E0F9013197F1F70197D9F7AD
:102A800060910001709101018DE093E00E94C013FC
:102A900088EE93E024EF31E0F9013197F1F70197E7
:102AA000D9F7609100017091010180ED91E00E94E1
:102AB000C01388EE93E024EF31E0F9013197F1F78C
:102AC0000197D9F7609100017091010180ED91E0CB
:102AD0000C94C013CF92DF92EF92FF92809103018A
:102AE0008F5F80930301809103018C3320F010925B
:102AF00003010E9411150E94B207609100017091BC
:102B0000010189E492E00E94C01388EE93E024EF73
:102B100031E0F9013197F1F70197D9F760910001A0
:102B20007091010188ED93E00E94C01388EE93E05C
:102B300024EF31E0F9013197F1F70197D9F760916E
:102B400000017091010188ED93E00E94C0130E9482
:102B50004E05BC0180E090E00E94012822E630E1B1
:102B600040E450E40E94102926EB33EF41EA50E4A0
:102B70000E94102920E030E040E859E30E9410292B
:102B800060935B1D70935C1D80935D1D90935E1D33
:102B900082E690E10E94132360915B1D70915C1DA1
:102BA00080915D1D90915E1D0E94CC1280915E1DF2
:102BB0008F9380915D1D8F9380915C1D8F93809189
:102BC0005B1D8F9380E890E19F938F9385E99DE152
:102BD0009F938F930E94B32C0E94B2070E94BD075F
:102BE00086E890E10E94190885E99DE10E94190894
:102BF0008FE890E10E9419080E9436060E94740630
:102C000080934B1D2DB73EB7285F3F4F0FB6F8940A
:102C10003EBF0FBE2DBF80FD11C081E792E00E9434
:102C200013230E94D60690934A1D8093491D0E944B
:102C30003F2385EF98E10E94132308C083E990E1C8
:102C40000E9413230E94740680934B1D80914A1D9D
:102C50008F938091491D8F9387EA90E19F938F9383
:102C60008FEB9DE19F938F930E94B32C8AEA90E1B2
:102C70000E9419088FEB9DE10E94190882EB90E1F8
:102C80000E941908C0905B1DD0905C1DE0905D1DF6
:102C9000F0905E1D0F900F900F900F900F900F907F
:102CA00020E030E040E751E4C701B6010E940B2963
:102CB00087FD03C080EF9FEF36C020E030E040E6A4
:102CC00051E4C701B6010E940B2987FD03C080EEC5
:102CD0009FEF29C020E030E040E551E4C701B60194
:102CE0000E940B2987FD03C083EC9FEF1CC020E0EE
:102CF00030E040E251E4C701B6010E940B2987FD94
:102D000003C087EC9FE30FC020E030E040E251E4D5
:102D1000C701B6010E945B2787FF03C08FE99FEBC5
:102D200002C08FE79FE3FF90EF90DF90CF900C946D
:102D3000A922809102018F5F80930201809102019C
:102D40008C3320F0109202010E946A1560910001FC
:102D5000709101018DE693E00E94C01384EF91E031
:102D600024EF31E0F9013197F1F70197D9F760913C
:102D70000001709101018DE093E00C94C01386B1C5
:102D800082FB882780F980938E1D86B183FB88277C
:102D900080F980936D1D80918E1D811113C08091EB
:102DA0006D1D882331F08091911D9091921D0196A7
:102DB00005C08091911D9091921D01979093921D55
:102DC0008093911D089586B18295817080936C1DCA
:102DD00086B185FB882780F98093621D80916C1DE8
:102DE000811113C08091621D811106C08091751DF3
:102DF0009091761D019605C08091751D9091761D6C
:102E000001979093761D8093751D08950E94B207D7
:102E10000E94BD0785EB90E10E94190860910001B6
:102E20007091010186EB91E00E94C01384EF91E064
:102E300024EF31E0F9013197F1F70197D9F760916B
:102E400000017091010186EB91E00E94C01384EFB4
:102E500091E024EF31E0F9013197F1F70197D9F7CB
:102E6000609100017091010186EB91E00E94C01316
:102E700080E197E224EF31E0F9013197F1F7019712
:102E8000D9F781EC90E10E94132383EE90E10E9438
:102E9000132387E091E10E94132360910001709158
:102EA000010186EB91E00E94C01381E291E10E9452
:102EB00013230E94B2070E94BD0781E391E10E94A3
:102EC00019080E944E2480930601609100017091C0
:102ED000010186EB91E00E94C01389E391E10E9419
:102EE00013230E94B2070E94BD0787E491E10E946C
:102EF00019080E944E248093050160910001709191
:102F0000010186EB91E00E94C0138DE491E10E94E3
:102F100013230E94B2070E94BD078CE591E10E9435
:102F200019080E944E248093040160910001709161
:102F3000010186EB91E00E94C01383E691E10E94BB
:102F400013230E94B2070E94BD0785E791E10E940A
:102F500019080E944E248093030160910001709132
:102F6000010186EB91E00E94C0138FE791E10E947E
:102F700013230E94B2070E94BD0781E991E10E94DC
:102F80001908609100017091010186EB91E00E94A7
:102F9000C0130E944E248093020160910001709141
:102FA000010186EB91E00E94C01310924F1D109218
:102FB0004E1D85EF98E10E9413238BE991E10E9459
:102FC00013238EEC91E10E9413230E94B2070E940A
:102FD000BD0788EE91E10E94190888E99AE324EF81
:102FE00031E0F9013197F1F70197D9F70C94B20765
:102FF0000E94B2070E94BD0780EF91E10E9419086C
:1030000081E092E10E941908609100017091010134
:1030100083E194E00E94C01360910001709101016E
:1030200081EA93E00E94C013609100017091010158
:1030300089E492E00E94C01381EC90E10E94132386
:1030400083EE90E10E94132389E092E10E94132312
:1030500083E492E10E94132380E197E224EF31E0C0
:10306000F9013197F1F70197D9F70E94B2070E9451
:10307000BD0783E692E10E9419080E944E248093C6
:103080000E01609100017091010186EB91E00E94B8
:10309000C0138EE692E10E9413230E94B2070E94A1
:1030A000BD078AE992E10E9419080E944E2480938C
:1030B0000F01609100017091010186EB91E00E9487
:1030C000C01386EA92E10E94132380E197E224EF85
:1030D00031E0F9013197F1F70197D9F70E94B20772
:1030E0000E94BD0787EC92E10E9419080E944E24BD
:1030F00080930B01609100017091010186EB91E0DA
:103100000E94C01384ED92E10E94132380E197E2B4
:1031100024EF31E0F9013197F1F70197D9F70E94D7
:10312000B2070E94BD078AEF92E10E9419080E942F
:103130004E2480930D01609100017091010186EB96
:1031400091E00E94C01389E093E10E94132380E183
:1031500097E224EF31E0F9013197F1F70197D9F7C0
:103160000E94B2070E94BD0784E393E10E94190800
:103170008AE992E10E9419080E944E2480930C0172
:10318000609100017091010186EB91E00E94C013F3
:1031900085E493E10E94132380E197E224EF31E07C
:1031A000F9013197F1F70197D9F70E94B2070E9410
:1031B000BD0786E693E10E9419080E944E24809381
:1031C0000A01609100017091010186EB91E00E947B
:1031D000C01383E793E10E94132380E197E224EF79
:1031E00031E0F9013197F1F70197D9F70E94B20761
:1031F0000E94BD0782EA93E10E94190883EB93E1E4
:103200000E9419080E944E248093090160910001D8
:103210007091010186EB91E00E94C01384EC93E170
:103220000E94132382E094E10E9413230E94B207BC
:103230000E94BD078DE194E10E94190888EE91E19A
:103240000E94190888E99AE324EF31E0F9013197E7
:10325000F1F70197D9F70C94B2070E94B2070E94C8
:10326000BD078EE294E10E9419088FE394E10E9469
:103270001908609100017091010183E194E00E94BE
:10328000C013609100017091010181EA93E00E94F6
:10329000C013609100017091010189E492E00E94E5
:1032A000C01381EC90E10E94132383EE90E10E9411
:1032B00013238BE494E10E94132360910001709129
:1032C000010186EB91E00E94C01380E794E10E9427
:1032D0001323609100017091010186EB91E00E943F
:1032E000C0138FE894E10E9413230E940C23809363
:1032F000701D609100017091010186EB91E00E94C8
:10330000C0138091701D893709F0A8C08CEA94E140
:103310000E94132382ED94E10E9413236091000127
:103320007091010186EB91E00E94C0130E94CA24B3
:1033300070934D1D60934C1D84E095E10E94132312
:1033400080914C1D90914D1D0E943F2385EF98E187
:103350000E9413230E94B2070E94BD0784E195E1F9
:103360000E9419081092D01D1092D11D1092D21DEA
:103370001092D31D1092CC1D1092CD1D1092CE1D17
:103380001092CF1D1092711D1092721D1092731D1C
:103390001092741D80914C1D90914D1DA0E0B0E0E5
:1033A0004091711D5091721D6091731D7091741D3B
:1033B00084179507A607B70708F444C00E94A02504
:1033C0004091CC1D5091CD1D6091CE1D7091CF1DAF
:1033D0008091D01D9091D11DA091D21DB091D31D8F
:1033E000840F951FA61FB71F8093CC1D9093CD1DF2
:1033F000A093CE1DB093CF1D86E295E10E941323CA
:103400006091CC1D7091CD1D8091CE1D9091CF1DEE
:103410000E947A2385EF98E10E9413238091711D09
:103420009091721DA091731DB091741D0196A11D04
:10343000B11D8093711D9093721DA093731DB09365
:10344000741DA8CF83E395E10E9413230E94B20765
:103450000E94BD0784E595E10C9419086091000174
:103460007091010186EB91E00E94C01384E695E122
:103470000C941323609100017091010183E194E0A9
:103480000E94C013609100017091010181EA93E0F4
:103490000E94C013609100017091010189E492E0E3
:1034A0000E94C0130E94B2070E94BD0789E895E1FF
:1034B0000E94190888E995E10E94132388EB95E1A1
:1034C0000E9413238AED95E10E9413238CEF95E16E
:1034D0000E9413231092781D1092771D8091771D02
:1034E0009091781DC39740F583E296E10E941323E3
:1034F0008091771D0E94262382E296E10E94132389
:103500006091771D7091781D80E090E00E94920597
:103510000E94262382E296E10E94132385EF98E120
:103520000E9413238091771D9091781D01969093AE
:10353000781D8093771DD2CF86E296E10E941323F7
:103540008EE496E10E9413230E940C23853601F13C
:10355000873739F58FED96E10E9413230E944E24A0
:103560008093611D8DE197E10E9413230E944E24F8
:10357000482F90E09093781D8093771D6091611D96
:1035800070E080E090E00E94AA0585EF98E10BC012
:103590008CE796E10E9413230E94110682EC96E1CB
:1035A00002C08AE597E10C941323EF92FF920F93E8
:1035B0001F93CF93DF9362E070E080E090E00E9481
:1035C000C9059093941D8093931D0E94BD070E948E
:1035D000B20781E797E10E9419081F9285E08F9357
:1035E00088EB92E09F938F930E94450882E897E1D1
:1035F0000E94132385E00E94262388E997E10E9418
:1036000013230F900F900F900F9080E090E0DC015B
:1036100044EF51E085309105A105B10561F020E14D
:1036200037E2FA013197F1F721503109D1F70196CC
:10363000A11DB11DEFCF8093711D9093721DA093BA
:10364000731DB093741D8091C00087FF10C08091DE
:10365000C6008D3661F481E08093901DC0E0D0E01B
:103660000CE310E094EFE92EFF24F39406C01092CF
:10367000901DC0E0D0E00AC12C9A8091901D882353
:1036800009F404C187EB97E10E9413230E94B2075B
:103690000E94BD078BEE97E10E94190860E070E080
:1036A000CB010E94C905A0E0B0E08093671D909314
:1036B000681DA093691DB0936A1D8CE892E00E947A
:1036C00013238091671D9091681D04970E943F23EA
:1036D00080E098E10E9413238CE892E00E9413237B
:1036E0008091931D9091941D0E943F2386E198E163
:1036F0000E94132385E398E10E94132389E598E152
:103700000E9413238EE798E10E94132383EA98E135
:103710000E94132387EC98E10E9413238EED98E119
:103720000E9413230E940C238F3309F46AC038F4DB
:103730008C3309F44BC08E3309F453C0A2C08536D4
:1037400009F466C0833709F47BC0843609F099C058
:103750002C9883E00E947A0564E070E080E090E0BD
:103760000E947F0584E090E0A0E0B0E08093711DAE
:103770009093721DA093731DB093741D4091711DA1
:103780005091721D6091731D7091741D8091671D21
:103790009091681DA091691DB0916A1D4817590745
:1037A0006A077B0708F068CF80E00E947A058EB533
:1037B0000E945D098091711D9091721DA091731DF1
:1037C000B091741D0196A11DB11DD0CF4091931DE4
:1037D0005091941D4A30510508F44FCF455051097E
:1037E0000BC04091931D5091941D483E8DEF58079A
:1037F00008F043CF4B5F5F4F5093941D4093931D50
:1038000018C01093941D0093931D4CE350E011C019
:1038100088EF98E10E9413230E94110644E050E0D3
:1038200060E070E0CB010E94F0054091931D509143
:10383000941D62E070E080E090E00E94F0051DCFF2
:1038400088E299E10E9413230E947224EC0185EF23
:1038500098E10E94132385E499E10E9413230E94BA
:10386000B2070E94BD078CE599E10E94190880E229
:103870009EE4F7013197F1F70197D9F71092901D67
:10388000FCCE8BE699E10E941323F7CE0E94B2078B
:103890000E94BD0700E010E084EFE82EFF24F394BF
:1038A00060E070E0CB010E94C905A0E0B0E0809329
:1038B000671D9093681DA093691DB0936A1D0E94B7
:1038C000460780E90E945F0780E00E945F070E9430
:1038D000460781E90E945F070E944F0780938F1D72
:1038E0000E94570780936B1D0E944B070E9446075A
:1038F00080E90E945F0780E00E945F070E94460700
:1039000081E90E945F070E944F0780938F1D0E94EC
:10391000570780936B1D0E944B0780918F1D982F36
:10392000990F80916B1D881F8827881F892B809392
:103930008D1D0E945D096091671D7091681D8091C9
:10394000691D90916A1D40918D1D0E94AA054091AC
:10395000671D5091681D6091691D70916A1D4F3FF0
:103960008FEF580761057105E0F00F5F1F4FC0171B
:10397000D10708F095CF8CE899E10E9413230E94AB
:10398000B2070E94BD0786EA99E10E94190887EBF9
:1039900099E1DF91CF911F910F91FF90EF900C94DF
:1039A00019084F5F5F4F6F4F7F4F4093671D5093D4
:1039B000681D6093691D70936A1D60E070E0CB0123
:1039C0000E94F0054091931D5091941D60E070E0BD
:1039D00080E090E0DC0184179507A607B70760F444
:1039E00020E137E2F7013197F1F721503109D1F7A2
:1039F0000196A11DB11DEFCF8093711D9093721D93
:103A0000A093731DB093741DB0CF0E94B2070E94A3
:103A1000BD0782EC99E10E94190884E00E943605F6
:103A20009093601D80935F1D82ED99E10E941323A6
:103A30008091BD1D9091BE1D0E943F2384E296E1BE
:103A40000E94132386E00E9436059093BE1D80934A
:103A5000BD1D83EE99E10E94132380915F1D90911B
:103A6000601D0E943F2380915F1D9091601D0E9408
:103A7000BC229B01AC01CB01DA018093631D9093C2
:103A8000641DA093651DB093661D5F934F933F9394
:103A90002F9380E890E19F938F9389E79DE19F9317
:103AA0008F930E94B32C82E09AE10E94132389E74E
:103AB0009DE10E9413238DB79EB708960FB6F89428
:103AC0009EBF0FBE8DBF85E79CE10C941323EF9240
:103AD0000F930E94B2070E94BD0784E19AE10E9401
:103AE00019089BB184E089278BB984E00E943605D0
:103AF0009093601D80935F1D82ED99E10E941323D6
:103B00008091BD1D9091BE1D0E943F2384E296E1ED
:103B10000E94132386E00E9436059093BE1D809379
:103B2000BD1D83EE99E10E94132380915F1D90914A
:103B3000601D0E943F2380915F1D9091601D0E9437
:103B4000BC229B01AC01CB01DA018093631D9093F1
:103B5000641DA093651DB093661D5F934F933F93C3
:103B60002F9380E890E19F938F9389E79DE19F9346
:103B70008F930E94B32C82E09AE10E94132389E77D
:103B80009DE10E94132385E79CE10E9413230E947C
:103B900000236091751D7091761D8091911D90910B
:103BA000921D0E94971384E296E10E941323E090F5
:103BB00002010091030120910401409105016091EF
:103BC000060180910701909108010E946C128DB747
:103BD0009EB708960FB6F8949EBF0FBE8DBF85E7BF
:103BE0009CE10F91EF900C9413238091C00087FF0C
:103BF000F7C0E091C6008E2F90E0FC01B397E4354A
:103C0000F10508F0D7C0EA5BFF4F0C94C3260C9473
:103C100006170C94F81760910E018AEA92E004C02E
:103C200060910E0187E992E00C94A30960910E0166
:103C300085EA92E0F9CF60910E018FE992E0F4CF2E
:103C400060E083EB92E00E94A309C8C06FEF80910F
:103C50000F0104C080910F016FEF81950C94DC225D
:103C600086E20C94610F80910B010C948F0F86E219
:103C70000C94750F8FEF9FEF0E94A92285E29AE1C5
:103C80008AC080E090E00E94A9228AE39AE183C082
:103C90000C94D60C80910D010C94270D80910D0190
:103CA0000C94010F80910D010C942E0F80910D0149
:103CB0000C947E0D80910D010C94D50D80910D0119
:103CC0000C942C0E80910D010C94830E80910D01AB
:103CD0000C94DA0E80910D010C94950F80910A01DD
:103CE0000C94D51180910A010C94C11180910A01A4
:103CF0000C94AD1180910A010C94991180910901E5
:103D00000C941112809109010C94251280910901E3
:103D10000C94E911809109010C94FD118EE10C9431
:103D2000391280910C010C94711180910C010C944A
:103D3000851180910C010C94491180910C010C9417
:103D40005D1183E20C94011083E20C94A51083E2D0
:103D50000C94531083E20C94F7100C942D190C94CE
:103D6000D51A0C943A1A0C94051D0E9436060E942E
:103D7000740680934B1D80FD10C081E792E00E9485
:103D800013230E94D60690934A1D8093491D0E94DA
:103D90003F2385EF98E10C94132383E990E10E947F
:103DA00013230E94740680934B1D08950C94671D85
:103DB0000C94DA1380E59AE10E94132360910001CC
:103DC0007091010186EB91E00E94C01360910001A7
:103DD000709101018EE991E00E94C0130C940023C0
:103DE00008951F920F920FB60F9211248F939F93F5
:103DF00080914E1D90914F1D019690934F1D809381
:103E00004E1D9F918F910F900FBE0F901F90189590
:103E10001F920F920FB60F9211240BB60F928F9331
:103E20009F93EF93FF93E091561D80911001E80F4F
:103E3000E770E093561DF0E0E85FF24E808185B9AF
:103E4000E091561DF0E0E85FF24E808188B98091E4
:103E5000541D9091551D01969093551D8093541DAE
:103E6000FF91EF919F918F910F900BBE0F900FBE1E
:103E70000F901F9018951F920F920FB60F9211245A
:103E80000BB60F922F933F934F935F936F937F9354
:103E90008F939F93AF93BF93EF93FF930E94BF16AF
:103EA0000E94E316FF91EF91BF91AF919F918F9187
:103EB0007F916F915F914F913F912F910F900BBE2A
:103EC0000F900FBE0F901F90189518950E949209A1
:103ED00085E79AE10E9413230E946B0588E99AE125
:103EE0000E9413230E9435078AEB9AE10E94132354
:103EF0000E94C4078DED9AE10E94132384B582606D
:103F000084BD85B5856085BD8FEF87BD8FEF9AE154
:103F10000E941323809180008160809380008091B3
:103F2000810083608093810080918000806A80930B
:103F3000800080916F00816080936F0085E29BE13B
:103F40000E9413238091B00081608093B000809123
:103F5000B10084608093B1008091B000806A80934A
:103F6000B0008BE49BE10E9413238091910081605B
:103F70008093910081E79BE10E94132380917C0054
:103F8000806480937C0080917A00866080937A00C0
:103F900080917A00806880937A0087E99BE10E9493
:103FA00013238091680084608093680080916D0085
:103FB000846080936D0089EB9BE10E9413230E9433
:103FC0002C0580917E00806F80937E0088B18C6389
:103FD00088B981B1836081B981B18C6081B984B1C4
:103FE000836084B987B1806C87B9239A529A789498
:103FF0008CED9BE10E9413238FE09CE10E94132330
:1040000083E49CE10E94132389E695E00E94132338
:104010008CE995E00E94132380ED95E00E94132324
:1040200087E096E00E9413238CE296E00E9413231F
:1040300082E696E00E94132380E996E00E94132313
:1040400086EC96E00E94132381E097E00E94132300
:104050008EE297E00E94132381E597E00E941323EC
:1040600082E897E00E9413238CE995E00E941323D5
:1040700083EA97E00E94132381EE97E00E941323C6
:1040800083E098E00E9413238DE298E00E941323BE
:104090008BE498E00E9413238AE698E00E941323A1
:1040A0008CE995E00E9413238AE898E00E9413238C
:1040B00089EC98E00E94132387EE98E00E94132376
:1040C00086E099E00E94132382E299E00E94132384
:1040D00084E499E00E94132382E699E00E9413236E
:1040E00088E899E00E9413238EEA99E00E94132346
:1040F0008CE995E00E94132388EE99E00E94132337
:1041000087E29AE00E94132382E69AE00E9413233A
:1041100083ED9AE00E94132384E49BE00E94132322
:104120008EE69BE00E94132381E99BE00E9413230B
:1041300080EC9BE00E9413238FEE9BE00E941323F0
:104140008EE19CE00E9413238DE49CE00E941323E7
:104150008CE79CE00E94132388EA9CE00E941323D2
:1041600085ED9CE00E94132382E09DE00E941323D2
:1041700080E39DE00E94132381E79DE00E941323CA
:1041800082EB9DE00E94132383EF9DE00E941323A6
:104190008CE995E00E94132384E39EE00E941323A0
:1041A00083E79EE00E94132388EA9EE00E94132387
:1041B0008DED9EE00E94132382E19FE00E94132375
:1041C00087E49FE00E9413238EE79FE00E94132361
:1041D00085EB9FE00E9413238CEE9FE00E94132347
:1041E00083E290E10E94132389E79CE10E9413235C
:1041F0000E9446070E94C40784EEE82E8CE1F82E48
:10420000C8EFDCE1870194EFC92EDD24D3940E942E
:10421000BD0780E99CE10E94190881EA9CE10E94A7
:10422000190880E090E00E94A9226091000170913D
:104230000101F801819191918F010E94C01384EFD7
:1042400091E0F6013197F1F70197D9F7C017D1073F
:10425000F1F60E94B20700E513EC0E94BD0781EB66
:104260009CE10E9419088FEF9FEF0E94A9226091A4
:10427000000170910101888199810E94C013C801D9
:104280000197F1F72297EC16FD0639F70E94B20765
:10429000CCE0D0E004EF11E00E94BD0781EC9CE18E
:1042A0000E94190882ED9CE10E94190880E090E0CC
:1042B0000E94A922609100017091010188ED93E0B4
:1042C0000E94C01388EE93E0F8013197F1F701974F
:1042D000D9F760910001709101018DE693E00E9491
:1042E000C0138FEF9FEF0E94A9222197A9F60E9489
:1042F000B2070E944B07C0E5D0E008EB18E8BE010A
:104300000D2E000C880B990B0E940328AB01BC01F9
:1043100080E00E942622C8010197F1F72196CE3B4A
:10432000D10569F762E370E080EA0E94AD2121E0E7
:1043300042E36AE08EE00E94FB0980914E1D90915D
:104340004F1D843C944031F410924F1D10924E1D2D
:104350000E9499160E94F51DF0CFEF92FF921F93D5
:10436000CF93DF931F92CDB7DEB7182F7B017093E9
:10437000CB1D6093CA1D8093C91D0E944607812FE3
:104380000E945F0780E00E945F0781E30E945F0751
:104390000E944B07B70180E090E00E94012820E0D6
:1043A00030E040E855E40E9410292FE135E84BE663
:1043B0005FE30E9410299B01AC0160E27CEB8EEB75
:1043C0009BE40E94602720E030E040E85FE30E9429
:1043D000EE260E94D22769830E944607812F0E9401
:1043E0005F078EEF0E945F0789810E945F070E942E
:1043F0004B0787E893E10197F1F700C000000E94A6
:104400004607812F0E945F0780E00E945F0781EAD4
:104410000E945F070E944B0787E893E10197F1F73D
:1044200000C000000E944607812F0E945F0781E0C4
:104430000E945F0784E00E945F070E944B070F9075
:10444000DF91CF911F91FF90EF900895CF92DF926F
:10445000EF92FF92CF93C82F6A017B0120E030E0FA
:104460004AEF52E4C701B6010E940B2918168CF0DE
:1044700020E030E04AEF52ECC701B6010E945B2712
:1044800087FF0DC0C12CD12C9AEFE92E92ECF92EAA
:1044900006C0C12CD12C8AEFE82E82E4F82E25E547
:1044A00035E545ED50E4C701B6010E94102920E032
:1044B00030E84BEB54E40E94EF260E94D22780E0C4
:1044C00090E00E9401286B017C016091CA1D7091EF
:1044D000CB1D80E090E00E9401289B01AC0160E0D0
:1044E00074E284E799E40E9460270E94D22780E06A
:1044F00090E00E9401289B01AC01C701B6010E9417
:10450000602720E030E040E855E40E9410290E9436
:10451000D2277B010E9446078091C91D0E945F0738
:104520008C2F880F880F8A5F0E945F0780E00E94AF
:104530005F0780E00E945F078E2D0E945F078F2D2E
:104540000E945F07CF91FF90EF90DF90CF900C9487
:104550004B07CF93DF93D82FC92F0E94460780E4E3
:104560000E945F078D2F0E945F078C2F0E945F07BC
:10457000DF91CF910C944B07BC0180E090E00E944A
:10458000012829E23CE54FE65FEB0E947D2922E508
:1045900038E646E256E40E94102920E030E040E28E
:1045A00051E40E94EE266093501D7093511D80933C
:1045B000521D9093531D0895181624F492E0909381
:1045C000100104C09EEF90931001819567BD109279
:1045D000551D1092541D90916E00926090936E0044
:1045E000082E000C990B2091541D3091551D8217F7
:1045F0009307C9F780916E008D7F80936E000895B8
:10460000289829984698479808959091C00095FF5A
:10461000FCCF8093C60008958091C00087FFFCCF37
:104620008091C60008950F931F93CF938C01C0E033
:10463000F801EC0FF11D8081882321F00E940523F1
:10464000CF5FF6CFCF911F910F910895CF93C82FD1
:1046500064E60E948126805D0E9405232AE08C2F5B
:10466000622F0E948126C92F0E94812680E3890F34
:104670000E94052380E38C0FCF910C9405230F93A8
:104680001F93CF93DF938C0160E177E20E948D2628
:1046900080E3860F0E940523C80168EE73E00E9444
:1046A0008D26CB01CAE0D0E0BE010E948D26805D40
:1046B0000E940523C80164E670E00E948D26CB01AC
:1046C000BE010E948D26805D0E940523C801BE01A7
:1046D0000E948D26182FCB01BE010E948D26805D81
:1046E0000E94052380E3810FDF91CF911F910F91ED
:1046F0000C9405238F929F92AF92BF92CF92DF923C
:10470000EF92FF92CF934B015C0120E03AEC4AE933
:104710005BE30E94A12680E3820F0E940523C5016E
:10472000B40120E031EE45EF55E00E94A1268AE079
:10473000C82ED12CE12CF12CCA01B901A701960198
:104740000E94A12680E3860F0E940523C501B401C3
:1047500020E836E948E950E00E94A126CA01B901E3
:10476000A70196010E94A12680E3860F0E940523DF
:10477000C501B40120E432E44FE050E00E94A126DC
:10478000CA01B901A70196010E94A12680E3860F04
:104790000E940523C501B40120EA36E841E050E05B
:1047A0000E94A126CA01B901A70196010E94A12673
:1047B00080E3860F0E940523C501B40120E137E2A2
:1047C00040E050E00E94A126CA01B901A70196016C
:1047D0000E94A12680E3860F0E940523C501B40133
:1047E00028EE33E040E050E00E94A126CA01B90162
:1047F000A70196010E94A12680E3860F0E9405234F
:10480000C501B40124E630E040E050E00E94A1265A
:10481000CA01B901A70196010E94A12680E3860F73
:104820000E940523C501B401A70196010E94A1269B
:10483000C62FCA01B901A70196010E94A12680E3F3
:10484000860F0E94052380E38C0FCF91FF90EF909D
:10485000DF90CF90BF90AF909F908F900C940523E6
:104860001F93CF93DF931F92CDB7DEB7898317E0F5
:10487000898190E0012E02C0959587950A94E2F710
:1048800080FF02C081E301C080E30E940523115034
:1048900078F70F90DF91CF911F9108950F931F9399
:1048A000CF93DF93D0E3C0E310E30E940C23082FE3
:1048B0000E9405230D3021F01C2FCD2FD02FF5CFD6
:1048C0001053D05384E6189FD00D1124CC0FC0563E
:1048D0008C2F880F880F8C0F8D0FDF91CF911F9138
:1048E0000F910895EF92FF920F931F93CF93DF9351
:1048F00000E3C0E3D0E310E380E3F82E0E940C2332
:10490000E82E0E9405238DE0E81631F0F12E1D2FD0
:10491000DC2FC02F0E2DF2CF2F2D30E02053310988
:1049200080E197E2289FA001299F500D389F500DEC
:104930001124212F30E02053310968EE73E0269FC7
:10494000C001279F900D369F900D1124840F951F55
:104950002D2F30E02053310964E6629FA001639F50
:10496000500D1124840F951F2C2F30E02053310956
:104970006AE0629FA001639F500D1124840F951F70
:10498000800F911DC097DF91CF911F910F91FF90E4
:10499000EF9008957F928F929F92AF92BF92CF92A5
:1049A000DF92EF92FF920F931F93CF93DF93D0E3A9
:1049B000C0E310E300E380E3F82E90E3E92E20E368
:1049C000D22E30E3C32E40E3742E50E3B52E0E9466
:1049D0000C23A82E0E9405238DE0A81659F0B72CB1
:1049E0007C2CCD2CDE2CEF2CF02E012F1C2FCD2F6C
:1049F000DA2DEDCFAB2DB0E0D09720E03AEC4AE9CC
:104A00005BE30E94CC264B015C01A72DB0E0D09760
:104A100020E031EE45EF55E00E94CC26860E971E31
:104A2000A81EB91EAC2DB0E0D09720E836E948E9C1
:104A300050E00E94CC26860E971EA81EB91EAD2DF2
:104A4000B0E0D09720E432E44FE050E00E94CC2662
:104A5000860E971EA81EB91EAE2DB0E0D09720EA94
:104A600036E841E050E00E94CC26860E971EA81E34
:104A7000B91E8F2D90E0C09740E157E2849F9001CE
:104A8000859F300D949F300D1124C901330FAA0B5F
:104A9000BB0B880E991EAA1EBB1E802F90E0C097EC
:104AA00028EE33E0829FA001839F500D929F500D0E
:104AB0001124CA01550FAA0BBB0BB501A401480F65
:104AC000591F6A1F7B1F812F90E0C09724E6289F03
:104AD0004001299F900C1124C401990CAA0BBB0B17
:104AE0004A015B01880E991EAA1EBB1E2C2F30E0C6
:104AF000205331094AE0429FC001439F900D112489
:104B0000092E000CAA0BBB0B880D991DAA1DBB1DFD
:104B10008D0F911DA11DB11DBC01CD016053710907
:104B200081099109DF91CF911F910F91FF90EF9033
:104B3000DF90CF90BF90AF909F908F907F9008951F
:104B400010929500109294001092D01D1092D11DD9
:104B50001092D21D1092D31D85E00E9436059093CD
:104B6000D51D8093D41D2091160130911701A90104
:104B700048505109B4E056954795BA95E1F7241B82
:104B8000350BB901680F791F7093170160931601F7
:104B9000FB0124E0F695E7952A95E1F7E817F90778
:104BA000A0F42091140130911501A9014850510938
:104BB000A4E056954795AA95E1F7241B350B280FDD
:104BC000391F30931501209314018E179F07A0F40D
:104BD0002091120130911301A90148505109F4E0CC
:104BE00056954795FA95E1F7241B350B280F391F89
:104BF000309313012093120120911401309115017B
:104C00004091120150911301420F531F2091110145
:104C1000FA01E20FF11D9F01F093581DE093571D1B
:104C2000AB014E1B5F0BE4E056954795EA95E1F723
:104C30008417950718F488EC90E011C0260F371FF1
:104C400044E0369527954A95E1F72817390798F3F8
:104C50008091591D90915A1D009729F001979093CA
:104C60005A1D8093591D209194003091950043E383
:104C7000429FC001439F900D112468EE73E00E9493
:104C80008D26CB01A0E0B0E08093D01D9093D11D84
:104C9000A093D21DB093D31D80E19DE10E94132308
:104CA0008091D41D81580E94262384E296E10E94BF
:104CB000132382E29DE10E941323809112019091BF
:104CC000130124E0969587952A95E1F781580E9473
:104CD000262384E296E10E94132384E39DE10E944F
:104CE0001323809114019091150134E096958795D6
:104CF0003A95E1F781580E94262384E296E10C94CC
:104D00001323991B79E004C0991F961708F0961B8E
:104D1000881F7A95C9F780950895AA1BBB1B51E19E
:104D200007C0AA1FBB1FA617B70710F0A61BB70B1B
:104D3000881F991F5A95A9F780959095BC01CD01C0
:104D40000895A1E21A2EAA1BBB1BFD010DC0AA1FCC
:104D5000BB1FEE1FFF1FA217B307E407F50720F0E4
:104D6000A21BB30BE40BF50B661F771F881F991F5F
:104D70001A9469F760957095809590959B01AC01A8
:104D8000BD01CF010895EE0FFF1F0024001C0BBED4
:104D90000790F691E02D0994B7FF0C94D4260E9459
:104DA000D426821B930B08950E94DF26A59F900DA9
:104DB000B49F900DA49F800D911D11240895A29F72
:104DC000B001B39FC001A39F700D811D1124911DDF
:104DD000B29F700D811D1124911D08955058BB275D
:104DE000AA270E9406270C94B9280E94AB2838F005
:104DF0000E94B22820F039F49F3F19F426F40C9455
:104E0000A8280EF4E095E7FB0C947928E92F0E947E
:104E1000CA2858F3BA17620773078407950720F06A
:104E200079F4A6F50C9404290EF4E0950B2EBA2F14
:104E3000A02D0B01B90190010C01CA01A0011124A0
:104E4000FF27591B99F0593F50F4503E68F11A164C
:104E5000F040A22F232F342F4427585FF3CF4695DD
:104E600037952795A795F0405395C9F77EF41F16FF
:104E7000BA0B620B730B840BBAF09150A1F0FF0FC9
:104E8000BB1F661F771F881FC2F70EC0BA0F621FB5
:104E9000731F841F48F4879577956795B795F795A5
:104EA0009E3F08F0B0CF9395880F08F09927EE0F3A
:104EB0009795879508950E94552808F481E00895F4
:104EC0000E9474270C94B9280E94B22858F00E94BE
:104ED000AB2840F029F45F3F29F00C947928511158
:104EE0000C9405290C94A8280E94CA2868F39923D9
:104EF000B1F3552391F3951B550BBB27AA276217D6
:104F00007307840738F09F5F5F4F220F331F441FE2
:104F1000AA1FA9F335D00E2E3AF0E0E832D0915016
:104F20005040E695001CCAF72BD0FE2F29D0660F03
:104F3000771F881FBB1F261737074807AB07B0E846
:104F400009F0BB0B802DBF01FF2793585F4F3AF04C
:104F50009E3F510578F00C9479280C9405295F3F09
:104F6000E4F3983ED4F3869577956795B795F795D2
:104F70009F5FC9F7880F911D9695879597F90895BA
:104F8000E1E0660F771F881FBB1F62177307840756
:104F9000BA0720F0621B730B840BBA0BEE1F88F765
:104FA000E09508950E94D22888F09F5798F0B92F75
:104FB0009927B751B0F0E1F0660F771F881F991F4E
:104FC0001AF0BA95C9F714C0B13091F00E940429C3
:104FD000B1E008950C940429672F782F8827B85FD3
:104FE00039F0B93FCCF3869577956795B395D9F7A6
:104FF0003EF490958095709561957F4F8F4F9F4FB0
:105000000895E89409C097FB3EF4909580957095BB
:1050100061957F4F8F4F9F4F9923A9F0F92F96E904
:10502000BB279395F695879577956795B795F11179
:10503000F8CFFAF4BB0F11F460FF1BC06F5F7F4F16
:105040008F4F9F4F16C0882311F096E911C0772328
:1050500021F09EE8872F762F05C0662371F096E831
:10506000862F70E060E02AF09A95660F771F881F00
:10507000DAF7880F9695879597F908950E94EC289E
:1050800090F09F3748F4911116F00C94052960E0D8
:1050900070E080E89FEB089526F41B16611D711DDA
:1050A000811D0C947F280C949A28990F0008550FA5
:1050B000AA0BE0E8FEEF16161706E807F907C0F09E
:1050C00012161306E407F50798F0621B730B840BA6
:1050D000950B39F40A2661F0232B242B252B21F480
:1050E00008950A2609F4A140A6958FEF811D811D20
:1050F000089597F99F6780E870E060E0089588233D
:1051000071F4772321F09850872B762F07C0662300
:1051100011F499270DC09051862B70E060E02AF0C1
:105120009A95660F771F881FDAF7880F96958795EF
:1051300097F908959F3F31F0915020F48795779526
:105140006795B795880F911D9695879597F908955E
:105150009FEF80EC089500240A941616170618068F
:105160000906089500240A9412161306140605066B
:105170000895092E0394000C11F4882352F0BB0FFC
:1051800040F4BF2B11F460FF04C06F5F7F4F8F4F5F
:105190009F4F089557FD9058440F551F59F05F3F9A
:1051A00071F04795880F97FB991F61F09F3F79F049
:1051B00087950895121613061406551FF2CF4695CB
:1051C000F1DF08C0161617061806991FF1CF86954D
:1051D00071056105089408950E94D228A0F0BEE7E9
:1051E000B91788F4BB279F3860F41616B11D672FD6
:1051F000782F8827985FF7CF869577956795B11DAB
:1052000093959639C8F30895E894BB2766277727C6
:10521000CB0197F908950E94552808F48FEF08955F
:105220000E9423290C94B9280E94AB2838F00E94D0
:10523000B22820F0952311F00C9479280C94A8281A
:1052400011240C9405290E94CA2870F3959FC1F37C
:10525000950F50E0551F629FF001729FBB27F00D24
:10526000B11D639FAA27F00DB11DAA1F649F662779
:10527000B00DA11D661F829F2227B00DA11D621FC8
:10528000739FB00DA11D621F839FA00D611D221F82
:10529000749F3327A00D611D231F849F600D211D66
:1052A000822F762F6A2F11249F5750409AF0F1F0E9
:1052B00088234AF0EE0FFF1FBB1F661F771F881F52
:1052C00091505040A9F79E3F510580F00C947928E9
:1052D0000C9405295F3FE4F3983ED4F386957795C7
:1052E0006795B795F795E7959F5FC1F7FE2B880FF8
:1052F000911D9695879597F90895FA01EE0FFF1F76
:10530000309621053105A1F16115710561F48038F0
:10531000BFE39B0749F168949038810561F08038BC
:10532000BFEF9B0741F099234AF5FF3FE1053105A7
:10533000210519F1E8940894E795D901AA2329F4E5
:10534000AB2FBE2FF85FD0F310C0FF5F70F4A695AF
:10535000E0F7F73950F019F0FF3A38F49F779F9350
:105360000DD00F9007FC9058089546F00C94A82893
:1053700060E070E080E89FE308954FE79F775F93D8
:105380004F933F932F930E949C2A2F913F914F91CF
:105390005F910E9410290C94F9290E94D228E8F00C
:1053A0009E37E8F09639B8F49E3848F4672F782F86
:1053B0008827985FF9CF8695779567959395953966
:1053C000D0F3B62FB1706B0F711D811D20F487953E
:1053D0007795679593950C947F280C949A280C9454
:1053E000052929F416F00C9479280C9404290C94BE
:1053F000A8280E94D228A8F39638A0F707F80F92A1
:10540000E8942BE33AEA48EB5FE70E9426290F92E3
:105410000F920F924DB75EB70F920E94E42AE4E319
:10542000F1E00E942B2A4F915F91EF91FF91E5955A
:10543000EE1FFF1F49F0FE57E0684427EE0F441FA0
:10544000FA95E1F74195550B0E945E2A0F9007FEF1
:105450000C94522A0895DF93CF931F930F93FF92DA
:10546000EF92DF927B018C01689406C0DA2EEF0187
:105470000E942329FE01E894A5912591359145913B
:105480005591A6F3EF010E940627FE019701A8019E
:10549000DA9469F7DF90EF90FF900F911F91CF9111
:1054A000DF9108959B01AC0160E070E080E89FE32C
:1054B0000C9460270C9479280C949A280E94D22886
:1054C000D8F39923C9F3940F511DA3F39150504081
:1054D00094F059F0882332F0660F771F881F91509F
:1054E0005040C1F79E3F51052CF7880F911D9695AE
:1054F000879597F908955F3FACF0983E9CF0BB27E5
:10550000869577956795B79508F4B1609395C1F73F
:10551000BB0F58F711F460FFE8CF6F5F7F4F8F4FDD
:105520009F4FE3CF0C94052916F00C949A280C9405
:10553000A82868940C9479280E94D228A8F399236B
:10554000C1F3AEF3DF93CF931F930F93FF92C92F55
:10555000DD2788232AF02197660F771F881FDAF747
:1055600020E030E040E85FEB9FE3883920F0803EA8
:1055700038F021968F770E94EF26ECE5F1E004C029
:105580000E94EF26E9E8F1E00E942B2A8B01BE0180
:10559000EC01FB2E6F5771097595771F880B990BDE
:1055A0000E94032828E132E741E35FE30E942329B8
:1055B000AF2D9801AE01FF900F911F91CF91DF9118
:1055C0000E9406270C94B928FA01DC01AA0FBB1F20
:1055D0009B01AC01BF5728F422273327442750787A
:1055E00020C0B75190F4AB2F0024469537952795EE
:1055F000011CA395D2F3002071F0220F331F441F2A
:10560000B395DAF30ED00C94EE2661307105A0E864
:105610008A07B94630F49B01AC01662777278827B3
:105620009078309621F0208331834283538308950C
:10563000FC0188279927E89421912032E9F3293049
:1056400010F02E30C8F32B3241F02D3239F468942B
:1056500004C00E94552C820F911D219120532A30A5
:10566000C0F31EF4909581959F4F0895283008F05F
:1056700027E03327DA01990F311D87FD91600096ED
:105680006105710539F432602E5F3D9330E32A9550
:10569000E1F708959F3F30F080387105610509F00A
:1056A0003C5F3C5F3D93913008F08068911DDF9333
:1056B000CF931F930F93FF92EF92192F987F969598
:1056C000E92F96959695E90FFF27E85EFD4F9927FC
:1056D0003327EE24FF24A701E701059008940794DF
:1056E00028F4360FE71EF81E491F511D660F771F5D
:1056F000881F991F0694A1F70590079428F4E70ED8
:10570000F81E491F561FC11D770F881F991F661F5E
:105710000694A1F70590079428F4F80E491F561F28
:10572000C71FD11D880F991F661F771F0694A1F709
:105730000590079420F4490F561FC71FD81F990FD3
:10574000661F771F881F0694A9F78491109517701C
:1057500041F0D695C79557954795F794E7941A95D4
:10576000C1F7EEEBF1E068941590159135916591D4
:10577000959105907FE27395E118F10A430B560B62
:10578000C90BD009C0F7E10CF11E431F561FC91FFA
:10579000D01D7EF4703311F48A95E6CFE894015061
:1057A00030F0080F0AF40027021708F4202F239581
:1057B000022F7A3328F079E37D932A95E9F710C018
:1057C0007D932A9589F60694979567953795179551
:1057D0001794E118F10A430B560BC90BD00998F046
:1057E00023957E9173957A3308F070E37C932013B0
:1057F000B8F77E9170617D9330F0839571E37D936E
:1058000070E32A95E1F71124EF90FF900F911F911B
:10581000CF91DF91992787FD90950895FC01059020
:10582000615070400110D8F7809590958E0F9F1FA2
:105830000895FB01DC010D900020E9F7119701901C
:105840000D920020E1F70895FB01DC018D9101909C
:1058500080190110D9F3990B0895FB01DC01019027
:105860000D920020E1F70895FC0161507040019015
:105870000110D8F7809590958E0F9F1F089545329F
:10588000510520F4423010F00C944A2CFB01108298
:10589000CB010895BB274A3031F4992322F4BDE2AD
:1058A000909581959F4F0C945E2C7AE0979F902D58
:1058B000879F802D910D11240895BB27FB0155274B
:1058C000AA27880F991FAA1FA41710F0A41B83955D
:1058D0005051B9F7A05DAA3308F0A95DA1930097D4
:1058E00079F7B111B1931192CB010C94402D0F9324
:1058F0001F93CF93DF93FB01238121FD03C08FEF23
:105900009FEF2CC022FF16C046815781248135812C
:105910004217530744F4A081B1819D012F5F3F4F8F
:10592000318320838C93268137812F5F3F4F3783CC
:10593000268314C08B01EC01FB010084F185E02D6E
:105940000995892BE1F6D80116968D919C911797B0
:10595000019617969C938E931697CE01DF91CF9167
:105960001F910F9108950F931F93CF93DF93CDB79E
:10597000DEB72E970FB6F894DEBF0FBECDBF0D89F0
:105980001E8986E08C831A8309838FEF9FE79E83AD
:105990008D83AE01475E5F4F6F89788DCE01019692
:1059A0000E948601EF81F885E00FF11F10822E968C
:1059B0000FB6F894DEBF0FBECDBFDF91CF911F9120
:1059C0000F910895FA01AA27283051F1203181F171
:1059D000E8946F936E7F6E5F7F4F8F4F9F4FAF4FF7
:1059E000B1E03ED0B4E03CD0670F781F891F9A1F0A
:1059F000A11D680F791F8A1F911DA11D6A0F711DBE
:105A0000811D911DA11D20D009F468943F912AE0C9
:105A1000269F11243019305D3193DEF6CF010895B1
:105A2000462F4770405D4193B3E00FD0C9F7F6CFE2
:105A3000462F4F70405D4A3318F0495D31FD4052AA
:105A4000419302D0A9F7EACFB4E0A6959795879540
:105A500077956795BA95C9F700976105710508951F
:105A60009B01AC010A2E06945795479537952795CB
:105A7000BA95C9F7620F731F841F951FA01D089563
:105A8000DC01FC01672F71917723E1F7329704C0A5
:105A90007C916D9370836291AE17BF07C8F3089530
:045AA000F894FFCFA8
:105AA4000078191E0C1B0AE6072828282828280530
:105AB4000210F4010802FF0169737375696E6720AF
:105AC40061646472657373202B2077726974652036
:105AD400626974203E3E206F6B212C2064657669D8
