:100000000C9465010C9484010C9484010C9484017B
:100010000C9484010C9484010C9406200C948401AB
:100020000C9484010C9484010C9484010C9484013C
:100030000C9484010C9484010C9484010C94BC1FD6
:100040000C94D31F0C9484010C9484010C948401AF
:100050000C9484010C9484010C9484010C9484010C
:100060000C9430200C9484010C9484010C94840131
:100070000C9484010C9484010C9484010C948401EC
:100080000C9484010C9484010C948401051FA51F19
:10009000A51FA51FA51FA51FA51FFB1E351FA51F5B
:1000A000311FA51FF41EF11E251F291F2D1FE41E41
:1000B000ED1EE01E091FEA1E0D1FA51FA51FA51F8F
:1000C000A51FA51FA51FA51FD01E781F491FD51E40
:1000D0007E1F7C1FA51FA31FA51FA51FA51F111FE6
:1000E000551F511FC31E591F801F151FCA1EC11E39
:1000F000A11F4D1FC51EDA1E021F7A1FA51FA51FB7
:10010000A51FA51FA51FA51F191FA51F5C1F391F10
:100110006C1F3D1FA51F411FA51F451F211F1D1F30
:10012000681F641F721F751FA51F6F1FA51FA51FC6
:10013000A51F601F07634236B79BD8A71A396856B8
:1001400018AEBAAB558C1D3CB7CC5763BD6DEDFDF9
:10015000753EF6177231BF000000803F08000000B6
:10016000BE922449123EABAAAA2ABECDCCCC4C3EAC
:1001700000000080BEABAAAAAA3E00000000BF009B
:100180000000803F0000000000084178D3BB438797
:10019000D1133D190E3CC3BD4282AD2B3E68EC82AB
:1001A00076BED98FE1A93E4C80EFFFBE01C4FF7F30
:1001B0003F00000000006E616E00696E6600004046
:1001C0007A10F35A00A0724E18090010A5D4E80066
:1001D00000E87648170000E40B54020000CA9A3B7E
:1001E000000000E1F5050000809698000000404204
:1001F0000F000000A0860100000010270000000092
:10020000E803000000006400000000000A00000095
:1002100000000100000000002C76D888DC674F0841
:1002200023DFC1DFAE59E1B1B796E5E3E453C63A47
:10023000E651997696E8E6C28426EB898C9B62EDBE
:10024000407C6FFCEFBC9C9F40F2BAA56FA5F49078
:10025000055A2AF75C936B6CF9676DC11BFCE0E4EF
:100260000D47FEF520E6B500D0ED902E0300943545
:1002700077050080841E080000204E0A000000C898
:100280000C333333330F986E12831141EF8D2114E9
:10029000893BE65516CFFEE6DB18D1844B381BF7B9
:1002A0007C1D901DA4BBE424203284725E22810058
:1002B000C9F124ECA1E53D272569207365632E2053
:1002C000666F72206D656E75000011241FBECFEF42
:1002D000D0E4DEBFCDBF1EE1A0E0B1E0E2E8FCE586
:1002E00000E00BBF02C007900D92A030B107D9F714
:1002F0002EE1A0E0BEE101C01D92AE38B207E1F7E9
:100300000E9431200C943F2E0C9400002F923F92BB
:100310004F925F926F927F928F929F92AF92BF9215
:10032000CF92DF92EF92FF920F931F93CF93DF93C1
:10033000CDB7DEB760970FB6F894DEBF0FBECDBF66
:100340007C011B016A01FC0117821682838181FFF7
:1003500044C39E012F5F3F4F3901F7019381F101A3
:1003600093FD859193FF81911F01882309F431C387
:10037000853239F493FD859193FF81911F01853278
:1003800039F4B70190E00E94662D56016501E5CF72
:1003900010E0512C912CFFE1F915D8F08B3279F057
:1003A00038F4803279F08332A1F4F92DF0612EC057
:1003B0008D3261F0803369F4292D21602DC0392DF3
:1003C0003260932E892D8460982E2AC0E92DE86032
:1003D00015C097FC2DC020ED280F2A3088F496FE1A
:1003E00006C03AE0139F200D1124122F19C08AE095
:1003F000589E200D1124522EE92DE0629E2E10C031
:100400008E3231F496FCE5C2F92DF0649F2E08C0BF
:100410008C3621F4292D2068922E02C0883641F4B2
:10042000F10193FD859193FF81911F018111B3CF5C
:100430009BEB980F933020F4992D9061805E07C05C
:100440009BE9980F933008F066C1992D9F7E96FF27
:1004500016E09F73992E853619F49064992E08C082
:10046000863621F4392F3068932E02C011111150B5
:1004700097FE07C01C3350F444244394410E27E0F8
:100480000BC0183038F027E017E005C027E09CE3E8
:10049000492E02C0212F412C560184E0A80EB11C28
:1004A000F6016081718182819381042DA3010E94F4
:1004B000252C6C01F981FC87F0FF02C0F3FF06C018
:1004C00091FC06C092FE06C000E205C00DE203C02A
:1004D0000BE201C000E08C858C7019F001115AC24A
:1004E0009BC297FE10C04C0CFC85F4FF04C08A81AF
:1004F000813309F44A94141474F528E0241578F52E
:1005000088E0482E2CC096FC2AC0812F90E08C15E4
:100510009D059CF03CEFC3163FEFD30674F0892D88
:100520008068982E0AC0E2E0F0E0EC0FFD1FE10FBA
:10053000F11D8081803319F411501111F4CF97FE11
:100540000EC044244394410E812F90E0C816D90672
:100550002CF41C1904C04424439401C010E097FEFD
:1005600006C01C141D0434F4C601019605C085E0C4
:1005700090E002C081E090E001110196112331F07A
:10058000212F30E02F5F3F4F820F931F252D30E04A
:100590008217930714F4581A01C0512C892D8970C1
:1005A00049F4552039F0B70180E290E00E94662DB1
:1005B0005A94F7CF002329F0B701802F90E00E94D2
:1005C000662D93FC09C0552039F0B70180E390E017
:1005D0000E94662D5A94F7CF97FE4CC04601D7FE75
:1005E00002C0812C912CC60188199909F301E80FEA
:1005F000F91FFE87ED87960124193109388B2F8763
:10060000012F10E01195019511093FEF8316930614
:1006100029F4B7018EE290E00E94662DC814D90437
:100620004CF08F8598898815990524F4ED85FE8511
:10063000818101C080E3F1E08F1A91082D853E850C
:100640002F5F3F4F3E872D87801691062CF0B70114
:1006500090E00E94662DD9CFC814D90441F49A8144
:10066000963320F4953319F43C8534FF81E3B701C8
:1006700090E04EC08A81813319F09C859F7E9C87D3
:10068000B70190E00E94662D111105C094FC18C0BE
:1006900085E690E017C0B7018EE290E00E94662DDB
:1006A0001E5F82E001E0080FF301E80FF11D808179
:1006B000B70190E00E94662D802F0113F3CFE6CFA3
:1006C00085E490E0B7010E94662DD7FC06C0C114F6
:1006D000D10441F4EC85E4FF05C0D194C194D10864
:1006E0008DE201C08BE2B70190E00E94662D80E3AD
:1006F0002AE0C216D1042CF08F5FFAE0CF1AD1089D
:10070000F7CFB70190E00E94662DB701C601C096F1
:100710000E94662D54C1833631F0833779F08335DA
:1007200009F056C020C0560132E0A30EB11CF601FC
:100730008081898301E010E0630112C05601F2E07C
:10074000AF0EB11CF601C080D18096FE03C0612FB0
:1007500070E002C06FEF7FEFC6010E94232D8C0175
:10076000F92DFF7714C0560122E0A20EB11CF6014C
:10077000C080D18096FE03C0612F70E002C06FEF91
:100780007FEFC6010E94FD2C8C01F92DF0689F2E91
:10079000F3FD1AC0852D90E008171907A8F4B701DA
:1007A00080E290E00E94662D5A94F4CFF60197FC07
:1007B000859197FE81916F01B70190E00E94662DAF
:1007C00051105A94015011090115110579F7F7C01C
:1007D000843611F0893661F5560197FE09C024E090
:1007E000A20EB11CF60160817181828193810AC0E1
:1007F000F2E0AF0EB11CF60160817181072E000C92
:10080000880B990BF92DFF769F2E97FF09C09095C5
:100810008095709561957F4F8F4F9F4FF0689F2E09
:100820002AE030E0A3010E94D12DC82EC6183FC097
:10083000092D853721F40F7E2AE030E01DC0097FA5
:100840008F3691F018F4883559F0C3C0803719F00D
:10085000883711F0BEC0006104FF09C0046007C002
:1008600094FE08C0066006C028E030E005C020E124
:1008700030E002C020E132E0560107FF09C084E009
:10088000A80EB11CF601608171818281938108C03C
:10089000F2E0AF0EB11CF6016081718180E090E062
:1008A000A3010E94D12DC82EC6180F77902E96FE58
:1008B0000BC0092D0E7FC11650F494FE0AC092FCA5
:1008C00008C0092D0E7E05C0DC2C092D03C0DC2CD0
:1008D00001C0D12E04FF0DC0FE01EC0DF11D808181
:1008E000803311F4097E09C002FF06C0D394D3946B
:1008F00004C0802F867809F0D39403FD11C000FF57
:1009000006C01C2DD51480F4150D1D190DC0D5146D
:1009100058F4B70180E290E00E94662DD394F7CF9F
:10092000D51410F45D1801C0512C04FF10C0B7019C
:1009300080E390E00E94662D02FF17C001FD03C016
:1009400088E790E002C088E590E0B7010CC0802FF6
:10095000867859F001FF02C08BE201C080E207FDFA
:100960008DE2B70190E00E94662DC11638F4B70100
:1009700080E390E00E94662D1150F7CFCA94F301F6
:10098000EC0DF11D8081B70190E00E94662DC11031
:10099000F5CF15C0F4E0F51560F584E0581A93FE24
:1009A0001FC0011127C02C8523FF2AC006EB11E0D0
:1009B000392D3071932EF8018491811124C0552076
:1009C00009F4E4CCB70180E290E00E94662D5A94CD
:1009D000F6CFF7018681978126C08FEF9FEF23C066
:1009E000B70180E290E00E94662D5A945110F8CF32
:1009F000D8CF512CB701802F90E00E94662DD3CF25
:100A00000AEB11E0D5CF91108052B70190E00E941F
:100A1000662D0F5F1F4FCFCF23E0251510F483E025
:100A2000BDCF512CC0CF60960FB6F894DEBF0FBE7D
:100A3000CDBFDF91CF911F910F91FF90EF90DF908D
:100A4000CF90BF90AF909F908F907F906F905F906E
:100A50004F903F902F90089583B7817F826083BF2E
:100A6000EAE7F0E0808188608083089590917C00BF
:100A7000907E90937C0090917C00892B80937C00E9
:100A800080917A00806480937A0080917A0086FF5A
:100A9000FCCF809178009091790008951F93CF93B7
:100AA000DF9310E1C0E0D0E083B7816083BF889519
:100AB00083B78E7F83BF87E00E943605C80FD91F9A
:100AC000115091F7CE019695879596958795DF9170
:100AD000CF911F910895249A2C9A259A2E9A279A9D
:100AE0008CB581608CBD8CB580618CBD8CB580640B
:100AF0008CBD08958EBD0DB407FEFDCF0895CF9334
:100B0000DF93EB010E947A058D2F0E947A058C2FCE
:100B1000DF91CF910C947A052C9886E00E947A059B
:100B20002C9A0895CF92DF92EF92FF926B017C0195
:100B30002C9883E00E947A05C701B6010E947F05C8
:100B400080E00E947A052C9A8EB5FF90EF90DF909E
:100B5000CF900895CF92DF92EF92FF92CF936B01E7
:100B60007C01C42F0E948C052C9882E00E947A059B
:100B7000C701B6010E947F058C2F0E947A050DB433
:100B800007FEFDCF2C9ACF91FF90EF90DF90CF9092
:100B90000895CF92DF92EF92FF92CF93DF936B0194
:100BA0007C012C9883E00E947A05C701B6010E945F
:100BB0007F0580E00E947A05CEB5D0E0DC2FCC27FF
:100BC00080E00E947A058EB52C9A9E01280F311D77
:100BD000C901DF91CF91FF90EF90DF90CF90089502
:100BE000CF92DF92EF92FF92CF93DF936B017C0164
:100BF000EA010E948C052C9882E00E947A05C701C8
:100C0000B6010E947F058D2F0E947A058C2F0E94CD
:100C10007A052C9ADF91CF91FF90EF90DF90CF90E3
:100C20000895CF92DF92EF92FF92C12CD12C7601E2
:100C30000E948C052C9882E00E947A05C701B601BB
:100C40000E947F0580E00E947A058FEFC81AD80ABB
:100C5000E80AF80A2C9A8FEFC816D806E104F104C6
:100C600039F7FF90EF90DF90CF9008950E944607EC
:100C700084EC0E945F078091B900887F883199F5E4
:100C800088E191E00E94022488E10E941F258DEAFC
:100C900099E10E94022480E00E945F078091B900E0
:100CA000887F883201F580E591E00E94022488E285
:100CB0000E941F258DEA99E10E94022484E00E948F
:100CC0005F078091B900887F883269F484E791E0FA
:100CD0000E94022488E20E941F258DEA99E10E9469
:100CE00002240C944B070895CF930E94460784EC8E
:100CF0000E945F078091B900887F883101F588E103
:100D000091E00E94022488E10E941F258DEA99E16A
:100D10000E94022481E00E945F078091B900887FD1
:100D2000883269F482E991E00E94022488E20E94FC
:100D30001F258DEA99E10E9402240E944B0786EB51
:100D400091E00E9402248DEA99E10E9402240E940F
:100D5000460785EC0E945F07C091B900C87F8C2FC1
:100D60000E941F258DEA99E10E940224C034D1F42B
:100D700080EC91E00E94022480E40E941F258DEA0D
:100D800099E10E9402240E945707C82F8EEF91E03C
:100D90000E9402248C2F0E941F258DEA99E10E9457
:100DA000022401C0C0E08C2FCF9108951F93CF93F0
:100DB000DF930E94460784EC0E945F078091B90090
:100DC000887F883159F488E191E00E94022488E10B
:100DD0000E941F258DEA99E10E9402248FE80E945B
:100DE0005F078091B900887F883269F480E192E0E2
:100DF0000E94022488E20E941F258DEA99E10E9448
:100E000002240E944B070E94460785EC0E945F0760
:100E10008091B900887F803409F584E392E00E94D4
:100E2000022480E40E941F258DEA99E10E94022499
:100E30000E944F07182F0E945707C82F0E944B0788
:100E4000D0E0D12B81E792E00E940224CE010E94E3
:100E50002E248DEA99E10E94022402C0C0E0D0E075
:100E6000CE01DF91CF911F91089588B1836088B939
:100E700086E48093B800ECEBF0E0808184608083AE
:100E800008958091BC0087FFFCCF089584EA809389
:100E9000BC000C94410784E98093BC00089584EC65
:100EA0008093BC000E9441078091BB00089584E8B4
:100EB0008093BC000E9441078091BB0008958093FD
:100EC000BB0084E88093BC000C944107CF93C82FEB
:100ED0000E9446078EE40E945F078C2F88600E9464
:100EE0005F07CF910C944B071F93CF93DF93D82FBD
:100EF00011E0611101C010E0D4FF02C080E101C027
:100F000080E0D5FD8062D6FD8064D7FD8068C82F63
:100F1000C12B8C2F84600E94660787EA91E60197B7
:100F2000F1F700C000008C2F0E946607D0FF02C0BE
:100F300080E101C080E0D1FD8062D2FD8064D3FDFC
:100F40008068182B812F84600E94660787EA91E6EB
:100F50000197F1F700C00000812FDF91CF911F9121
:100F60000C94660760E081E00E94740760E080E80E
:100F70000E9474071092001E089560E080E80E94AD
:100F800074071092001E0895CF93C4E0C150B1F0D1
:100F900084E30E9466078FE493EC0197F1F700C0A9
:100FA000000080E30E9466079FE72AE186E09150F7
:100FB00020408040E1F700C00000E8CF84E20E94BA
:100FC00066078FE493EC0197F1F700C0000080E220
:100FD0000E9466078FE493EC0197F1F700C00000D0
:100FE00060E088E20E94740760E08CE00E94740771
:100FF000CF910C94B207CF93C82F8091001E8031FF
:1010000021F460E080EC0E9474078091001E803221
:1010100031F460E080E80E9474071092001E809115
:10102000001E8F5F8093001E61E08C2FCF910C9487
:1010300074070F931F93CF93DF93EC018E01888188
:101040008823F1F08091001E803121F460E080EC73
:101050000E9474078091001E803231F460E080E8C5
:101060000E9474071092001E8091001E8F5F809373
:10107000001E219661E0F80180810E947407DECF96
:10108000DF91CF911F910F9108954F925F926F92D0
:101090007F928F929F92AF92BF92CF92DF92EF9208
:1010A000FF920F931F93CF93DF93CDB7DEB7649773
:1010B0000FB6F894DEBF0FBECDBFFE01B79681908C
:1010C00091907F01712C6E018BE0C80ED11CFE0146
:1010D00031965F0180E3682E2401FFEF4F1A5F0A0B
:1010E000F4018491882309F4A6C0853209F08FC0E9
:1010F00084010E5F1F4FF2018491282F30E02053AE
:1011000031092A303105D8F589831A82C5010E9438
:10111000072C782E94012D5F3F4FF801049109367A
:1011200051F138F40236E1F10336D1F0890148017A
:10113000D3CF033731F0083779F10F36B9F789018A
:1011400028C08901F70180809180F2E0EF0EF11C48
:10115000F40181914F01882351F30E94FB07F8CFDE
:1011600089014701F2E08F0E911CF70180810E94F6
:10117000FB077401DCCF890198014AE012C089366F
:10118000D9F308F448C08337E9F2883731F08F3655
:1011900071F6980148E005C08901980140E101C05D
:1011A00042E050E04701F2E08F0E911CF701808190
:1011B00091818901B6010E942E2DF601CF018C1973
:1011C0009D0921912111FACF272D30E08217930735
:1011D000C4F4781AF501872D90E09F012A193B0984
:1011E0002817390714F46192F8CFF501E80FF91FB9
:1011F0001082B601C5010E94082DB501C6010E94EA
:101200001C2DC6010E9419087401712C90CF0E94F8
:10121000FB0782018CCF823651F44701F2E08F0E3A
:10122000911CF7018081918142E050E0C3CF833669
:1012300009F497CF7CCF64960FB6F894DEBF0FBE4B
:10124000CDBFDF91CF911F910F91FF90EF90DF9075
:10125000CF90BF90AF909F908F907F906F905F9056
:101260004F90089550E05093890040938800882360
:1012700019F0109A549A02C01098549850938B0009
:1012800040938A00662319F0119A559A089511988F
:10129000559808954093B300882319F0129A569AEE
:1012A00002C0129856984093B400662319F0139A1E
:1012B000579A0895139857980895CF93DF93C82F9E
:1012C000D82FD6958D2F0E9415241F92DF938DE77E
:1012D00092E09F938F9381E69EE19F938F930E946C
:1012E000A22D81E69EE10E9419080F900F900F90A9
:1012F0000F900F900F90C0FF07C080E892E00E940F
:10130000022485E892E006C08FE892E00E94022461
:1013100084E992E00E94190888E892E0DF91CF9179
:101320000C9419081092C50084E08093C400E0EC8E
:10133000F0E080818260808388E18093C10086E054
:101340008093C20008950F931F93CF938C01C62FF3
:1013500067E972E00E94132D892B21F44C2F60E085
:1013600081E01EC06FE972E0C8010E94132D892B35
:1013700069F44C2F60E081E00E944A094C2F61E043
:1013800080E0CF911F910F910C94320965EA72E0D1
:10139000C8010E94132D892B49F44C2F61E080E095
:1013A0000E944A094C2F60E081E0EBCF6AEA72E0CC
:1013B000C8010E94132D892B21F44C2F61E080E09D
:1013C000DBCF63EB72E0C8010E94132D892B41F43F
:1013D00040E060E080E00E944A0940E060E0D0CF59
:1013E00089EB92E00E9402248DEA99E1CF911F914E
:1013F0000F910C9402242F923F924F925F926F9222
:101400007F928F929F92AF92BF92CF92DF92EF9294
:10141000FF920F931F93CF93DF9300D000D000D0A3
:10142000CDB7DEB7182F6E83B42E022FC82ED12C65
:10143000E12CF12C24E2C21AD1082FEFE20AF20AC1
:10144000C701B6010E9492058D831031E0F08FEC48
:1014500092E026960FB6F894DEBF0FBECDBFDF91A7
:10146000CF911F910F91FF90EF90DF90CF90BF90A1
:10147000AF909F908F907F906F905F904F903F9034
:101480002F900C9402248B2D90E0A0E0B0E0898393
:101490009A83AB83BC839D8197FD6CC1AE8144EF81
:1014A000242E33243394A7FDD8C09A170CF07BC0A8
:1014B000BD816B2FBB0F770B880B990B0E94F22815
:1014C000AB01BC01812F0E9415234E81C701B601DB
:1014D0000E94AA0569817A818B819C810E94F028F3
:1014E0002B013C0120E030E44CE955E40E94FF2947
:1014F0004B015C0120E030E040E85FE30E944A28B5
:1015000087FD22C020E03FEF4FE757E4C501B4015B
:101510000E94FA2918169CF420E030E040E251E4E1
:10152000C301B2010E94FF290E94C1286115710503
:1015300081F0C1010197F1F761507109F7CFC50141
:10154000B4010E94C12802C061E070E0CB010197A4
:10155000F1F72D81200F2D833E8132170CF0A8CF9B
:1015600085E093E00E940224812F0E94152488E2E6
:1015700093E00E9402243CEDC32EDD24DA94E12C9A
:10158000F12C812F90E09A838983B3C0C501B40107
:101590000E94C128CB010197F1F7BD81B01BBD832B
:1015A0002E81B217ECF2AD816A2FAA0F770B880B50
:1015B000990B0E94F228AB01BC01812F0E941523D8
:1015C0004E81C701B6010E94AA0569817A818B818B
:1015D0009C810E94F0282B013C0120E030E44CE982
:1015E00055E40E94FF294B015C0120E030E040E817
:1015F0005FE30E944A2887FD1FC020E03FEF4FE7CE
:1016000057E4C501B4010E94FA2918160CF0BECFA8
:1016100020E030E040E251E4C301B2010E94FF2922
:101620000E94C1286115710509F4B7CFC101019766
:10163000F1F761507109F6CF61E070E0ABCFC50101
:10164000B4010E94C128CB010197F1F78D81801B65
:101650008D839E8189170CF483CF3D81632F330FD7
:10166000770B880B990B0E94F228AB01BC01812FEC
:101670000E9415234E81C701B6010E94AA05698107
:101680007A818B819C810E94F0282B013C0120E013
:1016900030E44CE955E40E94FF294B015C0120E055
:1016A00030E040E85FE30E944A2887FD1FC020E049
:1016B0003FEF4FE757E4C501B4010E94FA2918161D
:1016C0000CF0BDCF20E030E040E251E4C301B201B4
:1016D0000E94FF290E94C1286115710509F4B6CF47
:1016E000C1010197F1F761507109F6CF61E070E037
:1016F000AACF87E393E00E940224C6010E942E2411
:1017000088E493E00E940224C701B6010E9492057A
:101710000E941524C6018496A981BA81A817B90729
:1017200021F481E593E00E940224BFEFCB1ADB0A8B
:10173000EB0AFB0A2CEEC2162FEFD206E104F104ED
:10174000C1F626960FB6F894DEBF0FBECDBFDF916F
:10175000CF911F910F91FF90EF90DF90CF90BF90AE
:10176000AF909F908F907F906F905F904F903F9041
:101770002F9008953E8137FD5DC024EF222E332443
:101780003394AD816A2FAA0F770B880B990B0E94B7
:10179000F228AB01BC01812F0E9415234E81C701A5
:1017A000B6010E94AA0569817A818B819C810E9481
:1017B000F0282B013C0120E030E44CE955E40E9484
:1017C000FF294B015C0120E030E040E85FE30E942C
:1017D0004A2887FD22C020E03FEF4FE757E4C501CC
:1017E000B4010E94FA2918169CF420E030E040E28F
:1017F00051E4C301B2010E94FF290E94C128611572
:10180000710581F0C1010197F1F761507109F7CFBE
:10181000C501B4010E94C12802C061E070E0CB01A3
:101820000197F1F7BD81B00FBD832E812B170CF00E
:10183000A8CF96CE3D818E8194EF292E3324339408
:1018400038170CF067C0AD816A2FAA0F770B880B91
:10185000990B0E94F228AB01BC01812F0E94152335
:101860004E81C701B6010E94AA0569817A818B81E8
:101870009C810E94F0282B013C0120E030E44CE9DF
:1018800055E40E94FF294B015C0120E030E040E874
:101890005FE30E944A2887FD22C020E03FEF4FE728
:1018A00057E4C501B4010E94FA2918169CF420E0FF
:1018B00030E040E251E4C301B2010E94FF290E94DE
:1018C000C1286115710581F0C1010197F1F76150DF
:1018D0007109F7CFC501B4010E94C12802C061E0BF
:1018E00070E0CB010197F1F7BD81B00FBD832E8170
:1018F0002B170CF0A8CF34CEC501B4010E94C1282B
:10190000CB010197F1F78D81801B8D839E81891713
:101910000CF426CE3D81632F330F770B880B990B88
:101920000E94F228AB01BC01812F0E9415234E8139
:10193000C701B6010E94AA0569817A818B819C81C9
:101940000E94F0282B013C0120E030E44CE955E4F2
:101950000E94FF294B015C0120E030E040E85FE39A
:101960000E944A2887FD1FC020E03FEF4FE757E461
:10197000C501B4010E94FA2918160CF0BDCF20E071
:1019800030E040E251E4C301B2010E94FF290E940D
:10199000C1286115710509F4B6CFC1010197F1F7AE
:1019A00061507109F6CF61E070E0AACFCF93C82FE4
:1019B00021E0482F60E080E00E94FB0921E04C2FED
:1019C00060E084E00E94FB0921E04C2F60E083E0AE
:1019D0000E94FB0921E04C2F60E082E00E94FB099D
:1019E00021E04C2F60E081E00E94FB0921E04C2FB8
:1019F00060E085E00E94FB0921E04C2F6EE186E06B
:101A00000E94FB0921E04C2F60E087E00E94FB0967
:101A100021E04C2F60E08BE00E94FB0921E04C2F7D
:101A200060E08AE00E94FB0921E04C2F60E089E041
:101A30000E94FB0921E04C2F60E088E00E94FB0936
:101A400021E04C2F60E08CE00E94FB0921E04C2F4C
:101A50006CEE8DE0CF910C94FB09CF93C82F21E061
:101A6000482F60E087E00E94FB0921E04C2F60E0F6
:101A70008BE00E94FB0921E04C2F60E08AE00E948D
:101A8000FB0921E04C2F60E089E00E94FB0921E086
:101A90004C2F60E088E00E94FB0921E04C2F60E0C1
:101AA0008CE00E94FB0921E04C2F6CEE8DE0CF9181
:101AB0000C94FB09CF93C82F21E0482F60E080E011
:101AC0000E94FB0921E04C2F60E084E00E94FB09AA
:101AD00021E04C2F60E083E00E94FB0921E04C2FC5
:101AE00060E082E00E94FB0921E04C2F60E081E091
:101AF0000E94FB0921E04C2F60E085E00E94FB0979
:101B000021E04C2F6EE186E0CF910C94FB09CF933E
:101B1000C82F21E0482F6EE186E00E94FB0921E0FA
:101B20004C2F60E085E00E94FB0921E04C2F66EF1E
:101B300080E00E94FB0921E04C2F62EB82E00E94D2
:101B4000FB0921E04C2F6FE684E00E94FB0921E0B5
:101B50004C2F65E383E00E94FB0921E04C2F61E9F3
:101B600081E00E94FB0921E04C2F67EE8DE00E948E
:101B7000FB0921E04C2F60E08CE00E94FB0921E092
:101B80004C2F60E087E00E94FB0921E04C2F6AEBBC
:101B900089E00E94FB0921E04C2F6BE78BE00E945B
:101BA000FB0921E04C2F65E38AE00E94FB0921E05C
:101BB0004C2F64E688E0CF910C94FB09CF93C82F9B
:101BC00021E0482F67EE8DE00E94FB0921E04C2FB9
:101BD00060E08CE00E94FB0921E04C2F60E087E090
:101BE0000E94FB0921E04C2F6AEB89E00E94FB096F
:101BF00021E04C2F6BE78BE00E94FB0921E04C2F8A
:101C000065E38AE00E94FB0921E04C2F64E688E04E
:101C1000CF910C94FB09CF93C82F21E0482F6EE1A0
:101C200086E00E94FB0921E04C2F60E085E00E94E5
:101C3000FB0921E04C2F66EF80E00E94FB0921E0C8
:101C40004C2F62EB82E00E94FB0921E04C2F6FE6F3
:101C500084E00E94FB0921E04C2F65E383E00E94B1
:101C6000FB0921E04C2F61E981E0CF910C94FB0945
:101C7000CF93C82F21E0482F66EF80E00E94FB0938
:101C800021E04C2F62EB82E00E94FB0921E04C2F07
:101C90006FE684E00E94FB0921E04C2F65E383E0BE
:101CA0000E94FB0921E04C2F66EA81E00E94FB09BB
:101CB00021E04C2F60E085E00E94FB0921E04C2FE1
:101CC0006EE186E00E94FB0921E04C2F60E087E096
:101CD0000E94FB0921E04C2F6AEB89E00E94FB097E
:101CE00021E04C2F6DE78BE00E94FB0921E04C2F97
:101CF00065E38AE00E94FB0921E04C2F60E588E063
:101D00000E94FB0921E04C2F60E08CE00E94FB095F
:101D100021E04C2F6CEE8DE0CF910C94FB09CF931A
:101D2000C82F21E0482F60E087E00E94FB0921E0F6
:101D30004C2F6AEB89E00E94FB0921E04C2F6DE7F4
:101D40008BE00E94FB0921E04C2F65E38AE00E94B2
:101D5000FB0921E04C2F60E588E00E94FB0921E0AF
:101D60004C2F60E08CE00E94FB0921E04C2F6CEED0
:101D70008DE0CF910C94FB09CF93C82F21E0482F21
:101D800066EF80E00E94FB0921E04C2F62EB82E0CD
:101D90000E94FB0921E04C2F6FE684E00E94FB09C2
:101DA00021E04C2F65E383E00E94FB0921E04C2FEA
:101DB00066EA81E00E94FB0921E04C2F60E085E0AB
:101DC0000E94FB0921E04C2F6EE186E0CF910C943C
:101DD000FB09CF93C82F21E0482F6CE388E00E94D5
:101DE000FB0921E04C2F60E08AE00E94FB0921E022
:101DF0004C2F60E089E00E94FB0921E04C2F66EA4D
:101E00008BE00E94FB0921E04C2F6AE58AE00E94EA
:101E1000FB0921E04C2F66E788E00E94FB0921E0E6
:101E20004C2F6EE689E00E94FB0921E04C2F62E90D
:101E30008BE0CF910C94FB09CF93C82F21E0482F62
:101E400066EF80E00E94FB0921E04C2F65E584E00D
:101E50000E94FB0921E04C2F60E082E00E94FB0918
:101E600021E04C2F65E383E00E94FB0921E04C2F29
:101E700066EA81E00E94FB0921E04C2F6CE985E0D5
:101E80000E94FB0921E04C2F6EEC86E00E94FB09CA
:101E900021E04C2F60E087E00E94FB0921E04C2FFD
:101EA0006AE58BE00E94FB0921E04C2F60E089E0AD
:101EB0000E94FB0921E04C2F6CE38AE00E94FB09A1
:101EC00021E04C2F6AE488E00E94FB0921E04C2FBE
:101ED0006CE38CE00E94FB0921E04C2F60EB8DE06D
:101EE000CF910C94FB09CF93C82F21E0482F66EFC8
:101EF00080E00E94FB0921E04C2F65E584E00E9410
:101F0000FB0921E04C2F60E082E00E94FB0921E008
:101F10004C2F65E383E00E94FB0921E04C2F66EA29
:101F200081E00E94FB0921E04C2F60E085E00E94E7
:101F3000FB0921E04C2F68E286E00E94FB0921E0CA
:101F40004C2F60E087E00E94FB0921E04C2F6AE5FE
:101F50008BE00E94FB0921E04C2F60E089E00E94A9
:101F6000FB0921E04C2F6CE38AE00E94FB0921E091
:101F70004C2F6AE488E00E94FB0921E04C2F60E0CE
:101F80008CE00E94FB0921E04C2F68EF8DE0CF919F
:101F90000C94FB09CF93C82F21E0482F66EF80E017
:101FA0000E94FB0921E04C2F69E684E00E94FB09B6
:101FB00021E04C2F63ED82E00E94FB0921E04C2FD1
:101FC00060E087E00E94FB0921E04C2F63E78BE093
:101FD0000E94FB0921E04C2F6CED89E0CF910C941D
:101FE000FB0921E0482F67E38EE00C94FB09CF93B7
:101FF000C82F6AEE7FEF80E090E00E949205873361
:1020000044F464E0680F21E04C2F8EE0CF910C94F3
:10201000FB09CF910895CF93C82F6AEE7FEF80E040
:1020200090E00E949205823F44F06CEF680F21E03F
:102030004C2F8EE0CF910C94FB09CF91089521E0B5
:10204000482F61EF8EE00C94FB0921E0482F6AE0F5
:102050008EE00C94FB09CF93C82F21E0482F66EF48
:1020600080E00E94FB0921E04C2F69E684E00E9499
:10207000FB0921E04C2F60E082E00E94FB0921E097
:102080004C2F66EA81E00E94FB0921E04C2F68EFAB
:1020900083E00E94FB0921E04C2F60E084E00E9475
:1020A000FB0921E04C2F6DE280E00E94FB0921E05A
:1020B0004C2F66EF80E00E94FB0921E04C2F6DE27F
:1020C00080E00E94FB0921E04C2F66EF80E00E9437
:1020D000FB098C2F0E94F10F8C2F0E941F108C2F58
:1020E0000E94251021E04C2F60E087E00E94FB0950
:1020F00021E04C2F63E78BE00E94FB0921E04C2F8D
:1021000060E089E00E94FB0921E04C2F6CE488E04C
:102110000E94FB0921E04C2F60E08AE00E94FB094D
:1021200021E04C2F60E08BE0CF910C94FB09FF92F3
:102130000F931F93CF93DF93D82F64EE7FEF80E050
:1021400090E00E949205F82E65EE7FEF80E090E02F
:102150000E949205082F66EE7FEF80E090E00E94DB
:102160009205182F67EE7FEF80E090E00E949205C5
:10217000C82F84E28F153CF46CEF6F0D21E04D2FDA
:1021800088E00E94FB0908323CF464E0600F21E023
:102190004D2F89E00E94FB091B303CF06DEF610F71
:1021A00021E04D2F8AE00E94FB091C1664F46DEFBC
:1021B0006C0F21E04D2F8BE0DF91CF911F910F919C
:1021C000FF900C94FB09DF91CF911F910F91FF902D
:1021D0000895FF920F931F93CF93DF93D82F6DED48
:1021E0007FEF80E090E00E949205F82E6EED7FEF89
:1021F00080E090E00E949205082F6FED7FEF80E075
:1022000090E00E949205182F60EE7FEF80E090E052
:102210000E949205C82F8CEDF8163CF464E06F0D17
:1022200021E04D2F81E00E94FB0908323CF464E07C
:10223000600F21E04D2F82E00E94FB091B303CF033
:102240006DEF610F21E04D2F83E00E94FB091C160A
:1022500064F46DEF6C0F21E04D2F84E0DF91CF919E
:102260001F910F91FF900C94FB09DF91CF911F916B
:102270000F91FF900895FF920F931F93CF93DF93D9
:10228000D82F64EE7FEF80E090E00E949205F82E58
:1022900065EE7FEF80E090E00E949205082F66EEE9
:1022A0007FEF80E090E00E949205182F67EE7FEFAD
:1022B00080E090E00E949205C82F83E68F153CF0E5
:1022C00064E06F0D21E04D2F88E00E94FB09083289
:1022D0003CF464E0600F21E04D2F89E00E94FB098F
:1022E0001B303CF06DEF610F21E04D2F8AE00E9422
:1022F000FB091C1664F46DEF6C0F21E04D2F8BE091
:10230000DF91CF911F910F91FF900C94FB09DF910A
:10231000CF911F910F91FF900895FF920F931F93FC
:10232000CF93DF93D82F6DED7FEF80E090E00E9498
:102330009205F82E6EED7FEF80E090E00E9492050E
:10234000082F6FED7FEF80E090E00E949205182F3C
:1023500060EE7FEF80E090E00E949205C82F8DE94B
:10236000F8163CF06CEF6F0D21E04D2F81E00E94DC
:10237000FB0908323CF464E0600F21E04D2F82E05D
:102380000E94FB091B303CF06DEF610F21E04D2FE7
:1023900083E00E94FB091C1664F46DEF6C0F21E0D2
:1023A0004D2F84E0DF91CF911F910F91FF900C94FE
:1023B000FB09DF91CF911F910F91FF900895CF936B
:1023C000C82F6CED7FEF80E090E00E9492058D3782
:1023D00044F465E0680F21E04C2F80E0CF910C942D
:1023E000FB09CF910895CF93C82F6CED7FEF80E06C
:1023F00090E00E949205873F44F06BEF680F21E068
:102400004C2F80E0CF910C94FB09CF910895CF938E
:10241000C82F63EE7FEF80E090E00E9492058A3043
:1024200044F465E0680F21E04C2F87E0CF910C94D5
:10243000FB09CF910895CF93C82F63EE7FEF80E023
:1024400090E00E949205843844F06BEF680F21E021
:102450004C2F87E0CF910C94FB09CF910895CF9337
:10246000C82F62EE7FEF80E090E00E9492058C33EF
:1024700044F465E0680F21E04C2F86E0CF910C9486
:10248000FB09CF910895CF93C82F62EE7FEF80E0D4
:1024900090E00E949205803C44F06BEF680F21E0D1
:1024A0004C2F86E0CF910C94FB09CF910895CF93E8
:1024B000C82F69EE7FEF80E090E00E9492058A309D
:1024C00044F465E0680F21E04C2F8DE0CF910C942F
:1024D000FB09CF910895CF93C82F69EE7FEF80E07D
:1024E00090E00E949205893844F06BEF680F21E07C
:1024F0004C2F8DE0CF910C94FB09CF910895CF9391
:10250000C82F61EE7FEF80E090E00E9492058D374A
:1025100044F465E0680F21E04C2F85E0CF910C94E6
:10252000FB09CF910895CF93C82F61EE7FEF80E034
:1025300090E00E949205843844F06BEF680F21E030
:102540004C2F85E0CF910C94FB09CF910895CF9348
:10255000C82F68EE7FEF80E090E00E9492058D37F3
:1025600044F465E0680F21E04C2F8CE0CF910C948F
:10257000FB09CF910895CF93C82F68EE7FEF80E0DD
:1025800090E00E949205843844F06BEF680F21E0E0
:102590004C2F8CE0CF910C94FB09CF910895CF93F1
:1025A000C82F21E0482F60E087E00E94FB0921E06E
:1025B0004C2F6AE58BE00E94FB0921E04C2F60E084
:1025C00089E00E94FB0921E04C2F60E08AE00E9434
:1025D000FB0921E04C2F64E688E00E94FB0921E022
:1025E0004C2F68E789E00E94FB0921E04C2F6CE347
:1025F0008CE00E94FB0921E04C2F60EB8DE0CF9135
:102600000C94FB09CF92DF92EF920F931F93CF931D
:10261000DF936C01162FD42FC22F8FEF94E00E940E
:102620000224C6010E942E248AE30E94F42380E241
:102630000E94F42386E095E00E940224812F0E94EC
:1026400015248AE30E94F42380E20E94F4238EE0A2
:1026500095E00E9402248D2F0E9415248AE30E9497
:10266000F42380E20E94F42384E195E00E94022496
:102670008C2F0E9415248AE30E94F42380E20E949A
:10268000F4238BE195E00E940224802F0E94152400
:102690008AE30E94F42380E20E94F42381E295E021
:1026A0000E9402248E2D0E9415248DE00E94F423A6
:1026B0008AE0DF91CF911F910F91EF90DF90CF9043
:1026C0000C94F4234F925F926F927F928F929F921D
:1026D000AF92BF92CF92DF92EF92FF92CF93DF93B0
:1026E00000D000D0CDB7DEB720E030E048EC52E4B7
:1026F0000E94FF290E94BC2A20E030E048EC52E40E
:102700000E944F286B017C0120E030E040E251E460
:102710000E944F284B015C0120E030E040E452E48D
:102720000E94DE270E94C128862F0E94F423C50143
:10273000B4010E942D292B013C0120E030E040E44F
:1027400052E4C701B6010E94DE274B015C0120E084
:1027500030E040E251E4C301B2010E94FF299B0135
:10276000AC01C501B4010E94DD270E94C128862F5B
:102770000E94F4238EE20E94F42320E030E040E245
:1027800051E4C701B6010E94FF294B015C01C7015A
:10279000B6010E942D292B013C0120E030E040E4ED
:1027A00052E4C501B4010E94DE2769837A838B83DA
:1027B0009C8320E030E040E251E4C301B2010E947A
:1027C000FF299B01AC0169817A818B819C810E94E8
:1027D000DD270E94C128862F0E94F423C501B40181
:1027E0000E942D294B015C0120E030E048EC52E4CE
:1027F000C701B6010E94FF2920E030E040E452E426
:102800000E94DE276B017C0120E030E040E251E4D1
:10281000C501B4010E94FF299B01AC01C701B601AB
:102820000E94DD270E94C128862F0E94F4238DEA92
:1028300099E10F900F900F900F90DF91CF91FF9043
:10284000EF90DF90CF90BF90AF909F908F907F9050
:102850006F905F904F900C9402240F931F93CF932F
:10286000DF938C01EB0187E295E00E9402248BE369
:1028700095E00E940224C8010E942E2480E20E945A
:10288000F4238AE30E94F42380E20E94F42384E488
:1028900095E00E940224CE010E942E248CED96E148
:1028A000DF91CF911F910F910C940224FC0140E025
:1028B00050E0A6E0B8E04617570788F420E030E083
:1028C0002E173F0731F08A2F8A95F1F72F5F3F4F80
:1028D000F7CF95B19B2795B94E0F5F1FECCF0895A9
:1028E000609100017091010183E194E00E9456140F
:1028F000609100017091010181EA93E00E945614F9
:10290000609100017091010189E492E00E945614E7
:102910000E94B2070E94BD078CE495E00E9419084E
:102920008BE595E00E94190889E695E00E94022453
:102930008CE995E00E94022480ED95E00E9402243B
:102940008CE995E00E94022487E096E00E94022430
:102950008CE296E00E94022482E696E00E94022425
:1029600080E996E00E94022486EC96E00E94022410
:1029700081E097E00E9402248EE297E00E94022408
:1029800081E597E00E94022482E897E00E940224F9
:102990008CE995E00E94022483EA97E00E940224D9
:1029A0008CE995E00E94022481EE97E00E940224C7
:1029B00083E098E00E9402248DE298E00E940224C5
:1029C0008BE498E00E9402248AE698E00E940224A8
:1029D0008CE995E00E9402248AE898E00E94022493
:1029E0008CE995E00E94022489EC98E00E94022480
:1029F00087EE98E00E94022486E099E00E9402247B
:102A000082E299E00E94022484E499E00E94022478
:102A100082E699E00E94022488E899E00E9402245C
:102A20008EEA99E00E9402248CE995E00E9402243B
:102A300088EE99E00E9402248CE995E00E9402242D
:102A400087E29AE00E94022482E69AE00E94022431
:102A500083ED9AE00E94022484E49BE00E94022419
:102A60008EE69BE00E94022481E99BE00E94022402
:102A70008AEB9BE00E94022483EE9BE00E940224EA
:102A800086E19CE00E94022489E49CE00E940224EA
:102A900088E79CE00E94022487EA9CE00E940224CE
:102AA00086ED9CE00E94022485E09DE00E940224C5
:102AB00084E39DE00E94022480E69DE00E940224BF
:102AC0008DE89DE00E9402248AEB9DE00E94022492
:102AD00088EE9DE00E94022489E29EE00E9402248A
:102AE0008AE69EE00E9402248BEA9EE00E94022475
:102AF0008CE995E00E9402248CEE9EE00E94022464
:102B00008CE995E00E9402248BE29FE00E9402245F
:102B100080E69FE00E94022485E99FE00E94022453
:102B20008AEC9FE00E9402248FEF9FE00E94022423
:102B300086E390E10E9402248DE690E10E94022447
:102B400084EA90E10E9402248BED90E10C9402242F
:102B5000809106018F5F80930601809106018D3080
:102B600058F010920601809107019091080101969A
:102B700090930801809307010895809105018F5F6C
:102B80008093050180910501803220F010920501AB
:102B90000C94A8150895809104018F5F809304011F
:102BA00080910401883120F0109204010E94BD152B
:102BB000609100017091010180ED91E00E94561436
:102BC00088EE93E024EF31E0F9013197F1F70197B6
:102BD000D9F760910001709101018DE093E00E94AE
:102BE000561488EE93E024EF31E0F9013197F1F7C4
:102BF0000197D9F760910001709101018DE093E098
:102C00000E94561488EE93E024EF31E0F9013197E9
:102C1000F1F70197D9F7609100017091010180ED02
:102C200091E00E94561488EE93E024EF31E0F90120
:102C30003197F1F70197D9F7609100017091010187
:102C400080ED91E00C945614CF92DF92EF92FF92B8
:102C5000809103018F5F80930301809103018C3386
:102C600020F0109203010E94CB150E94B2076091E0
:102C700000017091010189E492E00E94561488EEEF
:102C800093E024EF31E0F9013197F1F70197D9F79B
:102C9000609100017091010188ED93E00E9456144B
:102CA00088EE93E024EF31E0F9013197F1F70197D5
:102CB000D9F7609100017091010188ED93E00E94C5
:102CC00056140E944E05BC0180E090E00E94F0285E
:102CD00022E630E140E450E40E94FF2926EB33EF86
:102CE00041EA50E40E94FF2920E030E040E859E347
:102CF0000E94FF296093131E7093141E8093151E6B
:102D00009093161E8AE191E10E9402246091131EA5
:102D10007091141E8091151E9091161E0E946213D0
:102D20008091161E8F938091151E8F938091141E93
:102D30008F938091131E8F9388E391E19F938F93DC
:102D40008DE49EE19F938F930E94A22D0E94B20773
:102D50000E94BD078EE391E10E9419088DE49EE177
:102D60000E94190887E491E10E9419080E94360622
:102D70000E9474068093031E2DB73EB7285F3F4F15
:102D80000FB6F8943EBF0FBE2DBF80FD11C081E786
:102D900092E00E9402240E94D6069093021E809325
:102DA000011E0E942E248DEA99E10E94022408C08F
:102DB0008BE491E10E9402240E9474068093031E1A
:102DC0008091021E8F938091011E8F938FE591E178
:102DD0009F938F9387E79EE19F938F930E94A22DED
:102DE00082E691E10E94190887E79EE10E94190896
:102DF0008AE691E10E941908C090131ED090141E1B
:102E0000E090151EF090161E0F900F900F900F90EF
:102E10000F900F9020E030E040E751E4C701B60189
:102E20000E94FA2987FD03C080EF9FEF36C020E0A3
:102E300030E040E651E4C701B6010E94FA2987FD5F
:102E400003C080EE9FEF29C020E030E040E551E470
:102E5000C701B6010E94FA2987FD03C083EC9FEFEA
:102E60001CC020E030E040E251E4C701B6010E94FE
:102E7000FA2987FD03C087EC9FE30FC020E030E014
:102E800040E251E4C701B6010E944A2887FF03C00F
:102E90008FE99FEB02C08FE79FE3FF90EF90DF90F9
:102EA000CF900C949823809102018F5F8093020150
:102EB000809102018C3320F0109202010E942416AE
:102EC00060910001709101018DE693E00E9456141B
:102ED00084EF91E024EF31E0F9013197F1F70197A8
:102EE000D9F760910001709101018DE093E00C949D
:102EF000561486B182FB882780F98093461E86B1DE
:102F000083FB882780F98093251E8091461E8111BE
:102F100013C08091251E882331F08091491E909125
:102F20004A1E019605C08091491E90914A1E019744
:102F300090934A1E8093491E089586B182958170B0
:102F40008093241E86B185FB882780F980931A1E02
:102F50008091241E811113C080911A1E811106C018
:102F600080912D1E90912E1E019605C080912D1EE0
:102F700090912E1E019790932E1E80932D1E0895E2
:102F80000E94B2070E94BD078DE691E10E941908D8
:102F9000609100017091010186EB91E00E9456144E
:102FA00084EF91E024EF31E0F9013197F1F70197D7
:102FB000D9F7609100017091010186EB91E00E94C8
:102FC000561484EF91E024EF31E0F9013197F1F7E5
:102FD0000197D9F7609100017091010186EB91E0B2
:102FE0000E94561480E197E224EF31E0F901319715
:102FF000F1F70197D9F789E791E10E9402248BE963
:1030000091E10E9402248FEB91E10E9402246091E1
:1030100000017091010186EB91E00E94561489ED48
:1030200091E10E9402240E94B2070E94BD0789EE2E
:1030300091E10E9419080E943D258093060160914C
:1030400000017091010186EB91E00E94561481EF1E
:1030500091E10E9402240E94B2070E94BD078FEFF7
:1030600091E10E9419080E943D258093050160911D
:1030700000017091010186EB91E00E94561485E0F9
:1030800092E10E9402240E94B2070E94BD0784E1DF
:1030900092E10E9419080E943D25809304016091ED
:1030A00000017091010186EB91E00E9456148BE1C2
:1030B00092E10E9402240E94B2070E94BD078DE2A5
:1030C00092E10E9419080E943D25809303016091BE
:1030D00000017091010186EB91E00E94561487E394
:1030E00092E10E9402240E94B2070E94BD0789E477
:1030F00092E10E941908609100017091010186EB34
:1031000091E00E9456140E943D2580930201609137
:1031100000017091010186EB91E00E94561410921B
:10312000071E1092061E8DEA99E10E94022483E593
:1031300092E10E94022486E892E10E9402240E9409
:10314000B2070E94BD0780EA92E10E94190888E94F
:103150009AE324EF31E0F9013197F1F70197D9F7BC
:103160000C94B2070E94B2070E94BD0788EA92E160
:103170000E94190889EB92E10E94190860910001F0
:103180007091010183E194E00E9456146091000166
:103190007091010181EA93E00E9456146091000150
:1031A0007091010189E492E00E94561489E791E14F
:1031B0000E9402248BE991E10E94022481EC92E1B9
:1031C0000E9402248BEF92E10E94022480E197E2A8
:1031D00024EF31E0F9013197F1F70197D9F70E9417
:1031E000B2070E94BD078BE193E10E9419080E947B
:1031F0003D2580930E01609100017091010186EBE5
:1032000091E00E94561486E293E10E9402240E94FB
:10321000B2070E94BD0782E593E10E9419080E944F
:103220003D2580930F01609100017091010186EBB3
:1032300091E00E9456148EE593E10E94022480E101
:1032400097E224EF31E0F9013197F1F70197D9F7CF
:103250000E94B2070E94BD078FE793E10E94190800
:103260000E943D2580930B01609100017091010146
:1032700086EB91E00E9456148CE893E10E940224B0
:1032800080E197E224EF31E0F9013197F1F70197FE
:10329000D9F70E94B2070E94BD0782EB93E10E941A
:1032A00019080E943D2580930D01609100017091E5
:1032B000010186EB91E00E94561481EC93E10E949B
:1032C000022480E197E224EF31E0F9013197F1F730
:1032D0000197D9F70E94B2070E94BD078CEE93E1D7
:1032E0000E94190882E593E10E9419080E943D2579
:1032F00080930C01609100017091010186EB91E0D7
:103300000E9456148DEF93E10E94022480E197E21F
:1033100024EF31E0F9013197F1F70197D9F70E94D5
:10332000B2070E94BD078EE194E10E9419080E9435
:103330003D2580930A01609100017091010186EBA7
:1033400091E00E9456148BE294E10E94022480E1F5
:1033500097E224EF31E0F9013197F1F70197D9F7BE
:103360000E94B2070E94BD078AE594E10E941908F5
:103370008BE694E10E9419080E943D258093090183
:10338000609100017091010186EB91E00E9456145A
:103390008CE794E10E9402248AEB94E10E940224CB
:1033A0000E94B2070E94BD0785ED94E10E941908B2
:1033B00080EA92E10E94190888E99AE324EF31E05B
:1033C000F9013197F1F70197D9F70C94B2070E94F0
:1033D000B2070E94BD0786EE94E10E94190887EFAC
:1033E00094E10E941908609100017091010183E14C
:1033F00094E00E945614609100017091010181EAED
:1034000093E00E945614609100017091010189E4DB
:1034100092E00E94561489E791E10E9402248BE910
:1034200091E10E94022483E095E10E9402246091D0
:1034300000017091010186EB91E00E94561488E230
:1034400095E10E940224609100017091010186EBD8
:1034500091E00E94561487E495E10E9402240E94A4
:10346000FB238093281E609100017091010186EB7F
:1034700091E00E9456148091281E893709F0A8C057
:1034800084E695E10E9402248AE895E10E940224E4
:10349000609100017091010186EB91E00E94561449
:1034A0000E94B9257093051E6093041E8CEB95E174
:1034B0000E9402248091041E9091051E0E942E24D9
:1034C0008DEA99E10E9402240E94B2070E94BD0782
:1034D0008CEC95E10E9419081092881E1092891EAA
:1034E00010928A1E10928B1E1092841E1092851EBE
:1034F0001092861E1092871E1092291E10922A1E6C
:1035000010922B1E10922C1E8091041E9091051E6D
:10351000A0E0B0E04091291E50912A1E60912B1E20
:1035200070912C1E84179507A607B70708F444C0AE
:103530000E948F264091841E5091851E6091861EA8
:103540007091871E8091881E9091891EA0918A1E7D
:10355000B0918B1E840F951FA61FB71F8093841EEA
:103560009093851EA093861EB093871E8EED95E1E5
:103570000E9402246091841E7091851E8091861E97
:103580009091871E0E9469248DEA99E10E9402248D
:103590008091291E90912A1EA0912B1EB0912C1E65
:1035A0000196A11DB11D8093291E90932A1EA09300
:1035B0002B1EB0932C1EA8CF8BEE95E10E94022407
:1035C0000E94B2070E94BD078CE096E10C94190896
:1035D000609100017091010186EB91E00E94561408
:1035E0008CE196E10C94022460910001709101013C
:1035F00083E194E00E9456146091000170910101F2
:1036000081EA93E00E9456146091000170910101DB
:1036100089E492E00E9456140E94B2070E94BD07FE
:1036200081E496E10E94190880E596E10E94022457
:1036300080E796E10E94022482E996E10E9402243A
:1036400084EB96E10E9402241092301E10922F1EED
:1036500080912F1E9091301EC39740F58BED96E11F
:103660000E94022480912F1E0E9415248AED96E16B
:103670000E94022460912F1E7091301E80E090E025
:103680000E9492050E9415248AED96E10E94022470
:103690008DEA99E10E94022480912F1E9091301EA4
:1036A00001969093301E80932F1ED2CF8EED96E11F
:1036B0000E94022486E097E10E9402240E94FB23DC
:1036C000853601F1873739F587E997E10E940224B1
:1036D0000E943D258093191E85ED97E10E940224EA
:1036E0000E943D25482F90E09093301E80932F1E1E
:1036F0006091191E70E080E090E00E94AA058DEABA
:1037000099E10BC084E397E10E9402240E94110614
:103710008AE797E102C082E198E10C940224EF92DB
:10372000FF920F931F93CF93DF9362E070E080E0EE
:1037300090E00E94C90590934C1E80934B1E0E94FE
:10374000BD070E94B20789E298E10E9419081F9202
:1037500085E08F9388EB92E09F938F930E944508BA
:103760008AE398E10E94022485E00E94152480E506
:1037700098E10E9402240F900F900F900F9080E02C
:1037800090E0DC0144EF51E085309105A105B105E1
:1037900061F020E137E2FA013197F1F72150310968
:1037A000D1F70196A11DB11DEFCF8093291E9093F3
:1037B0002A1EA0932B1EB0932C1E8091C00087FF61
:1037C00010C08091C6008D3661F481E08093481E60
:1037D000C0E0D0E00CE310E094EFE92EFF24F39476
:1037E00006C01092481EC0E0D0E00AC12C9A809119
:1037F000481E882309F404C18FE698E10E94022440
:103800000E94B2070E94BD0783EA98E10E9419084E
:1038100060E070E0CB010E94C905A0E0B0E08093B9
:103820001F1E9093201EA093211EB093221E8CE891
:1038300092E00E94022480911F1E9091201E049706
:103840000E942E2488EB98E10E9402248CE892E0EA
:103850000E94022480914B1E90914C1E0E942E24A7
:103860008EEC98E10E9402248DEE98E10E940224E1
:1038700081E199E10E94022486E399E10E940224F9
:103880008BE599E10E9402248FE799E10E940224CE
:1038900086E999E10E9402240E94FB238F3309F4F8
:1038A0006AC038F48C3309F44BC08E3309F453C02A
:1038B000A2C0853609F466C0833709F47BC084361C
:1038C00009F099C02C9883E00E947A0564E070E0CA
:1038D00080E090E00E947F0584E090E0A0E0B0E00E
:1038E0008093291E90932A1EA0932B1EB0932C1E0A
:1038F0004091291E50912A1E60912B1E70912C1E02
:1039000080911F1E9091201EA091211EB091221E19
:10391000481759076A077B0708F068CF80E00E94C4
:103920007A058EB50E945D098091291E90912A1E0C
:10393000A0912B1EB0912C1E0196A11DB11DD0CFC0
:1039400040914B1E50914C1E4A30510508F44FCF08
:10395000455051090BC040914B1E50914C1E483EA2
:103960008DEF580708F043CF4B5F5F4F50934C1ECD
:1039700040934B1E18C010934C1E00934B1E4CE3FB
:1039800050E011C080EB99E10E9402240E941106D0
:1039900044E050E060E070E0CB010E94F00540910F
:1039A0004B1E50914C1E62E070E080E090E00E945F
:1039B000F0051DCF80EE99E10E9402240E9461254E
:1039C000EC018DEA99E10E9402248DEF99E10E94B9
:1039D00002240E94B2070E94BD0784E19AE10E947E
:1039E000190880E29EE4F7013197F1F70197D9F7C2
:1039F0001092481EFCCE83E29AE10E940224F7CE88
:103A00000E94B2070E94BD0700E010E084EFE82E9C
:103A1000FF24F39460E070E0CB010E94C905A0E0B0
:103A2000B0E080931F1E9093201EA093211EB093A0
:103A3000221E0E94460780E90E945F0780E00E94E4
:103A40005F070E94460781E90E945F070E944F07B7
:103A50008093471E0E9457078093231E0E944B07A6
:103A60000E94460780E90E945F0780E00E945F078E
:103A70000E94460781E90E945F070E944F078093DA
:103A8000471E0E9457078093231E0E944B07809178
:103A9000471E982F990F8091231E881F8827881F03
:103AA000892B8093451E0E945D0960911F1E7091B5
:103AB000201E8091211E9091221E4091451E0E9441
:103AC000AA0540911F1E5091201E6091211E7091E9
:103AD000221E4F3F8FEF580761057105E0F00F5F21
:103AE0001F4FC017D10708F095CF84E49AE10E94D8
:103AF00002240E94B2070E94BD078EE59AE10E944F
:103B000019088FE69AE1DF91CF911F910F91FF90F5
:103B1000EF900C9419084F5F5F4F6F4F7F4F4093AA
:103B20001F1E5093201E6093211E7093221E60E082
:103B300070E0CB010E94F00540914B1E50914C1E4D
:103B400060E070E080E090E0DC0184179507A60754
:103B5000B70760F420E137E2F7013197F1F7215020
:103B60003109D1F70196A11DB11DEFCF8093291E18
:103B700090932A1EA0932B1EB0932C1EB0CF0E94B0
:103B8000B2070E94BD078AE79AE10E94190884E003
:103B90000E9436059093181E8093171E8AE89AE1BA
:103BA0000E9402248091751E9091761E0E942E2400
:103BB0008CED96E10E94022486E00E9436059093E7
:103BC000761E8093751E8BE99AE10E9402248091F3
:103BD000171E9091181E0E942E248091171E9091FE
:103BE000181E0E94AB239B01AC01CB01DA0180932C
:103BF0001B1E90931C1EA0931D1EB0931E1E5F9350
:103C00004F933F932F9388E391E19F938F9381E3A9
:103C10009EE19F938F930E94A22D8AEB9AE10E94CE
:103C2000022481E39EE10E9402248DB79EB708968C
:103C30000FB6F8949EBF0FBE8DBF8DE29DE10C9430
:103C40000224EF920F930E94B2070E94BD078CECF2
:103C50009AE10E9419089BB184E089278BB984E01E
:103C60000E9436059093181E8093171E8AE89AE1E9
:103C70000E9402248091751E9091761E0E942E242F
:103C80008CED96E10E94022486E00E943605909316
:103C9000761E8093751E8BE99AE10E940224809122
:103CA000171E9091181E0E942E248091171E90912D
:103CB000181E0E94AB239B01AC01CB01DA0180935B
:103CC0001B1E90931C1EA0931D1EB0931E1E5F937F
:103CD0004F933F932F9388E391E19F938F9381E3D9
:103CE0009EE19F938F930E94A22D8AEB9AE10E94FE
:103CF000022481E39EE10E9402248DE29DE10E9464
:103D000002240E94EF2360912D1E70912E1E80913F
:103D1000491E90914A1E0E942D148CED96E10E943E
:103D20000224E090020100910301209104014091DE
:103D300005016091060180910701909108010E94A0
:103D400002138DB79EB708960FB6F8949EBF0FBEAC
:103D50008DBF8DE29DE10F91EF900C940224809134
:103D6000C00087FF08C1E091C6008E2F90E0FC01E3
:103D7000B397E435F10508F0E8C0EA5BFF4F0C9417
:103D8000B2270C94C0170C94B21860910E018AEA05
:103D900092E004C060910E0187E992E00C94A309BF
:103DA00060910E0185EA92E0F9CF60910E018FE9F2
:103DB00092E0F4CF60E083EB92E00E94A309D9C0C7
:103DC0006FEF80910F0104C080910F016FEF81951B
:103DD0000C94CB2386E20C94F70F80910B010C948A
:103DE000251086E20C940B108FEF9FEF0E94982312
:103DF0008DED9AE19BC080E090E00E94982382EFD5
:103E00009AE194C088E20C94E90E80910D010C9423
:103E1000D60C80910D010C942D0D80910D010C9408
:103E20005A0D80910D010C94DE0D80910D010C94C2
:103E30000B0E80910D010C948F0E80910D010C944E
:103E4000BC0E80910D010C94870D80910D010C9496
:103E5000380E80910D010C941C0F80910D010C9473
:103E6000730F80910D010C94CA0F80910D010C9479
:103E70002B1080910A010C946B1280910A010C9412
:103E8000571280910A010C94431280910A010C94FC
:103E90002F12809109010C94A712809109010C94B2
:103EA000BB12809109010C947F12809109010C943E
:103EB00093128EE10C94CF1280910C010C94071296
:103EC00080910C010C941B1280910C010C94DF1159
:103ED00080910C010C94F31183E20C94971083E20F
:103EE0000C943B1183E20C94E91083E20C948D1145
:103EF0000C94E7190C948F1B0C94F41A0C94BF1DAE
:103F00000E9436060E9474068093031E80FD10C036
:103F100081E792E00E9402240E94D6069093021E3E
:103F20008093011E0E942E248DEA99E10C940224B4
:103F30008BE491E10E9402240E9474068093031E88
:103F400008950C94211E0C94701488E09BE10E944B
:103F50000224609100017091010186EB91E00E94C2
:103F6000561460910001709101018EE991E00E9468
:103F700056140C94EF2308951F920F920FB60F92D0
:103F800011248F939F938091061E9091071E019696
:103F90009093071E8093061E9F918F910F900FBEE6
:103FA0000F901F9018951F920F920FB60F92112429
:103FB0000BB60F928F939F93EF93FF93E0910E1E9A
:103FC00080911001E80FE770E0930E1EF0E0E054DE
:103FD000F24E808185B9E0910E1EF0E0E054F24E81
:103FE000808188B980910C1E90910D1E019690934E
:103FF0000D1E80930C1EFF91EF919F918F910F905A
:104000000BBE0F900FBE0F901F9018951F920F922E
:104010000FB60F9211240BB60F922F933F934F932D
:104020005F936F937F938F939F93AF93BF93EF9320
:10403000FF930E9479170E949D17FF91EF91BF9106
:10404000AF919F918F917F916F915F914F913F9130
:104050002F910F900BBE0F900FBE0F901F901895D1
:1040600018950E9492098DE29BE10E9402240E9411
:104070006B0580E59BE10E9402240E94350782E7E0
:104080009BE10E9402240E94C40785E99BE10E94F3
:10409000022484B5826084BD85B5856085BD8FEFBF
:1040A00087BD87EB9BE10E940224809180008160A4
:1040B0008093800080918100836080938100809153
:1040C0008000806A8093800080916F00816080937F
:1040D0006F008DED9BE10E9402248091B000816011
:1040E0008093B0008091B10084608093B100809192
:1040F000B000806A8093B00083E09CE10E940224BB
:104100008091910081608093910089E29CE10E94FE
:10411000022480917C00806480937C0080917A00EE
:10412000866080937A0080917A00806880937A001C
:104130008FE49CE10E940224809168008460809357
:10414000680080916D00846080936D0081E79CE140
:104150000E9402240E942C0580917E00806F809333
:104160007E0088B18C6388B981B1836081B981B1E7
:104170008C6081B984B1836084B987B1806C87B960
:10418000239A529A789484E99CE10E94022487EC55
:104190009CE10E9402248BEF9CE10E94022489E6AC
:1041A00095E00E9402248CE995E00E94022480EDB3
:1041B00095E00E9402248CE995E00E94022487E0A9
:1041C00096E00E9402248CE296E00E94022482E69D
:1041D00096E00E94022480E996E00E94022486EC88
:1041E00096E00E94022481E097E00E9402248EE281
:1041F00097E00E94022481E597E00E94022482E871
:1042000097E00E9402248CE995E00E94022483EA50
:1042100097E00E9402248CE995E00E94022481EE3E
:1042200097E00E94022483E098E00E9402248DE23D
:1042300098E00E9402248BE498E00E9402248AE61F
:1042400098E00E9402248CE995E00E9402248AE80A
:1042500098E00E9402248CE995E00E94022489ECF7
:1042600098E00E94022487EE98E00E94022486E0F3
:1042700099E00E94022482E299E00E94022484E4F0
:1042800099E00E94022482E699E00E94022488E8D4
:1042900099E00E9402248EEA99E00E9402248CE9AF
:1042A00095E00E94022488EE99E00E9402248CE9A5
:1042B00095E00E94022487E29AE00E94022482E6AE
:1042C0009AE00E94022483ED9AE00E94022484E492
:1042D0009BE00E9402248EE69BE00E94022481E97A
:1042E0009BE00E9402248AEB9BE00E94022483EE62
:1042F0009BE00E94022486E19CE00E94022489E463
:104300009CE00E94022488E79CE00E94022487EA45
:104310009CE00E94022486ED9CE00E94022485E03D
:104320009DE00E94022484E39DE00E94022480E636
:104330009DE00E9402248DE89DE00E9402248AEB09
:104340009DE00E94022488EE9DE00E94022489E202
:104350009EE00E9402248AE69EE00E9402248BEAEC
:104360009EE00E9402248CE995E00E9402248CEEDB
:104370009EE00E9402248CE995E00E9402248BE2D8
:104380009FE00E94022480E69FE00E94022485E9CB
:104390009FE00E9402248AEC9FE00E9402248FEF9B
:1043A0009FE00E94022486E390E10E9402248DE6B1
:1043B00090E10E94022484EA90E10E9402248BEDA5
:1043C00090E10E94022481E39DE10E9402240E9468
:1043D00046070E94C4078CE9E82E8DE1F82EC0EB59
:1043E000DDE1870194EFC92EDD24D3940E94BD073F
:1043F00088E49DE10E94190889E59DE10E94190861
:1044000080E090E00E94982360910001709101018A
:10441000F801819191918F010E94561484EF91E0EF
:10442000F6013197F1F70197D9F7C017D107F1F6E7
:104430000E94B20700E513EC0E94BD0789E69DE1EA
:104440000E9419088FEF9FEF0E949823609100014E
:1044500070910101888199810E945614C8010197C9
:10446000F1F72297EC16FD0639F70E94B207CCE06F
:10447000D0E004EF11E00E94BD0789E79DE10E94B2
:1044800019088AE89DE10E94190880E090E00E94E6
:104490009823609100017091010188ED93E00E94E2
:1044A000561488EE93E0F8013197F1F70197D9F7A8
:1044B00060910001709101018DE693E00E94561415
:1044C0008FEF9FEF0E9498232197A9F60E94B207D1
:1044D0000E944B07C0E5D0E008EB18E8BE010D2EA6
:1044E000000C880B990B0E94F228AB01BC0180E004
:1044F0000E941523C8010197F1F72196CE3BD10503
:1045000069F762E370E080EA0E949C2221E042E3C6
:104510006AE08EE00E94FB098091061E9091071EC2
:10452000843C944031F41092071E1092061E0E94A3
:1045300053170E94AF1EF0CFEF92FF921F93CF93BD
:10454000DF931F92CDB7DEB7182F7B017093831EC8
:104550006093821E8093811E0E944607812F0E94D5
:104560005F0780E00E945F0781E30E945F070E946F
:104570004B07B70180E090E00E94F02820E030E097
:1045800040E855E40E94FF292FE135E84BE65FE360
:104590000E94FF299B01AC0160E27CEB8EEB9BE467
:1045A0000E944F2820E030E040E85FE30E94DD27D2
:1045B0000E94C12869830E944607812F0E945F07DD
:1045C0008EEF0E945F0789810E945F070E944B0760
:1045D00087E893E10197F1F700C000000E944607C9
:1045E000812F0E945F0780E00E945F0781EA0E949E
:1045F0005F070E944B0787E893E10197F1F700C03E
:1046000000000E944607812F0E945F0781E00E9400
:104610005F0784E00E945F070E944B070F90DF91C5
:10462000CF911F91FF90EF900895CF92DF92EF927C
:10463000FF92CF93C82F6A017B0120E030E04AEF60
:1046400052E4C701B6010E94FA2918168CF020E046
:1046500030E04AEF52ECC701B6010E944A2887FFBA
:104660000DC0C12CD12C9AEFE92E92ECF92E06C088
:10467000C12CD12C8AEFE82E82E4F82E25E535E511
:1046800045ED50E4C701B6010E94FF2920E030E863
:104690004BEB54E40E94DE270E94C12880E090E0AA
:1046A0000E94F0286B017C016091821E7091831E34
:1046B00080E090E00E94F0289B01AC0160E074E291
:1046C00084E799E40E944F280E94C12880E090E08E
:1046D0000E94F0289B01AC01C701B6010E944F283F
:1046E00020E030E040E855E40E94FF290E94C12804
:1046F0007B010E9446078091811E0E945F078C2FDC
:10470000880F880F8A5F0E945F0780E00E945F0722
:1047100080E00E945F078E2D0E945F078F2D0E9410
:104720005F07CF91FF90EF90DF90CF900C944B07F5
:10473000CF93DF93D82FC92F0E94460780E40E94B1
:104740005F078D2F0E945F078C2F0E945F07DF910C
:10475000CF910C944B07BC0180E090E00E94F028C0
:1047600029E23CE54FE65FEB0E946C2A22E538E641
:1047700046E256E40E94FF2920E030E040E251E4A6
:104780000E94DD276093081E7093091E80930A1E05
:1047900090930B1E0895181624F492E09093100144
:1047A00004C09EEF90931001819567BD10920D1E7D
:1047B00010920C1E90916E00926090936E00082EE5
:1047C000000C990B20910C1E30910D1E821793073F
:1047D000C9F780916E008D7F80936E0008952898B0
:1047E00029984698479808959091C00095FFFCCF6E
:1047F0008093C60008958091C00087FFFCCF809110
:10480000C60008950F931F93CF938C01C0E0F80169
:10481000EC0FF11D8081882321F00E94F423CF5FEB
:10482000F6CFCF911F910F910895CF93C82F64E6D3
:104830000E947027805D0E94F4232AE08C2F622F53
:104840000E947027C92F0E94702780E3890F0E9461
:10485000F42380E38C0FCF910C94F4230F931F93D8
:10486000CF93DF938C0160E177E20E947C2780E3A5
:10487000860F0E94F423C80168EE73E00E947C2733
:10488000CB01CAE0D0E0BE010E947C27805D0E947F
:10489000F423C80164E670E00E947C27CB01BE01CE
:1048A0000E947C27805D0E94F423C801BE010E9403
:1048B0007C27182FCB01BE010E947C27805D0E94BF
:1048C000F42380E3810FDF91CF911F910F910C941E
:1048D000F4238F929F92AF92BF92CF92DF92EF928A
:1048E000FF92CF934B015C0120E03AEC4AE95BE395
:1048F0000E94902780E3820F0E94F423C501B40137
:1049000020E031EE45EF55E00E9490278AE0C82E66
:10491000D12CE12CF12CCA01B901A70196010E940A
:10492000902780E3860F0E94F423C501B40120E89C
:1049300036E948E950E00E949027CA01B901A70171
:1049400096010E94902780E3860F0E94F423C50100
:10495000B40120E432E44FE050E00E949027CA0105
:10496000B901A70196010E94902780E3860F0E945B
:10497000F423C501B40120EA36E841E050E00E948A
:104980009027CA01B901A70196010E94902780E3F0
:10499000860F0E94F423C501B40120E137E240E014
:1049A00050E00E949027CA01B901A70196010E9418
:1049B000902780E3860F0E94F423C501B40128EEFE
:1049C00033E040E050E00E949027CA01B901A701FE
:1049D00096010E94902780E3860F0E94F423C50170
:1049E000B40124E630E040E050E00E949027CA0184
:1049F000B901A70196010E94902780E3860F0E94CB
:104A0000F423C501B401A70196010E949027C62F87
:104A1000CA01B901A70196010E94902780E3860F81
:104A20000E94F42380E38C0FCF91FF90EF90DF90F2
:104A3000CF90BF90AF909F908F900C94F4231F93D2
:104A4000CF93DF931F92CDB7DEB7898317E08981BB
:104A500090E0012E02C0959587950A94E2F780FFB9
:104A600002C081E301C080E30E94F423115078F773
:104A70000F90DF91CF911F9108950F931F93CF93C4
:104A8000DF93D0E3C0E310E30E94FB23082F0E94D2
:104A9000F4230D3021F01C2FCD2FD02FF5CF105344
:104AA000D05384E6189FD00D1124CC0FC0568C2F04
:104AB000880F880F8C0F8D0FDF91CF911F910F9171
:104AC0000895EF92FF920F931F93CF93DF9300E32C
:104AD000C0E3D0E310E380E3F82E0E94FB23E82E2E
:104AE0000E94F4238DE0E81631F0F12E1D2FDC2F0B
:104AF000C02F0E2DF2CF2F2D30E02053310980E151
:104B000097E2289FA001299F500D389F500D112436
:104B1000212F30E02053310968EE73E0269FC00159
:104B2000279F900D369F900D1124840F951F2D2FD8
:104B300030E02053310964E6629FA001639F500D6D
:104B40001124840F951F2C2F30E0205331096AE087
:104B5000629FA001639F500D1124840F951F800F49
:104B6000911DC097DF91CF911F910F91FF90EF9012
:104B700008957F928F929F92AF92BF92CF92DF92D1
:104B8000EF92FF920F931F93CF93DF93D0E3C0E395
:104B900010E300E380E3F82E90E3E92E20E3D22E29
:104BA00030E3C32E40E3742E50E3B52E0E94FB2366
:104BB000A82E0E94F4238DE0A81659F0B72C7C2C67
:104BC000CD2CDE2CEF2CF02E012F1C2FCD2FDA2D2B
:104BD000EDCFAB2DB0E0D09720E03AEC4AE95BE3B3
:104BE0000E94BB274B015C01A72DB0E0D09720E0CD
:104BF00031EE45EF55E00E94BB27860E971EA81E9A
:104C0000B91EAC2DB0E0D09720E836E948E950E075
:104C10000E94BB27860E971EA81EB91EAD2DB0E0C0
:104C2000D09720E432E44FE050E00E94BB27860E8C
:104C3000971EA81EB91EAE2DB0E0D09720EA36E828
:104C400041E050E00E94BB27860E971EA81EB91EA9
:104C50008F2D90E0C09740E157E2849F9001859F9F
:104C6000300D949F300D1124C901330FAA0BBB0BDB
:104C7000880E991EAA1EBB1E802F90E0C09728EEBA
:104C800033E0829FA001839F500D929F500D11240D
:104C9000CA01550FAA0BBB0BB501A401480F591F40
:104CA0006A1F7B1F812F90E0C09724E6289F400158
:104CB000299F900C1124C401990CAA0BBB0B4A012B
:104CC0005B01880E991EAA1EBB1E2C2F30E02053BC
:104CD00031094AE0429FC001439F900D1124092EE3
:104CE000000CAA0BBB0B880D991DAA1DBB1D8D0FB7
:104CF000911DA11DB11DBC01CD0160537109810938
:104D00009109DF91CF911F910F91FF90EF90DF906C
:104D1000CF90BF90AF909F908F907F90089510920A
:104D20009500109294001092881E1092891E109285
:104D30008A1E10928B1E85E00E94360590938D1E70
:104D400080938C1E2091160130911701A9014850C3
:104D50005109B4E056954795BA95E1F7241B350BF8
:104D6000B901680F791F7093170160931601FB0159
:104D700024E0F695E7952A95E1F7E817F907A0F4FE
:104D80002091140130911501A90148505109A4E066
:104D900056954795AA95E1F7241B350B280F391F27
:104DA00030931501209314018E179F07A0F42091D2
:104DB000120130911301A90148505109F4E05695B0
:104DC0004795FA95E1F7241B350B280F391F3093CF
:104DD000130120931201209114013091150140918B
:104DE000120150911301420F531F20911101FA013A
:104DF000E20FF11D9F01F093101EE0930F1EAB0117
:104E00004E1B5F0BE4E056954795EA95E1F7841752
:104E1000950718F488EC90E011C0260F371F44E086
:104E2000369527954A95E1F72817390798F3809129
:104E3000111E9091121E009729F001979093121E57
:104E40008093111E209194003091950043E3429F7E
:104E5000C001439F900D112468EE73E00E947C27EF
:104E6000CB01A0E0B0E08093881E9093891EA093B0
:104E70008A1EB0938B1E88EC9DE10E9402248091D3
:104E80008C1E81580E9415248CED96E10E9402240C
:104E90008AED9DE10E9402248091120190911301FC
:104EA00024E0969587952A95E1F781580E9415246C
:104EB0008CED96E10E9402248CEE9DE10E9402247A
:104EC000809114019091150134E0969587953A955B
:104ED000E1F781580E9415248CED96E10C94022490
:104EE000991B79E004C0991F961708F0961B881F3C
:104EF0007A95C9F780950895AA1BBB1B51E107C09D
:104F0000AA1FBB1FA617B70710F0A61BB70B881F59
:104F1000991F5A95A9F780959095BC01CD010895E8
:104F2000A1E21A2EAA1BBB1BFD010DC0AA1FBB1FAD
:104F3000EE1FFF1FA217B307E407F50720F0A21B1F
:104F4000B30BE40BF50B661F771F881F991F1A948C
:104F500069F760957095809590959B01AC01BD01B6
:104F6000CF010895EE0FFF1F0024001C0BBE079019
:104F7000F691E02D0994B7FF0C94C3270E94C32734
:104F8000821B930B08950E94CE27A59F900DB49F7E
:104F9000900DA49F800D911D11240895A29FB00132
:104FA000B39FC001A39F700D811D1124911DB29F5D
:104FB000700D811D1124911D08955058BB27AA27FB
:104FC0000E94F5270C94A8290E949A2938F00E9483
:104FD000A12920F039F49F3F19F426F40C94972965
:104FE0000EF4E095E7FB0C946829E92F0E94B9299B
:104FF00058F3BA17620773078407950720F079F40E
:10500000A6F50C94F3290EF4E0950B2EBA2FA02DE3
:105010000B01B90190010C01CA01A0011124FF2765
:10502000591B99F0593F50F4503E68F11A16F04060
:10503000A22F232F342F4427585FF3CF469537955F
:105040002795A795F0405395C9F77EF41F16BA0B24
:10505000620B730B840BBAF09150A1F0FF0FBB1FD2
:10506000661F771F881FC2F70EC0BA0F621F731F1B
:10507000841F48F4879577956795B795F7959E3F78
:1050800008F0B0CF9395880F08F09927EE0F979509
:10509000879508950E94442908F481E008950E94AC
:1050A00063280C94A8290E94A12958F00E949A29EB
:1050B00040F029F45F3F29F00C94682951110C94B9
:1050C000F4290C9497290E94B92968F39923B1F324
:1050D000552391F3951B550BBB27AA27621773071E
:1050E000840738F09F5F5F4F220F331F441FAA1FB2
:1050F000A9F335D00E2E3AF0E0E832D0915050406E
:10510000E695001CCAF72BD0FE2F29D0660F771F1B
:10511000881FBB1F261737074807AB07B0E809F001
:10512000BB0B802DBF01FF2793585F4F3AF09E3F86
:10513000510578F00C9468290C94F4295F3FE4F34E
:10514000983ED4F3869577956795B795F7959F5FC9
:10515000C9F7880F911D9695879597F90895E1E015
:10516000660F771F881FBB1F621773078407BA0774
:1051700020F0621B730B840BBA0BEE1F88F7E095CF
:1051800008950E94C12988F09F5798F0B92F992758
:10519000B751B0F0E1F0660F771F881F991F1AF022
:1051A000BA95C9F714C0B13091F00E94F329B1E06B
:1051B00008950C94F329672F782F8827B85F39F06A
:1051C000B93FCCF3869577956795B395D9F73EF4BB
:1051D00090958095709561957F4F8F4F9F4F089563
:1051E000E89409C097FB3EF4909580957095619581
:1051F0007F4F8F4F9F4F9923A9F0F92F96E9BB2737
:105200009395F695879577956795B795F111F8CFB2
:10521000FAF4BB0F11F460FF1BC06F5F7F4F8F4F1D
:105220009F4F16C0882311F096E911C0772321F013
:105230009EE8872F762F05C0662371F096E8862FAB
:1052400070E060E02AF09A95660F771F881FDAF702
:10525000880F9695879597F908950E94DB2990F01D
:105260009F3748F4911116F00C94F42960E070E037
:1052700080E89FEB089526F41B16611D711D811DAA
:105280000C946E290C948929990F0008550FAA0BCC
:10529000E0E8FEEF16161706E807F907C0F0121649
:1052A0001306E407F50798F0621B730B840B950B4C
:1052B00039F40A2661F0232B242B252B21F40895A1
:1052C0000A2609F4A140A6958FEF811D811D08953E
:1052D00097F99F6780E870E060E00895882371F493
:1052E000772321F09850872B762F07C0662311F47F
:1052F00099270DC09051862B70E060E02AF09A95B6
:10530000660F771F881FDAF7880F9695879597F9AC
:1053100008959F3F31F0915020F4879577956795D8
:10532000B795880F911D9695879597F908959FEFEA
:1053300080EC089500240A9416161706180609062C
:10534000089500240A9412161306140605060895FB
:10535000092E0394000C11F4882352F0BB0F40F483
:10536000BF2B11F460FF04C06F5F7F4F8F4F9F4FC3
:10537000089557FD9058440F551F59F05F3F71F045
:105380004795880F97FB991F61F09F3F79F08795AC
:105390000895121613061406551FF2CF4695F1DF35
:1053A00008C0161617061806991FF1CF86957105C5
:1053B0006105089408950E94C129A0F0BEE7B917BD
:1053C00088F4BB279F3860F41616B11D672F782F1D
:1053D0008827985FF7CF869577956795B11D939548
:1053E0009639C8F30895E894BB2766277727CB0141
:1053F00097F908950E94442908F48FEF08950E94B8
:10540000122A0C94A8290E949A2938F00E94A129F6
:1054100020F0952311F00C9468290C9497291124FD
:105420000C94F4290E94B92970F3959FC1F3950F4C
:1054300050E0551F629FF001729FBB27F00DB11D18
:10544000639FAA27F00DB11DAA1F649F6627B00DA8
:10545000A11D661F829F2227B00DA11D621F739F91
:10546000B00DA11D621F839FA00D611D221F749F9F
:105470003327A00D611D231F849F600D211D822FE6
:10548000762F6A2F11249F5750409AF0F1F088230D
:105490004AF0EE0FFF1FBB1F661F771F881F91503A
:1054A0005040A9F79E3F510580F00C9468290C9458
:1054B000F4295F3FE4F3983ED4F38695779567959A
:1054C000B795F795E7959F5FC1F7FE2B880F911D64
:1054D0009695879597F90895FA01EE0FFF1F30967C
:1054E00021053105A1F16115710561F48038BFE333
:1054F0009B0749F168949038810561F08038BFEFCF
:105500009B0741F099234AF5FF3FE105310521054D
:1055100019F1E8940894E795D901AA2329F4AB2F4F
:10552000BE2FF85FD0F310C0FF5F70F4A695E0F7D0
:10553000F73950F019F0FF3A38F49F779F930DD068
:105540000F9007FC9058089546F00C94972960E05E
:1055500070E080E89FE308954FE79F775F934F9354
:105560003F932F930E948B2B2F913F914F915F91EF
:105570000E94FF290C94E82A0E94C129E8F09E3776
:10558000E8F09639B8F49E3848F4672F782F8827CA
:10559000985FF9CF86957795679593959539D0F370
:1055A000B62FB1706B0F711D811D20F48795779513
:1055B000679593950C946E290C9489290C94F42981
:1055C00029F416F00C9468290C94F3290C9497296B
:1055D0000E94C129A8F39638A0F707F80F92E89423
:1055E0002BE33AEA48EB5FE70E94152A0F920F92ED
:1055F0000F924DB75EB70F920E94D32BE4E3F1E018
:105600000E941A2B4F915F91EF91FF91E595EE1F4C
:10561000FF1F49F0FE57E0684427EE0F441FFA953C
:10562000E1F74195550B0E944D2B0F9007FE0C940E
:10563000412B0895DF93CF931F930F93FF92EF9227
:10564000DF927B018C01689406C0DA2EEF010E9484
:10565000122AFE01E894A591259135914591559125
:10566000A6F3EF010E94F527FE019701A801DA9445
:1056700069F7DF90EF90FF900F911F91CF91DF912D
:1056800008959B01AC0160E070E080E89FE30C941A
:105690004F280C9468290C9489290E94C129D8F3B9
:1056A0009923C9F3940F511DA3F39150504094F0E6
:1056B00059F0882332F0660F771F881F91505040B1
:1056C000C1F79E3F51052CF7880F911D9695879540
:1056D00097F908955F3FACF0983E9CF0BB27869504
:1056E00077956795B79508F4B1609395C1F7BB0FAF
:1056F00058F711F460FFE8CF6F5F7F4F8F4F9F4FD8
:10570000E3CF0C94F42916F00C9489290C94972972
:1057100068940C9468290E94C129A8F39923C1F3C5
:10572000AEF3DF93CF931F930F93FF92C92FDD2723
:1057300088232AF02197660F771F881FDAF720E069
:1057400030E040E85FEB9FE3883920F0803E38F09E
:1057500021968F770E94DE27ECE5F1E004C00E94DD
:10576000DE27E9E8F1E00E941A2B8B01BE01EC0173
:10577000FB2E6F5771097595771F880B990B0E9447
:10578000F22828E132E741E35FE30E94122AAF2DBD
:105790009801AE01FF900F911F91CF91DF910E9470
:1057A000F5270C94A829FA01DC01AA0FBB1F9B0165
:1057B000AC01BF5728F4222733274427507820C054
:1057C000B75190F4AB2F0024469537952795011CCF
:1057D000A395D2F3002071F0220F331F441FB3951D
:1057E000DAF30ED00C94DD2761307105A0E88A074A
:1057F000B94630F49B01AC0166277727882790785B
:10580000309621F020833183428353830895FC0135
:1058100088279927E89421912032E9F3293010F064
:105820002E30C8F32B3241F02D3239F4689404C085
:105830000E94442D820F911D219120532A30C0F3E4
:105840001EF4909581959F4F0895283008F027E029
:105850003327DA01990F311D87FD916000966105AC
:10586000710539F432602E5F3D9330E32A95E1F7FC
:1058700008959F3F30F080387105610509F03C5F65
:105880003C5F3D93913008F08068911DDF93CF938A
:105890001F930F93FF92EF92192F987F9695E92F00
:1058A00096959695E90FFF27E85EFD4F99273327D8
:1058B000EE24FF24A701E70105900894079428F43B
:1058C000360FE71EF81E491F511D660F771F881FF0
:1058D000991F0694A1F70590079428F4E70EF81E87
:1058E000491F561FC11D770F881F991F661F0694F9
:1058F000A1F70590079428F4F80E491F561FC71FFB
:10590000D11D880F991F661F771F0694A1F7059078
:10591000079420F4490F561FC71FD81F990F661F01
:10592000771F881F0694A9F784911095177041F08E
:10593000D695C79557954795F794E7941A95C1F76B
:10594000EEEBF1E068941590159135916591959184
:1059500005907FE27395E118F10A430B560BC90BD2
:10596000D009C0F7E10CF11E431F561FC91FD01DFF
:105970007EF4703311F48A95E6CFE894015030F04C
:10598000080F0AF40027021708F4202F2395022F8E
:105990007A3328F079E37D932A95E9F710C07D9357
:1059A0002A9589F6069497956795379517951794D4
:1059B000E118F10A430B560BC90BD00998F0239557
:1059C0007E9173957A3308F070E37C932013B8F7D7
:1059D0007E9170617D9330F0839571E37D9370E3E8
:1059E0002A95E1F71124EF90FF900F911F91CF912D
:1059F000DF91992787FD90950895FC0105906150EE
:105A000070400110D8F7809590958E0F9F1F0895D4
:105A1000FB01DC010D900020E9F7119701900D9238
:105A20000020E1F70895FB01DC018D9101908019C0
:105A30000110D9F3990B0895FB01DC0101900D923F
:105A40000020E1F70895FC016150704001900110C1
:105A5000D8F7809590958E0F9F1F08954532510578
:105A600020F4423010F00C94392DFB011082CB0150
:105A70000895BB274A3031F4992322F4BDE2909572
:105A800081959F4F0C944D2D7AE0979F902D879F85
:105A9000802D910D11240895BB27FB015527AA27BE
:105AA000880F991FAA1FA41710F0A41B83955051AB
:105AB000B9F7A05DAA3308F0A95DA193009779F723
:105AC000B111B1931192CB010C942F2E0F931F9310
:105AD000CF93DF93FB01238121FD03C08FEF9FEF65
