:100000000C9465010C9484010C9484010C9484017B
:100010000C9484010C9484010C9423200C9484018E
:100020000C9484010C9484010C9484010C9484013C
:100030000C9484010C9484010C9484010C94D91FB9
:100040000C94F01F0C9484010C9484010C94840192
:100050000C9484010C9484010C9484010C9484010C
:100060000C944D200C9484010C9484010C94840114
:100070000C9484010C9484010C9484010C948401EC
:100080000C9484010C9484010C948401221FC21FDF
:10009000C21FC21FC21FC21FC21F191F521FC21F71
:1000A0004E1FC21F121F0F1F421F461F4A1F021F53
:1000B0000B1FFE1E261F081F2A1FC21FC21FC21FA2
:1000C000C21FC21FC21FC21FEE1E951F661FF31E56
:1000D0009B1F991FC21FC01FC21FC21FC21F2E1FFE
:1000E000721F6E1FE11E761F9D1F321FE81EDF1E4E
:1000F000BE1F6A1FE31EF81E201F971FC21FC21FCC
:10010000C21FC21FC21FC21F361FC21F791F561F28
:10011000891F5A1FC21F5E1FC21F621F3E1F3A1F48
:10012000851F811F8F1F921FC21F8C1FC21FC21FDE
:10013000C21F7D1F07634236B79BD8A71A3968567E
:1001400018AEBAAB558C1D3CB7CC5763BD6DEDFDF9
:10015000753EF6177231BF000000803F08000000B6
:10016000BE922449123EABAAAA2ABECDCCCC4C3EAC
:1001700000000080BEABAAAAAA3E00000000BF009B
:100180000000803F0000000000084178D3BB438797
:10019000D1133D190E3CC3BD4282AD2B3E68EC82AB
:1001A00076BED98FE1A93E4C80EFFFBE01C4FF7F30
:1001B0003F00000000006E616E00696E6600004046
:1001C0007A10F35A00A0724E18090010A5D4E80066
:1001D00000E87648170000E40B54020000CA9A3B7E
:1001E000000000E1F5050000809698000000404204
:1001F0000F000000A0860100000010270000000092
:10020000E803000000006400000000000A00000095
:1002100000000100000000002C76D888DC674F0841
:1002200023DFC1DFAE59E1B1B796E5E3E453C63A47
:10023000E651997696E8E6C28426EB898C9B62EDBE
:10024000407C6FFCEFBC9C9F40F2BAA56FA5F49078
:10025000055A2AF75C936B6CF9676DC11BFCE0E4EF
:100260000D47FEF520E6B500D0ED902E0300943545
:1002700077050080841E080000204E0A000000C898
:100280000C333333330F986E12831141EF8D2114E9
:10029000893BE65516CFFEE6DB18D1844B381BF7B9
:1002A0007C1D901DA4BBE424203284725E22810058
:1002B000C9F124ECA1E53D272569207365632E2053
:1002C000666F72206D656E75000011241FBECFEF42
:1002D000D0E4DEBFCDBF1EE1A0E0B1E0ECEBFCE579
:1002E00000E00BBF02C007900D92A030B107D9F714
:1002F0002EE1A0E0BEE101C01D92AE38B207E1F7E9
:100300000E944E200C945C2E0C9400002F923F9281
:100310004F925F926F927F928F929F92AF92BF9215
:10032000CF92DF92EF92FF920F931F93CF93DF93C1
:10033000CDB7DEB760970FB6F894DEBF0FBECDBF66
:100340007C011B016A01FC0117821682838181FFF7
:1003500044C39E012F5F3F4F3901F7019381F101A3
:1003600093FD859193FF81911F01882309F431C387
:10037000853239F493FD859193FF81911F01853278
:1003800039F4B70190E00E94832D56016501E5CF55
:1003900010E0512C912CFFE1F915D8F08B3279F057
:1003A00038F4803279F08332A1F4F92DF0612EC057
:1003B0008D3261F0803369F4292D21602DC0392DF3
:1003C0003260932E892D8460982E2AC0E92DE86032
:1003D00015C097FC2DC020ED280F2A3088F496FE1A
:1003E00006C03AE0139F200D1124122F19C08AE095
:1003F000589E200D1124522EE92DE0629E2E10C031
:100400008E3231F496FCE5C2F92DF0649F2E08C0BF
:100410008C3621F4292D2068922E02C0883641F4B2
:10042000F10193FD859193FF81911F018111B3CF5C
:100430009BEB980F933020F4992D9061805E07C05C
:100440009BE9980F933008F066C1992D9F7E96FF27
:1004500016E09F73992E853619F49064992E08C082
:10046000863621F4392F3068932E02C011111150B5
:1004700097FE07C01C3350F444244394410E27E0F8
:100480000BC0183038F027E017E005C027E09CE3E8
:10049000492E02C0212F412C560184E0A80EB11C28
:1004A000F6016081718182819381042DA3010E94F4
:1004B000422C6C01F981FC87F0FF02C0F3FF06C0FB
:1004C00091FC06C092FE06C000E205C00DE203C02A
:1004D0000BE201C000E08C858C7019F001115AC24A
:1004E0009BC297FE10C04C0CFC85F4FF04C08A81AF
:1004F000813309F44A94141474F528E0241578F52E
:1005000088E0482E2CC096FC2AC0812F90E08C15E4
:100510009D059CF03CEFC3163FEFD30674F0892D88
:100520008068982E0AC0E2E0F0E0EC0FFD1FE10FBA
:10053000F11D8081803319F411501111F4CF97FE11
:100540000EC044244394410E812F90E0C816D90672
:100550002CF41C1904C04424439401C010E097FEFD
:1005600006C01C141D0434F4C601019605C085E0C4
:1005700090E002C081E090E001110196112331F07A
:10058000212F30E02F5F3F4F820F931F252D30E04A
:100590008217930714F4581A01C0512C892D8970C1
:1005A00049F4552039F0B70180E290E00E94832D94
:1005B0005A94F7CF002329F0B701802F90E00E94D2
:1005C000832D93FC09C0552039F0B70180E390E0FA
:1005D0000E94832D5A94F7CF97FE4CC04601D7FE58
:1005E00002C0812C912CC60188199909F301E80FEA
:1005F000F91FFE87ED87960124193109388B2F8763
:10060000012F10E01195019511093FEF8316930614
:1006100029F4B7018EE290E00E94832DC814D9041A
:100620004CF08F8598898815990524F4ED85FE8511
:10063000818101C080E3F1E08F1A91082D853E850C
:100640002F5F3F4F3E872D87801691062CF0B70114
:1006500090E00E94832DD9CFC814D90441F49A8127
:10066000963320F4953319F43C8534FF81E3B701C8
:1006700090E04EC08A81813319F09C859F7E9C87D3
:10068000B70190E00E94832D111105C094FC18C0A1
:1006900085E690E017C0B7018EE290E00E94832DBE
:1006A0001E5F82E001E0080FF301E80FF11D808179
:1006B000B70190E00E94832D802F0113F3CFE6CF86
:1006C00085E490E0B7010E94832DD7FC06C0C114D9
:1006D000D10441F4EC85E4FF05C0D194C194D10864
:1006E0008DE201C08BE2B70190E00E94832D80E390
:1006F0002AE0C216D1042CF08F5FFAE0CF1AD1089D
:10070000F7CFB70190E00E94832DB701C601C096D4
:100710000E94832D54C1833631F0833779F08335BD
:1007200009F056C020C0560132E0A30EB11CF601FC
:100730008081898301E010E0630112C05601F2E07C
:10074000AF0EB11CF601C080D18096FE03C0612FB0
:1007500070E002C06FEF7FEFC6010E94402D8C0158
:10076000F92DFF7714C0560122E0A20EB11CF6014C
:10077000C080D18096FE03C0612F70E002C06FEF91
:100780007FEFC6010E941A2D8C01F92DF0689F2E73
:10079000F3FD1AC0852D90E008171907A8F4B701DA
:1007A00080E290E00E94832D5A94F4CFF60197FCEA
:1007B000859197FE81916F01B70190E00E94832D92
:1007C00051105A94015011090115110579F7F7C01C
:1007D000843611F0893661F5560197FE09C024E090
:1007E000A20EB11CF60160817181828193810AC0E1
:1007F000F2E0AF0EB11CF60160817181072E000C92
:10080000880B990BF92DFF769F2E97FF09C09095C5
:100810008095709561957F4F8F4F9F4FF0689F2E09
:100820002AE030E0A3010E94EE2DC82EC6183FC07A
:10083000092D853721F40F7E2AE030E01DC0097FA5
:100840008F3691F018F4883559F0C3C0803719F00D
:10085000883711F0BEC0006104FF09C0046007C002
:1008600094FE08C0066006C028E030E005C020E124
:1008700030E002C020E132E0560107FF09C084E009
:10088000A80EB11CF601608171818281938108C03C
:10089000F2E0AF0EB11CF6016081718180E090E062
:1008A000A3010E94EE2DC82EC6180F77902E96FE3B
:1008B0000BC0092D0E7FC11650F494FE0AC092FCA5
:1008C00008C0092D0E7E05C0DC2C092D03C0DC2CD0
:1008D00001C0D12E04FF0DC0FE01EC0DF11D808181
:1008E000803311F4097E09C002FF06C0D394D3946B
:1008F00004C0802F867809F0D39403FD11C000FF57
:1009000006C01C2DD51480F4150D1D190DC0D5146D
:1009100058F4B70180E290E00E94832DD394F7CF82
:10092000D51410F45D1801C0512C04FF10C0B7019C
:1009300080E390E00E94832D02FF17C001FD03C0F9
:1009400088E790E002C088E590E0B7010CC0802FF6
:10095000867859F001FF02C08BE201C080E207FDFA
:100960008DE2B70190E00E94832DC11638F4B701E3
:1009700080E390E00E94832D1150F7CFCA94F301D9
:10098000EC0DF11D8081B70190E00E94832DC11014
:10099000F5CF15C0F4E0F51560F584E0581A93FE24
:1009A0001FC0011127C02C8523FF2AC006EB11E0D0
:1009B000392D3071932EF8018491811124C0552076
:1009C00009F4E4CCB70180E290E00E94832D5A94B0
:1009D000F6CFF7018681978126C08FEF9FEF23C066
:1009E000B70180E290E00E94832D5A945110F8CF15
:1009F000D8CF512CB701802F90E00E94832DD3CF08
:100A00000AEB11E0D5CF91108052B70190E00E941F
:100A1000832D0F5F1F4FCFCF23E0251510F483E008
:100A2000BDCF512CC0CF60960FB6F894DEBF0FBE7D
:100A3000CDBFDF91CF911F910F91FF90EF90DF908D
:100A4000CF90BF90AF909F908F907F906F905F906E
:100A50004F903F902F90089583B7817F826083BF2E
:100A6000EAE7F0E0808188608083089590917C00BF
:100A7000907E90937C0090917C00892B80937C00E9
:100A800080917A00806480937A0080917A0086FF5A
:100A9000FCCF809178009091790008951F93CF93B7
:100AA000DF9310E1C0E0D0E083B7816083BF889519
:100AB00083B78E7F83BF87E00E943605C80FD91F9A
:100AC000115091F7CE019695879596958795DF9170
:100AD000CF911F910895249A2C9A259A2E9A279A9D
:100AE0008CB581608CBD8CB580618CBD8CB580640B
:100AF0008CBD08958EBD0DB407FEFDCF0895CF9334
:100B0000DF93EB010E947A058D2F0E947A058C2FCE
:100B1000DF91CF910C947A052C9886E00E947A059B
:100B20002C9A0895CF92DF92EF92FF926B017C0195
:100B30002C9883E00E947A05C701B6010E947F05C8
:100B400080E00E947A052C9A8EB5FF90EF90DF909E
:100B5000CF900895CF92DF92EF92FF92CF936B01E7
:100B60007C01C42F0E948C052C9882E00E947A059B
:100B7000C701B6010E947F058C2F0E947A050DB433
:100B800007FEFDCF2C9ACF91FF90EF90DF90CF9092
:100B90000895CF92DF92EF92FF92CF93DF936B0194
:100BA0007C012C9883E00E947A05C701B6010E945F
:100BB0007F0580E00E947A05CEB5D0E0DC2FCC27FF
:100BC00080E00E947A058EB52C9A9E01280F311D77
:100BD000C901DF91CF91FF90EF90DF90CF90089502
:100BE000CF92DF92EF92FF92CF93DF936B017C0164
:100BF000EA010E948C052C9882E00E947A05C701C8
:100C0000B6010E947F058D2F0E947A058C2F0E94CD
:100C10007A052C9ADF91CF91FF90EF90DF90CF90E3
:100C20000895CF92DF92EF92FF92C12CD12C7601E2
:100C30000E948C052C9882E00E947A05C701B601BB
:100C40000E947F0580E00E947A058FEFC81AD80ABB
:100C5000E80AF80A2C9A8FEFC816D806E104F104C6
:100C600039F7FF90EF90DF90CF9008950E944607EC
:100C700084EC0E945F078091B900887F883199F5E4
:100C800088E191E00E941F2488E10E943C258DEAC2
:100C900099E10E941F2480E00E945F078091B900C3
:100CA000887F883201F580E591E00E941F2488E268
:100CB0000E943C258DEA99E10E941F2484E00E9455
:100CC0005F078091B900887F883269F484E791E0FA
:100CD0000E941F2488E20E943C258DEA99E10E942F
:100CE0001F240C944B070895CF930E94460784EC71
:100CF0000E945F078091B900887F883101F588E103
:100D000091E00E941F2488E10E943C258DEA99E130
:100D10000E941F2481E00E945F078091B900887FB4
:100D2000883269F482E991E00E941F2488E20E94DF
:100D30003C258DEA99E10E941F240E944B0786EB17
:100D400091E00E941F248DEA99E10E941F240E94D5
:100D5000460785EC0E945F07C091B900C87F8C2FC1
:100D60000E943C258DEA99E10E941F24C034D1F4F1
:100D700080EC91E00E941F2480E40E943C258DEAD3
:100D800099E10E941F240E945707C82F8EEF91E01F
:100D90000E941F248C2F0E943C258DEA99E10E941D
:100DA0001F2401C0C0E08C2FCF9108951F93CF93D3
:100DB000DF930E94460784EC0E945F078091B90090
:100DC000887F883159F488E191E00E941F2488E1EE
:100DD0000E943C258DEA99E10E941F248FE80E9421
:100DE0005F078091B900887F883269F480E192E0E2
:100DF0000E941F2488E20E943C258DEA99E10E940E
:100E00001F240E944B070E94460785EC0E945F0743
:100E10008091B900887F803409F584E392E00E94D4
:100E20001F2480E40E943C258DEA99E10E941F2442
:100E30000E944F07182F0E945707C82F0E944B0788
:100E4000D0E0D12B81E792E00E941F24CE010E94C6
:100E50004B248DEA99E10E941F2402C0C0E0D0E03B
:100E6000CE01DF91CF911F91089588B1836088B939
:100E700086E48093B800ECEBF0E0808184608083AE
:100E800008958091BC0087FFFCCF089584EA809389
:100E9000BC000C94410784E98093BC00089584EC65
:100EA0008093BC000E9441078091BB00089584E8B4
:100EB0008093BC000E9441078091BB0008958093FD
:100EC000BB0084E88093BC000C944107CF93C82FEB
:100ED0000E9446078EE40E945F078C2F88600E9464
:100EE0005F07CF910C944B071F93CF93DF93D82FBD
:100EF00011E0611101C010E0D4FF02C080E101C027
:100F000080E0D5FD8062D6FD8064D7FD8068C82F63
:100F1000C12B8C2F84600E94660787EA91E60197B7
:100F2000F1F700C000008C2F0E946607D0FF02C0BE
:100F300080E101C080E0D1FD8062D2FD8064D3FDFC
:100F40008068182B812F84600E94660787EA91E6EB
:100F50000197F1F700C00000812FDF91CF911F9121
:100F60000C94660760E081E00E94740760E080E80E
:100F70000E9474071092001E089560E080E80E94AD
:100F800074071092001E0895CF93C4E0C150B1F0D1
:100F900084E30E9466078FE493EC0197F1F700C0A9
:100FA000000080E30E9466079FE72AE186E09150F7
:100FB00020408040E1F700C00000E8CF84E20E94BA
:100FC00066078FE493EC0197F1F700C0000080E220
:100FD0000E9466078FE493EC0197F1F700C00000D0
:100FE00060E088E20E94740760E08CE00E94740771
:100FF000CF910C94B207CF93C82F8091001E8031FF
:1010000021F460E080EC0E9474078091001E803221
:1010100031F460E080E80E9474071092001E809115
:10102000001E8F5F8093001E61E08C2FCF910C9487
:1010300074070F931F93CF93DF93EC018E01888188
:101040008823F1F08091001E803121F460E080EC73
:101050000E9474078091001E803231F460E080E8C5
:101060000E9474071092001E8091001E8F5F809373
:10107000001E219661E0F80180810E947407DECF96
:10108000DF91CF911F910F9108954F925F926F92D0
:101090007F928F929F92AF92BF92CF92DF92EF9208
:1010A000FF920F931F93CF93DF93CDB7DEB7649773
:1010B0000FB6F894DEBF0FBECDBFFE01B79681908C
:1010C00091907F01712C6E018BE0C80ED11CFE0146
:1010D00031965F0180E3682E2401FFEF4F1A5F0A0B
:1010E000F4018491882309F4A6C0853209F08FC0E9
:1010F00084010E5F1F4FF2018491282F30E02053AE
:1011000031092A303105D8F589831A82C5010E9438
:10111000242C782E94012D5F3F4FF801049109365D
:1011200051F138F40236E1F10336D1F0890148017A
:10113000D3CF033731F0083779F10F36B9F789018A
:1011400028C08901F70180809180F2E0EF0EF11C48
:10115000F40181914F01882351F30E94FB07F8CFDE
:1011600089014701F2E08F0E911CF70180810E94F6
:10117000FB077401DCCF890198014AE012C089366F
:10118000D9F308F448C08337E9F2883731F08F3655
:1011900071F6980148E005C08901980140E101C05D
:1011A00042E050E04701F2E08F0E911CF701808190
:1011B00091818901B6010E944B2DF601CF018C1956
:1011C0009D0921912111FACF272D30E08217930735
:1011D000C4F4781AF501872D90E09F012A193B0984
:1011E0002817390714F46192F8CFF501E80FF91FB9
:1011F0001082B601C5010E94252DB501C6010E94CD
:10120000392DC6010E9419087401712C90CF0E94DB
:10121000FB0782018CCF823651F44701F2E08F0E3A
:10122000911CF7018081918142E050E0C3CF833669
:1012300009F497CF7CCF64960FB6F894DEBF0FBE4B
:10124000CDBFDF91CF911F910F91FF90EF90DF9075
:10125000CF90BF90AF909F908F907F906F905F9056
:101260004F90089550E05093890040938800882360
:1012700019F0109A549A02C01098549850938B0009
:1012800040938A00662319F0119A559A089511988F
:10129000559808954093B300882319F0129A569AEE
:1012A00002C0129856984093B400662319F0139A1E
:1012B000579A0895139857980895CF93DF93C82F9E
:1012C000D82FD6958D2F0E9432241F92DF938DE761
:1012D00092E09F938F9381E69EE19F938F930E946C
:1012E000BF2D81E69EE10E9419080F900F900F908C
:1012F0000F900F900F90C0FF07C080E892E00E940F
:101300001F2485E892E006C08FE892E00E941F2427
:1013100084E992E00E94190888E892E0DF91CF9179
:101320000C9419081092C50084E08093C400E0EC8E
:10133000F0E080818260808388E18093C10086E054
:101340008093C20008950F931F93CF938C01C62FF3
:1013500067E972E00E94302D892B21F44C2F60E068
:1013600081E01EC06FE972E0C8010E94302D892B18
:1013700069F44C2F60E081E00E944A094C2F61E043
:1013800080E0CF911F910F910C94320965EA72E0D1
:10139000C8010E94302D892B49F44C2F61E080E078
:1013A0000E944A094C2F60E081E0EBCF6AEA72E0CC
:1013B000C8010E94302D892B21F44C2F61E080E080
:1013C000DBCF63EB72E0C8010E94302D892B41F422
:1013D00040E060E080E00E944A0940E060E0D0CF59
:1013E00089EB92E00E941F248DEA99E1CF911F9131
:1013F0000F910C941F242F923F924F925F926F9205
:101400007F928F929F92AF92BF92CF92DF92EF9294
:10141000FF920F931F93CF93DF9300D000D000D0A3
:10142000CDB7DEB7182F6E83B42E022FC82ED12C65
:10143000E12CF12C24E2C21AD1082FEFE20AF20AC1
:10144000C701B6010E9492058D831031E0F08FEC48
:1014500092E026960FB6F894DEBF0FBECDBFDF91A7
:10146000CF911F910F91FF90EF90DF90CF90BF90A1
:10147000AF909F908F907F906F905F904F903F9034
:101480002F900C941F248B2D90E0A0E0B0E0898376
:101490009A83AB83BC839D8197FD6CC1AE8144EF81
:1014A000242E33243394A7FDD8C09A170CF07BC0A8
:1014B000BD816B2FBB0F770B880B990B0E940F29F7
:1014C000AB01BC01812F0E9432234E81C701B601BE
:1014D0000E94AA0569817A818B819C810E940D29D5
:1014E0002B013C0120E030E44CE955E40E941C2A29
:1014F0004B015C0120E030E040E85FE30E94672898
:1015000087FD22C020E03FEF4FE757E4C501B4015B
:101510000E94172A18169CF420E030E040E251E4C3
:10152000C301B2010E941C2A0E94DE2861157105C8
:1015300081F0C1010197F1F761507109F7CFC50141
:10154000B4010E94DE2802C061E070E0CB01019787
:10155000F1F72D81200F2D833E8132170CF0A8CF9B
:1015600085E093E00E941F24812F0E94322488E2AC
:1015700093E00E941F243CEDC32EDD24DA94E12C7D
:10158000F12C812F90E09A838983B3C0C501B40107
:101590000E94DE28CB010197F1F7BD81B01BBD830E
:1015A0002E81B217ECF2AD816A2FAA0F770B880B50
:1015B000990B0E940F29AB01BC01812F0E9432239D
:1015C0004E81C701B6010E94AA0569817A818B818B
:1015D0009C810E940D292B013C0120E030E44CE964
:1015E00055E40E941C2A4B015C0120E030E040E8F9
:1015F0005FE30E94672887FD1FC020E03FEF4FE7B1
:1016000057E4C501B4010E94172A18160CF0BECF8A
:1016100020E030E040E251E4C301B2010E941C2A04
:101620000E94DE286115710509F4B7CFC101019749
:10163000F1F761507109F6CF61E070E0ABCFC50101
:10164000B4010E94DE28CB010197F1F78D81801B48
:101650008D839E8189170CF483CF3D81632F330FD7
:10166000770B880B990B0E940F29AB01BC01812FCE
:101670000E9432234E81C701B6010E94AA056981EA
:101680007A818B819C810E940D292B013C0120E0F5
:1016900030E44CE955E40E941C2A4B015C0120E037
:1016A00030E040E85FE30E94672887FD1FC020E02C
:1016B0003FEF4FE757E4C501B4010E94172A1816FF
:1016C0000CF0BDCF20E030E040E251E4C301B201B4
:1016D0000E941C2A0E94DE286115710509F4B6CF0C
:1016E000C1010197F1F761507109F6CF61E070E037
:1016F000AACF87E393E00E941F24C6010E944B24D7
:1017000088E493E00E941F24C701B6010E9492055D
:101710000E943224C6018496A981BA81A817B9070C
:1017200021F481E593E00E941F24BFEFCB1ADB0A6E
:10173000EB0AFB0A2CEEC2162FEFD206E104F104ED
:10174000C1F626960FB6F894DEBF0FBECDBFDF916F
:10175000CF911F910F91FF90EF90DF90CF90BF90AE
:10176000AF909F908F907F906F905F904F903F9041
:101770002F9008953E8137FD5DC024EF222E332443
:101780003394AD816A2FAA0F770B880B990B0E94B7
:101790000F29AB01BC01812F0E9432234E81C7016A
:1017A000B6010E94AA0569817A818B819C810E9481
:1017B0000D292B013C0120E030E44CE955E40E9466
:1017C0001C2A4B015C0120E030E040E85FE30E940E
:1017D000672887FD22C020E03FEF4FE757E4C501AF
:1017E000B4010E94172A18169CF420E030E040E271
:1017F00051E4C301B2010E941C2A0E94DE28611537
:10180000710581F0C1010197F1F761507109F7CFBE
:10181000C501B4010E94DE2802C061E070E0CB0186
:101820000197F1F7BD81B00FBD832E812B170CF00E
:10183000A8CF96CE3D818E8194EF292E3324339408
:1018400038170CF067C0AD816A2FAA0F770B880B91
:10185000990B0E940F29AB01BC01812F0E943223FA
:101860004E81C701B6010E94AA0569817A818B81E8
:101870009C810E940D292B013C0120E030E44CE9C1
:1018800055E40E941C2A4B015C0120E030E040E856
:101890005FE30E94672887FD22C020E03FEF4FE70B
:1018A00057E4C501B4010E94172A18169CF420E0E1
:1018B00030E040E251E4C301B2010E941C2A0E94C0
:1018C000DE286115710581F0C1010197F1F76150C2
:1018D0007109F7CFC501B4010E94DE2802C061E0A2
:1018E00070E0CB010197F1F7BD81B00FBD832E8170
:1018F0002B170CF0A8CF34CEC501B4010E94DE280E
:10190000CB010197F1F78D81801B8D839E81891713
:101910000CF426CE3D81632F330F770B880B990B88
:101920000E940F29AB01BC01812F0E9432234E81FE
:10193000C701B6010E94AA0569817A818B819C81C9
:101940000E940D292B013C0120E030E44CE955E4D4
:101950000E941C2A4B015C0120E030E040E85FE37C
:101960000E94672887FD1FC020E03FEF4FE757E444
:10197000C501B4010E94172A18160CF0BDCF20E053
:1019800030E040E251E4C301B2010E941C2A0E94EF
:10199000DE286115710509F4B6CFC1010197F1F791
:1019A00061507109F6CF61E070E0AACF1F93CF9329
:1019B000DF9381E693E00E941F248CE893E00E946D
:1019C0001F240E945A25D82F89EA93E00E941F24E1
:1019D0000E945A25C82F88EC93E00E941F240E9481
:1019E00018248D3261F018F48B3231F00EC0803340
:1019F00019F0813321F009C08FE094E003C0C19554
:101A00008AE294E00E941F2406C081E494E00E94D0
:101A10001F24C0E0D4E60E9418248EE794E00E94C0
:101A20001F240E945A25182F8FE994E00E941F243A
:101A30000E945A25282F412F6C2F8D2F0E94FB09C1
:101A400087EC94E0DF91CF911F910C941F24CF93EA
:101A5000C82F21E0482F60E080E00E94FB0921E0D0
:101A60004C2F60E084E00E94FB0921E04C2F60E0F5
:101A700083E00E94FB0921E04C2F60E082E00E949D
:101A8000FB0921E04C2F60E081E00E94FB0921E08E
:101A90004C2F60E085E00E94FB0921E04C2F6EE1B5
:101AA00086E00E94FB0921E04C2F60E087E00E9465
:101AB000FB0921E04C2F60E08BE00E94FB0921E054
:101AC0004C2F60E08AE00E94FB0921E04C2F60E08F
:101AD00089E00E94FB0921E04C2F60E088E00E9431
:101AE000FB0921E04C2F60E08CE00E94FB0921E023
:101AF0004C2F6CEE8DE0CF910C94FB09CF93C82F47
:101B000021E0482F60E087E00E94FB0921E04C2F94
:101B100060E08BE00E94FB0921E04C2F60E08AE04E
:101B20000E94FB0921E04C2F60E089E00E94FB0944
:101B300021E04C2F60E088E00E94FB0921E04C2F5F
:101B400060E08CE00E94FB0921E04C2F6CEE8DE000
:101B5000CF910C94FB09CF93C82F21E0482F60E070
:101B600080E00E94FB0921E04C2F60E084E00E94AD
:101B7000FB0921E04C2F60E083E00E94FB0921E09B
:101B80004C2F60E082E00E94FB0921E04C2F60E0D6
:101B900081E00E94FB0921E04C2F60E085E00E947B
:101BA000FB0921E04C2F6EE186E0CF910C94FB09FC
:101BB000CF93C82F21E0482F6EE186E00E94FB09F9
:101BC00021E04C2F60E085E00E94FB0921E04C2FD2
:101BD00066EF80E00E94FB0921E04C2F62EB82E07F
:101BE0000E94FB0921E04C2F6FE684E00E94FB0974
:101BF00021E04C2F65E383E00E94FB0921E04C2F9C
:101C000061E981E00E94FB0921E04C2F67EE8DE045
:101C10000E94FB0921E04C2F60E08CE00E94FB0950
:101C200021E04C2F60E087E00E94FB0921E04C2F6F
:101C30006AEB89E00E94FB0921E04C2F6BE78BE007
:101C40000E94FB0921E04C2F65E38AE00E94FB091A
:101C500021E04C2F64E688E0CF910C94FB09CF93F0
:101C6000C82F21E0482F67EE8DE00E94FB0921E09C
:101C70004C2F60E08CE00E94FB0921E04C2F60E0DB
:101C800087E00E94FB0921E04C2F6AEB89E00E946B
:101C9000FB0921E04C2F6BE78BE00E94FB0921E060
:101CA0004C2F65E38AE00E94FB0921E04C2F64E69B
:101CB00088E0CF910C94FB09CF93C82F21E0482FE7
:101CC0006EE186E00E94FB0921E04C2F60E085E098
:101CD0000E94FB0921E04C2F66EF80E00E94FB0987
:101CE00021E04C2F62EB82E00E94FB0921E04C2FA7
:101CF0006FE684E00E94FB0921E04C2F65E383E05E
:101D00000E94FB0921E04C2F61E981E0CF910C9406
:101D1000FB09CF93C82F21E0482F66EF80E00E9497
:101D2000FB0921E04C2F62EB82E00E94FB0921E0DD
:101D30004C2F6FE684E00E94FB0921E04C2F65E305
:101D400083E00E94FB0921E04C2F66EA81E00E94BB
:101D5000FB0921E04C2F60E085E00E94FB0921E0B7
:101D60004C2F6EE186E00E94FB0921E04C2F60E0E1
:101D700087E00E94FB0921E04C2F6AEB89E00E947A
:101D8000FB0921E04C2F6DE78BE00E94FB0921E06D
:101D90004C2F65E38AE00E94FB0921E04C2F60E5AF
:101DA00088E00E94FB0921E04C2F60E08CE00E945B
:101DB000FB0921E04C2F6CEE8DE0CF910C94FB09D8
:101DC000CF93C82F21E0482F60E087E00E94FB09F5
:101DD00021E04C2F6AEB89E00E94FB0921E04C2FA7
:101DE0006DE78BE00E94FB0921E04C2F65E38AE060
:101DF0000E94FB0921E04C2F60E588E00E94FB096E
:101E000021E04C2F60E08CE00E94FB0921E04C2F88
:101E10006CEE8DE0CF910C94FB09CF93C82F21E09D
:101E2000482F66EF80E00E94FB0921E04C2F62EB17
:101E300082E00E94FB0921E04C2F6FE684E00E94C3
:101E4000FB0921E04C2F65E383E00E94FB0921E0C0
:101E50004C2F66EA81E00E94FB0921E04C2F60E0F4
:101E600085E00E94FB0921E04C2F6EE186E0CF91D6
:101E70000C94FB09CF93C82F21E0482F66EF80E038
:101E80000E94FB0921E04C2F65E584E00E94FB09DC
:101E900021E04C2F60E082E00E94FB0921E04C2F02
:101EA00065E383E00E94FB0921E04C2F66EA81E0B4
:101EB0000E94FB0921E04C2F6CE985E00E94FB09A0
:101EC00021E04C2F6EEC86E00E94FB0921E04C2FB4
:101ED00060E087E00E94FB0921E04C2F6AE58BE07F
:101EE0000E94FB0921E04C2F60E089E00E94FB0981
:101EF00021E04C2F6CE38AE00E94FB0921E04C2F8B
:101F00006AE488E00E94FB0921E04C2F6CE38CE03E
:101F10000E94FB0921E04C2F60EB8DE0CF910C94E7
:101F2000FB09CF93C82F21E0482F66EF80E00E9485
:101F3000FB0921E04C2F65E584E00E94FB0921E0CC
:101F40004C2F60E082E00E94FB0921E04C2F65E30A
:101F500083E00E94FB0921E04C2F66EA81E00E94A9
:101F6000FB0921E04C2F60E085E00E94FB0921E0A5
:101F70004C2F68E286E00E94FB0921E04C2F60E0D4
:101F800087E00E94FB0921E04C2F6AE58BE00E946C
:101F9000FB0921E04C2F60E089E00E94FB0921E071
:101FA0004C2F6CE38AE00E94FB0921E04C2F6AE48D
:101FB00088E00E94FB0921E04C2F60E08CE00E9449
:101FC000FB0921E04C2F68EF8DE0CF910C94FB09C9
:101FD000CF93C82F21E0482F66EF80E00E94FB09D5
:101FE00021E04C2F69E684E00E94FB0921E04C2FA0
:101FF00063ED82E00E94FB0921E04C2F60E087E066
:102000000E94FB0921E04C2F63E78BE00E94FB0953
:1020100021E04C2F6CED89E0CF910C94FB0921E07D
:10202000482F67E38EE00C94FB09CF93C82F6AEE2C
:102030007FEF80E090E00E949205873344F464E0F3
:10204000680F21E04C2F8EE0CF910C94FB09CF91CB
:102050000895CF93C82F6AEE7FEF80E090E00E9452
:102060009205823F44F06CEF680F21E04C2F8EE028
:10207000CF910C94FB09CF91089521E0482F61EF97
:102080008EE00C94FB0921E0482F6AE08EE00C946E
:10209000FB09CF93C82F21E0482F66EF80E00E9414
:1020A000FB0921E04C2F69E684E00E94FB0921E056
:1020B0004C2F60E082E00E94FB0921E04C2F66EA91
:1020C00081E00E94FB0921E04C2F68EF83E00E9431
:1020D000FB0921E04C2F60E084E00E94FB0921E035
:1020E0004C2F6DE280E00E94FB0921E04C2F66EF4F
:1020F00080E00E94FB0921E04C2F6DE280E00E940D
:10210000FB0921E04C2F66EF80E00E94FB098C2F39
:102110000E940F108C2F0E943D108C2F0E944310A4
:1021200021E04C2F60E087E00E94FB0921E04C2F6A
:1021300063E78BE00E94FB0921E04C2F60E089E01F
:102140000E94FB0921E04C2F6CE488E00E94FB090F
:1021500021E04C2F60E08AE00E94FB0921E04C2F37
:1021600060E08BE0CF910C94FB09FF920F931F93DB
:10217000CF93DF93D82F64EE7FEF80E090E00E9452
:102180009205F82E65EE7FEF80E090E00E949205C8
:10219000082F66EE7FEF80E090E00E949205182FF6
:1021A00067EE7FEF80E090E00E949205C82F84E206
:1021B0008F153CF46CEF6F0D21E04D2F88E00E94ED
:1021C000FB0908323CF464E0600F21E04D2F89E008
:1021D0000E94FB091B303CF06DEF610F21E04D2F99
:1021E0008AE00E94FB091C1664F46DEF6C0F21E07D
:1021F0004D2F8BE0DF91CF911F910F91FF900C94A9
:10220000FB09DF91CF911F910F91FF900895FF92ED
:102210000F931F93CF93DF93D82F6DED7FEF80E067
:1022200090E00E949205F82E6EED7FEF80E090E046
:102230000E949205082F6FED7FEF80E090E00E94F2
:102240009205182F60EE7FEF80E090E00E949205EB
:10225000C82F8CEDF8163CF464E06F0D21E04D2F93
:1022600081E00E94FB0908323CF464E0600F21E049
:102270004D2F82E00E94FB091B303CF06DEF610F97
:1022800021E04D2F83E00E94FB091C1664F46DEFE2
:102290006C0F21E04D2F84E0DF91CF911F910F91C2
:1022A000FF900C94FB09DF91CF911F910F91FF904C
:1022B0000895FF920F931F93CF93DF93D82F64EE6F
:1022C0007FEF80E090E00E949205F82E65EE7FEFB0
:1022D00080E090E00E949205082F66EE7FEF80E09C
:1022E00090E00E949205182F67EE7FEF80E090E06B
:1022F0000E949205C82F83E68F153CF064E06F0DB5
:1023000021E04D2F88E00E94FB0908323CF464E094
:10231000600F21E04D2F89E00E94FB091B303CF04B
:102320006DEF610F21E04D2F8AE00E94FB091C1622
:1023300064F46DEF6C0F21E04D2F8BE0DF91CF91B6
:102340001F910F91FF900C94FB09DF91CF911F918A
:102350000F91FF900895FF920F931F93CF93DF93F8
:10236000D82F6DED7FEF80E090E00E949205F82E6F
:102370006EED7FEF80E090E00E949205082F6FEDF8
:102380007FEF80E090E00E949205182F60EE7FEFD3
:1023900080E090E00E949205C82F8DE9F8163CF08D
:1023A0006CEF6F0D21E04D2F81E00E94FB09083298
:1023B0003CF464E0600F21E04D2F82E00E94FB09B5
:1023C0001B303CF06DEF610F21E04D2F83E00E9448
:1023D000FB091C1664F46DEF6C0F21E04D2F84E0B7
:1023E000DF91CF911F910F91FF900C94FB09DF912A
:1023F000CF911F910F91FF900895CF93C82F6CED4F
:102400007FEF80E090E00E9492058D3744F465E014
:10241000680F21E04C2F80E0CF910C94FB09CF9105
:102420000895CF93C82F6CED7FEF80E090E00E947D
:102430009205873F44F06BEF680F21E04C2F80E05E
:10244000CF910C94FB09CF910895CF93C82F63EEE1
:102450007FEF80E090E00E9492058A3044F465E0CE
:10246000680F21E04C2F87E0CF910C94FB09CF91AE
:102470000895CF93C82F63EE7FEF80E090E00E9435
:102480009205843844F06BEF680F21E04C2F87E011
:10249000CF910C94FB09CF910895CF93C82F62EE92
:1024A0007FEF80E090E00E9492058C3344F465E079
:1024B000680F21E04C2F86E0CF910C94FB09CF915F
:1024C0000895CF93C82F62EE7FEF80E090E00E94E6
:1024D0009205803C44F06BEF680F21E04C2F86E0C2
:1024E000CF910C94FB09CF910895CF93C82F69EE3B
:1024F0007FEF80E090E00E9492058A3044F465E02E
:10250000680F21E04C2F8DE0CF910C94FB09CF9107
:102510000895CF93C82F69EE7FEF80E090E00E948E
:102520009205893844F06BEF680F21E04C2F8DE065
:10253000CF910C94FB09CF910895CF93C82F61EEF2
:102540007FEF80E090E00E9492058D3744F465E0D3
:10255000680F21E04C2F85E0CF910C94FB09CF91BF
:102560000895CF93C82F61EE7FEF80E090E00E9446
:102570009205843844F06BEF680F21E04C2F85E022
:10258000CF910C94FB09CF910895CF93C82F68EE9B
:102590007FEF80E090E00E9492058D3744F465E083
:1025A000680F21E04C2F8CE0CF910C94FB09CF9168
:1025B0000895CF93C82F68EE7FEF80E090E00E94EF
:1025C0009205843844F06BEF680F21E04C2F8CE0CB
:1025D000CF910C94FB09CF910895CF93C82F21E0A0
:1025E000482F60E087E00E94FB0921E04C2F6AE55C
:1025F0008BE00E94FB0921E04C2F60E089E00E9403
:10260000FB0921E04C2F60E08AE00E94FB0921E0F9
:102610004C2F64E688E00E94FB0921E04C2F68E71C
:1026200089E00E94FB0921E04C2F6CE38CE00E94C2
:10263000FB0921E04C2F60EB8DE0CF910C94FB095E
:10264000CF92DF92EF920F931F93CF93DF936C01A2
:10265000162FD42FC22F8FEF94E00E941F24C601A3
:102660000E944B248AE30E94112480E20E941124DC
:1026700086E095E00E941F24812F0E9432248AE385
:102680000E94112480E20E9411248EE095E00E94B5
:102690001F248D2F0E9432248AE30E94112480E29D
:1026A0000E94112484E195E00E941F248C2F0E9437
:1026B00032248AE30E94112480E20E9411248BE1DB
:1026C00095E00E941F24802F0E9432248AE30E94FA
:1026D000112480E20E94112481E295E00E941F24CF
:1026E0008E2D0E9432248DE00E9411248AE0DF9119
:1026F000CF911F910F91EF90DF90CF900C94112408
:102700004F925F926F927F928F929F92AF92BF9201
:10271000CF92DF92EF92FF92CF93DF9300D000D061
:10272000CDB7DEB720E030E048EC52E40E941C2A2E
:102730000E94D92A20E030E048EC52E40E946C2844
:102740006B017C0120E030E040E251E40E946C2803
:102750004B015C0120E030E040E452E40E94FB27A2
:102760000E94DE28862F0E941124C501B4010E9418
:102770004A292B013C0120E030E040E452E4C7014B
:10278000B6010E94FB274B015C0120E030E040E2F3
:1027900051E4C301B2010E941C2A9B01AC01C50196
:1027A000B4010E94FA270E94DE28862F0E9411247D
:1027B0008EE20E94112420E030E040E251E4C701A3
:1027C000B6010E941C2A4B015C01C701B6010E94A0
:1027D0004A292B013C0120E030E040E452E4C501ED
:1027E000B4010E94FB2769837A838B839C8320E05A
:1027F00030E040E251E4C301B2010E941C2A9B0177
:10280000AC0169817A818B819C810E94FA270E94A8
:10281000DE28862F0E941124C501B4010E944A2996
:102820004B015C0120E030E048EC52E4C701B60106
:102830000E941C2A20E030E040E452E40E94FB2782
:102840006B017C0120E030E040E251E4C501B401BD
:102850000E941C2A9B01AC01C701B6010E94FA2705
:102860000E94DE28862F0E9411248DEA99E10F90A4
:102870000F900F900F90DF91CF91FF90EF90DF902E
:10288000CF90BF90AF909F908F907F906F905F9010
:102890004F900C941F240F931F93CF93DF938C01C1
:1028A000EB0187E295E00E941F248BE395E00E94F4
:1028B0001F24C8010E944B2480E20E9411248AE355
:1028C0000E94112480E20E94112484E495E00E9479
:1028D0001F24CE010E944B248CED96E1DF91CF9115
:1028E0001F910F910C941F24FC0140E050E0A6E0E2
:1028F000B8E04617570788F420E030E02E173F076E
:1029000031F08A2F8A95F1F72F5F3F4FF7CF95B1BE
:102910009B2795B94E0F5F1FECCF08956091000182
:102920007091010183E194E00E94741460910001B0
:102930007091010181EA93E00E947414609100019A
:102940007091010189E492E00E9474140E94B20720
:102950000E94BD078CE495E00E9419088BE595E084
:102960000E94190889E695E00E941F248CE995E0F1
:102970000E941F2480ED95E00E941F248CE995E0C1
:102980000E941F2487E096E00E941F248CE296E0BC
:102990000E941F2482E696E00E941F2480E996E0B0
:1029A0000E941F2486EC96E00E941F2481E097E09D
:1029B0000E941F248EE297E00E941F2481E597E089
:1029C0000E941F2482E897E00E941F248CE995E072
:1029D0000E941F2483EA97E00E941F248CE995E05F
:1029E0000E941F2481EE97E00E941F2483E098E05C
:1029F0000E941F248DE298E00E941F248BE498E03F
:102A00000E941F248AE698E00E941F248CE995E02A
:102A10000E941F248AE898E00E941F248CE995E018
:102A20000E941F2489EC98E00E941F2487EE98E002
:102A30000E941F2486E099E00E941F2482E299E010
:102A40000E941F2484E499E00E941F2482E699E0FA
:102A50000E941F2488E899E00E941F248EEA99E0D2
:102A60000E941F248CE995E00E941F2488EE99E0C3
:102A70000E941F248CE995E00E941F2487E29AE0BF
:102A80000E941F2482E69AE00E941F2483ED9AE0B0
:102A90000E941F2484E49BE00E941F248EE69BE09A
:102AA0000E941F2481E99BE00E941F248AEB9BE087
:102AB0000E941F2483EE9BE00E941F2486E19CE07D
:102AC0000E941F2489E49CE00E941F2488E79CE068
:102AD0000E941F2487EA9CE00E941F2486ED9CE050
:102AE0000E941F2485E09DE00E941F2484E39DE056
:102AF0000E941F2480E69DE00E941F248DE89DE037
:102B00000E941F248AEB9DE00E941F2488EE9DE016
:102B10000E941F2489E29EE00E941F248AE69EE014
:102B20000E941F248BEA9EE00E941F248CE995E0FE
:102B30000E941F248CEE9EE00E941F248CE995E0E9
:102B40000E941F248BE29FE00E941F2480E69FE0EA
:102B50000E941F2485E99FE00E941F248AEC9FE0C9
:102B60000E941F248FEF9FE00E941F2486E390E1C4
:102B70000E941F248DE690E10E941F2484EA90E1C8
:102B80000E941F248BED90E10C941F24809106017C
:102B90008F5F80930601809106018D3058F010926E
:102BA0000601809107019091080101969093080118
:102BB000809307010895809105018F5F809305013F
:102BC00080910501803220F0109205010C94C61509
:102BD0000895809104018F5F809304018091040126
:102BE000883120F0109204010E94DB1560910001F1
:102BF0007091010180ED91E00E94741488EE93E0E1
:102C000024EF31E0F9013197F1F70197D9F760919D
:102C10000001709101018DE093E00E94741488EE30
:102C200093E024EF31E0F9013197F1F70197D9F7FB
:102C300060910001709101018DE093E00E94741495
:102C400088EE93E024EF31E0F9013197F1F7019735
:102C5000D9F7609100017091010180ED91E00E942F
:102C6000741488EE93E024EF31E0F9013197F1F725
:102C70000197D9F7609100017091010180ED91E019
:102C80000C947414CF92DF92EF92FF928091030123
:102C90008F5F80930301809103018C3320F01092A9
:102CA00003010E94E9150E94B20760910001709132
:102CB000010189E492E00E94741488EE93E024EF0D
:102CC00031E0F9013197F1F70197D9F760910001EF
:102CD0007091010188ED93E00E94741488EE93E0F6
:102CE00024EF31E0F9013197F1F70197D9F76091BD
:102CF00000017091010188ED93E00E9474140E941C
:102D00004E05BC0180E090E00E940D2922E630E1F2
:102D100040E450E40E941C2A26EB33EF41EA50E4E1
:102D20000E941C2A20E030E040E859E30E941C2A5F
:102D30006093131E7093141E8093151E9093161E9D
:102D40008AE191E10E941F246091131E7091141E6C
:102D50008091151E9091161E0E9480138091161E60
:102D60008F938091151E8F938091141E8F93809165
:102D7000131E8F9388E391E19F938F938DE49EE1DF
:102D80009F938F930E94BF2D0E94B2070E94BD07A0
:102D90008EE391E10E9419088DE49EE10E941908DA
:102DA00087E491E10E9419080E9436060E94740689
:102DB0008093031E2DB73EB7285F3F4F0FB6F894A0
:102DC0003EBF0FBE2DBF80FD11C081E792E00E9483
:102DD0001F240E94D6069093021E8093011E0E941B
:102DE0004B248DEA99E10E941F2408C08BE491E1F5
:102DF0000E941F240E9474068093031E8091021E6D
:102E00008F938091011E8F938FE591E19F938F9314
:102E100087E79EE19F938F930E94BF2D82E691E109
:102E20000E94190887E79EE10E9419088AE691E14D
:102E30000E941908C090131ED090141EE090151E19
:102E4000F090161E0F900F900F900F900F900F9014
:102E500020E030E040E751E4C701B6010E94172AA4
:102E600087FD03C080EF9FEF36C020E030E040E6F2
:102E700051E4C701B6010E94172A87FD03C080EE06
:102E80009FEF29C020E030E040E551E4C701B601E2
:102E90000E94172A87FD03C083EC9FEF1CC020E02F
:102EA00030E040E251E4C701B6010E94172A87FDD5
:102EB00003C087EC9FE30FC020E030E040E251E424
:102EC000C701B6010E94672887FF03C08FE99FEB07
:102ED00002C08FE79FE3FF90EF90DF90CF900C94BC
:102EE000B523809102018F5F8093020180910201DE
:102EF0008C3320F0109202010E9442166091000172
:102F0000709101018DE693E00E94741484EF91E0CA
:102F100024EF31E0F9013197F1F70197D9F760918A
:102F20000001709101018DE093E00C94741486B15E
:102F300082FB882780F98093461E86B183FB882711
:102F400080F98093251E8091461E811113C08091C7
:102F5000251E882331F08091491E90914A1E0196CA
:102F600005C08091491E90914A1E019790934A1E78
:102F70008093491E089586B1829581708093241EA6
:102F800086B185FB882780F980931A1E8091241EC4
:102F9000811113C080911A1E811106C080912D1ECF
:102FA00090912E1E019605C080912D1E90912E1E8F
:102FB000019790932E1E80932D1E08950E94B207B4
:102FC0000E94BD078DE691E10E9419086091000101
:102FD0007091010186EB91E00E94741484EF91E0FE
:102FE00024EF31E0F9013197F1F70197D9F76091BA
:102FF00000017091010186EB91E00E94741484EF4E
:1030000091E024EF31E0F9013197F1F70197D9F719
:10301000609100017091010186EB91E00E947414AF
:1030200080E197E224EF31E0F9013197F1F7019760
:10303000D9F789E791E10E941F248BE991E10E9471
:103040001F248FEB91E10E941F2460910001709179
:10305000010186EB91E00E94741489ED91E10E94D8
:103060001F240E94B2070E94BD0789EE91E10E94D1
:1030700019080E945A258093060160910001709101
:10308000010186EB91E00E94741481EF91E10E94AE
:103090001F240E94B2070E94BD078FEF91E10E949A
:1030A00019080E945A2580930501609100017091D2
:1030B000010186EB91E00E94741485E092E10E9488
:1030C0001F240E94B2070E94BD0784E192E10E9482
:1030D00019080E945A2580930401609100017091A3
:1030E000010186EB91E00E9474148BE192E10E9451
:1030F0001F240E94B2070E94BD078DE292E10E9448
:1031000019080E945A258093030160910001709173
:10311000010186EB91E00E94741487E392E10E9422
:103120001F240E94B2070E94BD0789E492E10E9419
:103130001908609100017091010186EB91E00E94F5
:1031400074140E945A2580930201609100017091CD
:10315000010186EB91E00E9474141092071E1092F8
:10316000061E8DEA99E10E941F2483E592E10E94E8
:103170001F2486E892E10E941F240E94B2070E9449
:10318000BD0780EA92E10E94190888E99AE324EFDA
:1031900031E0F9013197F1F70197D9F70C94B207B3
:1031A0000E94B2070E94BD0788EA92E10E941908B6
:1031B00089EB92E10E941908609100017091010170
:1031C00083E194E00E947414609100017091010108
:1031D00081EA93E00E9474146091000170910101F2
:1031E00089E492E00E94741489E791E10E941F240F
:1031F0008BE991E10E941F2481EC92E10E941F243F
:103200008BEF92E10E941F2480E197E224EF31E0EE
:10321000F9013197F1F70197D9F70E94B2070E949F
:10322000BD078BE193E10E9419080E945A25809303
:103230000E01609100017091010186EB91E00E9406
:10324000741486E293E10E941F240E94B2070E9438
:10325000BD0782E593E10E9419080E945A258093D8
:103260000F01609100017091010186EB91E00E94D5
:1032700074148EE593E10E941F2480E197E224EF0D
:1032800031E0F9013197F1F70197D9F70E94B207C0
:103290000E94BD078FE793E10E9419080E945A25FA
:1032A00080930B01609100017091010186EB91E028
:1032B0000E9474148CE893E10E941F2480E197E23D
:1032C00024EF31E0F9013197F1F70197D9F70E9426
:1032D000B2070E94BD0782EB93E10E9419080E9489
:1032E0005A2580930D01609100017091010186EBD8
:1032F00091E00E94741481EC93E10E941F2480E10C
:1033000097E224EF31E0F9013197F1F70197D9F70E
:103310000E94B2070E94BD078CEE93E10E9419083B
:1033200082E593E10E9419080E945A2580930C01BE
:10333000609100017091010186EB91E00E9474148C
:103340008DEF93E10E941F2480E197E224EF31E0AA
:10335000F9013197F1F70197D9F70E94B2070E945E
:10336000BD078EE194E10E9419080E945A258093BE
:103370000A01609100017091010186EB91E00E94C9
:1033800074148BE294E10E941F2480E197E224EF01
:1033900031E0F9013197F1F70197D9F70E94B207AF
:1033A0000E94BD078AE594E10E9419088BE694E12A
:1033B0000E9419080E945A2580930901609100011A
:1033C0007091010186EB91E00E9474148CE794E106
:1033D0000E941F248AEB94E10E941F240E94B207DE
:1033E0000E94BD0785ED94E10E94190880EA92E1F0
:1033F0000E94190888E99AE324EF31E0F901319736
:10340000F1F70197D9F70C94B2070E94B2070E9416
:10341000BD0786EE94E10E94190887EF94E10E94AF
:103420001908609100017091010183E194E00E940C
:103430007414609100017091010181EA93E00E948F
:103440007414609100017091010189E492E00E947E
:10345000741489E791E10E941F248BE991E10E9495
:103460001F2483E095E10E941F2460910001709168
:10347000010186EB91E00E94741488E295E10E94BC
:103480001F24609100017091010186EB91E00E9480
:10349000741487E495E10E941F240E9418248093ED
:1034A000281E609100017091010186EB91E00E945D
:1034B00074148091281E893709F0A8C084E695E12C
:1034C0000E941F248AE895E10E941F246091000158
:1034D0007091010186EB91E00E9474140E94D62540
:1034E0007093051E6093041E8CEB95E10E941F24CF
:1034F0008091041E9091051E0E944B248DEA99E153
:103500000E941F240E94B2070E94BD078CEC95E127
:103510000E9419081092881E1092891E10928A1E0D
:1035200010928B1E1092841E1092851E1092861E81
:103530001092871E1092291E10922A1E10922B1E86
:1035400010922C1E8091041E9091051EA0E0B0E008
:103550004091291E50912A1E60912B1E70912C1EA5
:1035600084179507A607B70708F444C00E94AC2645
:103570004091841E5091851E6091861E7091871E19
:103580008091881E9091891EA0918A1EB0918B1EF9
:10359000840F951FA61FB71F8093841E9093851ECE
:1035A000A093861EB093871E8EED95E10E941F2486
:1035B0006091841E7091851E8091861E9091871E59
:1035C0000E9486248DEA99E10E941F248091291E81
:1035D00090912A1EA0912B1EB0912C1E0196A11D28
:1035E000B11D8093291E90932A1EA0932B1EB09389
:1035F0002C1EA8CF8BEE95E10E941F240E94B207DB
:103600000E94BD078CE096E10C94190860910001BE
:103610007091010186EB91E00E9474148CE196E1B7
:103620000C941F24609100017091010183E194E0EA
:103630000E947414609100017091010181EA93E08D
:103640000E947414609100017091010189E492E07C
:103650000E9474140E94B2070E94BD0781E496E1A3
:103660000E94190880E596E10E941F2480E796E1F8
:103670000E941F2482E996E10E941F2484EB96E1B8
:103680000E941F241092301E10922F1E80912F1E18
:103690009091301EC39740F58BED96E10E941F2458
:1036A00080912F1E0E9432248AED96E10E941F24F1
:1036B00060912F1E7091301E80E090E00E94920574
:1036C0000E9432248AED96E10E941F248DEA99E13E
:1036D0000E941F2480912F1E9091301E019690937E
:1036E000301E80932F1ED2CF8EED96E10E941F24B4
:1036F00086E097E10E941F240E941824853601F17C
:10370000873739F587E997E10E941F240E945A25DF
:103710008093191E85ED97E10E941F240E945A256F
:10372000482F90E09093301E80932F1E6091191EB9
:1037300070E080E090E00E94AA058DEA99E10BC05C
:1037400084E397E10E941F240E9411068AE797E113
:1037500002C082E198E10C941F24EF92FF920F9334
:103760001F93CF93DF9362E070E080E090E00E94CF
:10377000C90590934C1E80934B1E0E94BD070E946A
:10378000B20789E298E10E9419081F9285E08F93A1
:1037900088EB92E09F938F930E9445088AE398E11B
:1037A0000E941F2485E00E94322480E598E10E9457
:1037B0001F240F900F900F900F9080E090E0DC019D
:1037C00044EF51E085309105A105B10561F020E19C
:1037D00037E2FA013197F1F721503109D1F701961B
:1037E000A11DB11DEFCF8093291E90932A1EA09397
:1037F0002B1EB0932C1E8091C00087FF10C08091BB
:10380000C6008D3661F481E08093481EC0E0D0E0B0
:103810000CE310E094EFE92EFF24F39406C010921D
:10382000481EC0E0D0E00AC12C9A8091481E88232F
:1038300009F404C18FE698E10E941F240E94B20798
:103840000E94BD0783EA98E10E94190860E070E0D9
:10385000CB010E94C905A0E0B0E080931F1E9093A9
:10386000201EA093211EB093221E8CE892E00E949D
:103870001F2480911F1E9091201E04970E944B24AC
:1038800088EB98E10E941F248CE892E00E941F249C
:1038900080914B1E90914C1E0E944B248EEC98E11F
:1038A0000E941F248DEE98E10E941F2481E199E17E
:1038B0000E941F2486E399E10E941F248BE599E171
:1038C0000E941F248FE799E10E941F2486E999E155
:1038D0000E941F240E9418248F3309F46AC038F410
:1038E0008C3309F44BC08E3309F453C0A2C0853623
:1038F00009F466C0833709F47BC0843609F099C0A7
:103900002C9883E00E947A0564E070E080E090E00B
:103910000E947F0584E090E0A0E0B0E08093291E43
:1039200090932A1EA0932B1EB0932C1E4091291E0B
:1039300050912A1E60912B1E70912C1E80911F1E8B
:103940009091201EA091211EB091221E4817590768
:103950006A077B0708F068CF80E00E947A058EB581
:103960000E945D098091291E90912A1EA0912B1E14
:10397000B0912C1E0196A11DB11DD0CF40914B1EC0
:1039800050914C1E4A30510508F44FCF4550510913
:103990000BC040914B1E50914C1E483E8DEF580776
:1039A00008F043CF4B5F5F4F50934C1E40934B1E2C
:1039B00018C010934C1E00934B1E4CE350E011C0F6
:1039C00080EB99E10E941F240E94110644E050E020
:1039D00060E070E0CB010E94F00540914B1E5091D9
:1039E0004C1E62E070E080E090E00E94F0051DCF88
:1039F00080EE99E10E941F240E947E25EC018DEA51
:103A000099E10E941F248DEF99E10E941F240E94DA
:103A1000B2070E94BD0784E19AE10E94190880E282
:103A20009EE4F7013197F1F70197D9F71092481EFC
:103A3000FCCE83E29AE10E941F24F7CE0E94B207D7
:103A40000E94BD0700E010E084EFE82EFF24F3940D
:103A500060E070E0CB010E94C905A0E0B0E0809377
:103A60001F1E9093201EA093211EB093221E0E9421
:103A7000460780E90E945F0780E00E945F070E947E
:103A8000460781E90E945F070E944F078093471E07
:103A90000E9457078093231E0E944B070E944607EF
:103AA00080E90E945F0780E00E945F070E9446074E
:103AB00081E90E945F070E944F078093471E0E9482
:103AC00057078093231E0E944B078091471E982F13
:103AD000990F8091231E881F8827881F892B809328
:103AE000451E0E945D0960911F1E7091201E8091ED
:103AF000211E9091221E4091451E0E94AA054091D0
:103B00001F1E5091201E6091211E7091221E4F3F5A
:103B10008FEF580761057105E0F00F5F1F4FC01769
:103B2000D10708F095CF84E49AE10E941F240E94F7
:103B3000B2070E94BD078EE59AE10E9419088FE640
:103B40009AE1DF91CF911F910F91FF90EF900C942C
:103B500019084F5F5F4F6F4F7F4F40931F1E509369
:103B6000201E6093211E7093221E60E070E0CB0146
:103B70000E94F00540914B1E50914C1E60E070E099
:103B800080E090E0DC0184179507A607B70760F492
:103B900020E137E2F7013197F1F721503109D1F7F0
:103BA0000196A11DB11DEFCF8093291E90932A1E6F
:103BB000A0932B1EB0932C1EB0CF0E94B2070E9480
:103BC000BD078AE79AE10E94190884E00E94360541
:103BD0009093181E8093171E8AE89AE10E941F2472
:103BE0008091751E9091761E0E944B248CED96E17B
:103BF0000E941F2486E00E9436059093761E8093D3
:103C0000751E8BE99AE10E941F248091171E9091E6
:103C1000181E0E944B248091171E9091181E0E941E
:103C2000C8239B01AC01CB01DA0180931B1E90934A
:103C30001C1EA0931D1EB0931E1E5F934F933F93B7
:103C40002F9388E391E19F938F9381E39EE19F936C
:103C50008F930E94BF2D8AEB9AE10E941F2481E37B
:103C60009EE10E941F248DB79EB708960FB6F89468
:103C70009EBF0FBE8DBF8DE29DE10C941F24EF927D
:103C80000F930E94B2070E94BD078CEC9AE10E943C
:103C900019089BB184E089278BB984E00E9436051E
:103CA0009093181E8093171E8AE89AE10E941F24A1
:103CB0008091751E9091761E0E944B248CED96E1AA
:103CC0000E941F2486E00E9436059093761E809302
:103CD000751E8BE99AE10E941F248091171E909116
:103CE000181E0E944B248091171E9091181E0E944E
:103CF000C8239B01AC01CB01DA0180931B1E90937A
:103D00001C1EA0931D1EB0931E1E5F934F933F93E6
:103D10002F9388E391E19F938F9381E39EE19F939B
:103D20008F930E94BF2D8AEB9AE10E941F2481E3AA
:103D30009EE10E941F248DE29DE10E941F240E94AB
:103D40000C2460912D1E70912E1E8091491E909121
:103D50004A1E0E944B148CED96E10E941F24E090B5
:103D6000020100910301209104014091050160913D
:103D7000060180910701909108010E9420138DB7E0
:103D80009EB708960FB6F8949EBF0FBE8DBF8DE20A
:103D90009DE10F91EF900C941F248091C00087FF4C
:103DA00007C1E091C6008E2F90E0FC01B397E43587
:103DB000F10508F0E7C0EA5BFF4F0C94CF270C94A5
:103DC000DE170C94D01860910E018AEA92E004C0CC
:103DD00060910E0187E992E00C94A30960910E01B5
:103DE00085EA92E0F9CF60910E018FE992E0F4CF7D
:103DF00060E083EB92E00E94A309D8C06FEF80914E
:103E00000F0104C080910F016FEF81950C94E8239E
:103E100086E20C94151080910B010C94431086E2FD
:103E20000C9429108FEF9FEF0E94B5238DED9AE13E
:103E30009AC080E090E00E94B52382EF9AE193C09F
:103E40000C94D60C80910D010C94270D80910D01DE
:103E50000C947E0D80910D010C94AB0D80910D01A1
:103E60000C942F0E80910D010C945C0E80910D012D
:103E70000C94E00E80910D010C940D0F80910D01BA
:103E80000C94D80D80910D010C94890E80910D0138
:103E90000C943A0F80910D010C94910F80910D01BB
:103EA0000C94E80F80910D010C94491080910A0147
:103EB0000C94891280910A010C94751280910A0168
:103EC0000C94611280910A010C944D1280910901A9
:103ED0000C94C512809109010C94D91280910901AA
:103EE0000C949D12809109010C94B1128EE10C94F6
:103EF000ED1280910C010C94251280910C010C9410
:103F0000391280910C010C94FD1180910C010C94DC
:103F1000111283E20C94B51083E20C94591183E2E0
:103F20000C94071183E20C94AB110C94051A0C94B9
:103F3000AD1B0C94121B0C94DD1D0E9436060E94D2
:103F400074068093031E80FD10C081E792E00E94FA
:103F50001F240E94D6069093021E8093011E0E9489
:103F60004B248DEA99E10C941F248BE491E10E948B
:103F70001F240E9474068093031E08950C943F1E14
:103F80000C948E1488E09BE10E941F246091000134
:103F90007091010186EB91E00E9474146091000120
:103FA000709101018EE991E00E9474140C940C242C
:103FB00008951F920F920FB60F9211248F939F9323
:103FC0008091061E9091071E01969093071E809384
:103FD000061E9F918F910F900FBE0F901F90189506
:103FE0001F920F920FB60F9211240BB60F928F9360
:103FF0009F93EF93FF93E0910E1E80911001E80FC5
:10400000E770E0930E1EF0E0E054F24E808185B937
:10401000E0910E1EF0E0E054F24E808188B980916C
:104020000C1E90910D1E019690930D1E80930C1EF8
:10403000FF91EF919F918F910F900BBE0F900FBE4C
:104040000F901F9018951F920F920FB60F92112488
:104050000BB60F922F933F934F935F936F937F9382
:104060008F939F93AF93BF93EF93FF930E94971704
:104070000E94BB17FF91EF91BF91AF919F918F91DC
:104080007F916F915F914F913F912F910F900BBE58
:104090000F900FBE0F901F90189518950E949209CF
:1040A0008DE29BE10E941F240E946B0580E59BE14D
:1040B0000E941F240E94350782E79BE10E941F2473
:1040C0000E94C40785E99BE10E941F2484B5826099
:1040D00084BD85B5856085BD8FEF87BD87EB9BE18E
:1040E0000E941F24809180008160809380008091D5
:1040F000810083608093810080918000806A80933A
:10410000800080916F00816080936F008DED9BE156
:104110000E941F248091B00081608093B000809144
:10412000B10084608093B1008091B000806A809378
:10413000B00083E09CE10E941F2480919100816087
:104140008093910089E29CE10E941F2480917C0071
:10415000806480937C0080917A00866080937A00EE
:1041600080917A00806880937A008FE49CE10E94BD
:104170001F248091680084608093680080916D00A6
:10418000846080936D0081E79CE10E941F240E945F
:104190002C0580917E00806F80937E0088B18C63B7
:1041A00088B981B1836081B981B18C6081B984B1F2
:1041B000836084B987B1806C87B9239A529A7894C6
:1041C00084E99CE10E941F2487EC9CE10E941F244B
:1041D0008BEF9CE10E941F2489E695E00E941F243A
:1041E0008CE995E00E941F2480ED95E00E941F2439
:1041F0008CE995E00E941F2487E096E00E941F242E
:104200008CE296E00E941F2482E696E00E941F2422
:1042100080E996E00E941F2486EC96E00E941F240D
:1042200081E097E00E941F248EE297E00E941F2405
:1042300081E597E00E941F2482E897E00E941F24F6
:104240008CE995E00E941F2483EA97E00E941F24D6
:104250008CE995E00E941F2481EE97E00E941F24C4
:1042600083E098E00E941F248DE298E00E941F24C2
:104270008BE498E00E941F248AE698E00E941F24A5
:104280008CE995E00E941F248AE898E00E941F2490
:104290008CE995E00E941F2489EC98E00E941F247D
:1042A00087EE98E00E941F2486E099E00E941F2478
:1042B00082E299E00E941F2484E499E00E941F2476
:1042C00082E699E00E941F2488E899E00E941F245A
:1042D0008EEA99E00E941F248CE995E00E941F2439
:1042E00088EE99E00E941F248CE995E00E941F242B
:1042F00087E29AE00E941F2482E69AE00E941F242F
:1043000083ED9AE00E941F2484E49BE00E941F2416
:104310008EE69BE00E941F2481E99BE00E941F24FF
:104320008AEB9BE00E941F2483EE9BE00E941F24E7
:1043300086E19CE00E941F2489E49CE00E941F24E7
:1043400088E79CE00E941F2487EA9CE00E941F24CB
:1043500086ED9CE00E941F2485E09DE00E941F24C2
:1043600084E39DE00E941F2480E69DE00E941F24BC
:104370008DE89DE00E941F248AEB9DE00E941F248F
:1043800088EE9DE00E941F2489E29EE00E941F2487
:104390008AE69EE00E941F248BEA9EE00E941F2472
:1043A0008CE995E00E941F248CEE9EE00E941F2461
:1043B0008CE995E00E941F248BE29FE00E941F245D
:1043C00080E69FE00E941F2485E99FE00E941F2451
:1043D0008AEC9FE00E941F248FEF9FE00E941F2421
:1043E00086E390E10E941F248DE690E10E941F2445
:1043F00084EA90E10E941F248BED90E10E941F242B
:1044000081E39DE10E941F240E9446070E94C40789
:104410008CE9E82E8DE1F82EC0EBDDE1870194EF09
:10442000C92EDD24D3940E94BD0788E49DE10E943B
:10443000190889E59DE10E94190880E090E00E943A
:10444000B5236091000170910101F8018191919172
:104450008F010E94741484EF91E0F6013197F1F717
:104460000197D9F7C017D107F1F60E94B20700E50E
:1044700013EC0E94BD0789E69DE10E9419088FEFA9
:104480009FEF0E94B5236091000170910101888126
:1044900099810E947414C8010197F1F72297EC16D4
:1044A000FD0639F70E94B207CCE0D0E004EF11E03E
:1044B0000E94BD0789E79DE10E9419088AE89DE1F5
:1044C0000E94190880E090E00E94B52360910001ED
:1044D0007091010188ED93E00E94741488EE93E0DE
:1044E000F8013197F1F70197D9F7609100017091C8
:1044F00001018DE693E00E9474148FEF9FEF0E94FC
:10450000B5232197A9F60E94B2070E944B07C0E588
:10451000D0E008EB18E8BE010D2E000C880B990BBB
:104520000E940F29AB01BC0180E00E943223C80128
:104530000197F1F72196CE3BD10569F762E370E070
:1045400080EA0E94B92221E042E36AE08EE00E9404
:10455000FB098091061E9091071E843C944031F423
:104560001092071E1092061E0E9471170E94CD1E07
:10457000F0CFEF92FF921F93CF93DF931F92CDB7AF
:10458000DEB7182F7B017093831E6093821E809389
:10459000811E0E944607812F0E945F0780E00E94D3
:1045A0005F0781E30E945F070E944B07B70180E02D
:1045B00090E00E940D2920E030E040E855E40E94A0
:1045C0001C2A2FE135E84BE65FE30E941C2A9B0181
:1045D000AC0160E27CEB8EEB9BE40E946C2820E057
:1045E00030E040E85FE30E94FA270E94DE286983FA
:1045F0000E944607812F0E945F078EEF0E945F078F
:1046000089810E945F070E944B0787E893E1019729
:10461000F1F700C000000E944607812F0E945F074B
:1046200080E00E945F0781EA0E945F070E944B07BB
:1046300087E893E10197F1F700C000000E94460768
:10464000812F0E945F0781E00E945F0784E00E9443
:104650005F070E944B070F90DF91CF911F91FF9052
:10466000EF900895CF92DF92EF92FF92CF93C82FF1
:104670006A017B0120E030E04AEF52E4C701B60155
:104680000E94172A18168CF020E030E04AEF52EC16
:10469000C701B6010E94672887FF0DC0C12CD12C2D
:1046A0009AEFE92E92ECF92E06C0C12CD12C8AEF9C
:1046B000E82E82E4F82E25E535E545ED50E4C70106
:1046C000B6010E941C2A20E030E84BEB54E40E9423
:1046D000FB270E94DE2880E090E00E940D296B01FC
:1046E0007C016091821E7091831E80E090E00E94A8
:1046F0000D299B01AC0160E074E284E799E40E941B
:104700006C280E94DE2880E090E00E940D299B0129
:10471000AC01C701B6010E946C2820E030E040E8FF
:1047200055E40E941C2A0E94DE287B010E94460755
:104730008091811E0E945F078C2F880F880F8A5FEF
:104740000E945F0780E00E945F0780E00E945F0791
:104750008E2D0E945F078F2D0E945F07CF91FF90E3
:10476000EF90DF90CF900C944B07CF93DF93D82F2F
:10477000C92F0E94460780E40E945F078D2F0E9488
:104780005F078C2F0E945F07DF91CF910C944B073E
:10479000BC0180E090E00E940D2929E23CE54FE653
:1047A0005FEB0E94892A22E538E646E256E40E9441
:1047B0001C2A20E030E040E251E40E94FA27609396
:1047C000081E7093091E80930A1E90930B1E089575
:1047D000181624F492E09093100104C09EEF909379
:1047E0001001819567BD10920D1E10920C1E9091C4
:1047F0006E00926090936E00082E000C990B209131
:104800000C1E30910D1E82179307C9F780916E0020
:104810008D7F80936E000895289829984698479830
:1048200008959091C00095FFFCCF8093C600089535
:104830008091C00087FFFCCF8091C60008950F9340
:104840001F93CF938C01C0E0F801EC0FF11D808124
:10485000882321F00E941124CF5FF6CFCF911F91C2
:104860000F910895CF93C82F64E60E948D27805D35
:104870000E9411242AE08C2F622F0E948D27C92FBD
:104880000E948D2780E3890F0E94112480E38C0F02
:10489000CF910C9411240F931F93CF93DF938C012E
:1048A00060E177E20E94992780E3860F0E9411243D
:1048B000C80168EE73E00E949927CB01CAE0D0E0FE
:1048C000BE010E949927805D0E941124C80164E600
:1048D00070E00E949927CB01BE010E949927805D5C
:1048E0000E941124C801BE010E949927182FCB01F4
:1048F000BE010E949927805D0E94112480E3810FF0
:10490000DF91CF911F910F910C9411248F929F9260
:10491000AF92BF92CF92DF92EF92FF92CF934B0173
:104920005C0120E03AEC4AE95BE30E94AD2780E3BA
:10493000820F0E941124C501B40120E031EE45EF41
:1049400055E00E94AD278AE0C82ED12CE12CF12C35
:10495000CA01B901A70196010E94AD2780E3860F25
:104960000E941124C501B40120E836E948E950E06D
:104970000E94AD27CA01B901A70196010E94AD2787
:1049800080E3860F0E941124C501B40120E432E4C3
:104990004FE050E00E94AD27CA01B901A70196017E
:1049A0000E94AD2780E3860F0E941124C501B40147
:1049B00020EA36E841E050E00E94AD27CA01B90183
:1049C000A70196010E94AD2780E3860F0E94112463
:1049D000C501B40120E137E240E050E00E94AD277C
:1049E000CA01B901A70196010E94AD2780E3860F95
:1049F0000E941124C501B40128EE33E040E050E0EC
:104A00000E94AD27CA01B901A70196010E94AD27F6
:104A100080E3860F0E941124C501B40124E630E032
:104A200040E050E00E94AD27CA01B901A7019601FC
:104A30000E94AD2780E3860F0E941124C501B401B6
:104A4000A70196010E94AD27C62FCA01B901A7018F
:104A500096010E94AD2780E3860F0E94112480E317
:104A60008C0FCF91FF90EF90DF90CF90BF90AF90E1
:104A70009F908F900C9411241F93CF93DF931F92DC
:104A8000CDB7DEB7898317E0898190E0012E02C09F
:104A9000959587950A94E2F780FF02C081E301C0F3
:104AA00080E30E941124115078F70F90DF91CF918D
:104AB0001F9108950F931F93CF93DF93D0E3C0E32B
:104AC00010E30E941824082F0E9411240D3021F0B9
:104AD0001C2FCD2FD02FF5CF1053D05384E6189F25
:104AE000D00D1124CC0FC0568C2F880F880F8C0F3F
:104AF0008D0FDF91CF911F910F910895EF92FF924B
:104B00000F931F93CF93DF9300E3C0E3D0E310E351
:104B100080E3F82E0E941824E82E0E9411248DE0D4
:104B2000E81631F0F12E1D2FDC2FC02F0E2DF2CF05
:104B30002F2D30E02053310980E197E2289FA0011A
:104B4000299F500D389F500D1124212F30E0205304
:104B5000310968EE73E0269FC001279F900D369FB4
:104B6000900D1124840F951F2D2F30E02053310913
:104B700064E6629FA001639F500D1124840F951F6E
:104B80002C2F30E0205331096AE0629FA001639F1F
:104B9000500D1124840F951F800F911DC097DF9138
:104BA000CF911F910F91FF90EF9008957F928F9278
:104BB0009F92AF92BF92CF92DF92EF92FF920F93AC
:104BC0001F93CF93DF93D0E3C0E310E300E380E3D0
:104BD000F82E90E3E92E20E3D22E30E3C32E40E3FB
:104BE000742E50E3B52E0E941824A82E0E94112482
:104BF0008DE0A81659F0B72C7C2CCD2CDE2CEF2C98
:104C0000F02E012F1C2FCD2FDA2DEDCFAB2DB0E0E4
:104C1000D09720E03AEC4AE95BE30E94D8274B01A9
:104C20005C01A72DB0E0D09720E031EE45EF55E0D4
:104C30000E94D827860E971EA81EB91EAC2DB0E084
:104C4000D09720E836E948E950E00E94D827860E40
:104C5000971EA81EB91EAD2DB0E0D09720E432E417
:104C60004FE050E00E94D827860E971EA81EB91E5E
:104C7000AE2DB0E0D09720EA36E841E050E00E9447
:104C8000D827860E971EA81EB91E8F2D90E0C097BC
:104C900040E157E2849F9001859F300D949F300D35
:104CA0001124C901330FAA0BBB0B880E991EAA1E33
:104CB000BB1E802F90E0C09728EE33E0829FA001BA
:104CC000839F500D929F500D1124CA01550FAA0BBE
:104CD000BB0BB501A401480F591F6A1F7B1F812F11
:104CE00090E0C09724E6289F4001299F900C112452
:104CF000C401990CAA0BBB0B4A015B01880E991EDB
:104D0000AA1EBB1E2C2F30E0205331094AE0429FDF
:104D1000C001439F900D1124092E000CAA0BBB0B60
:104D2000880D991DAA1DBB1D8D0F911DA11DB11DC3
:104D3000BC01CD016053710981099109DF91CF91C7
:104D40001F910F91FF90EF90DF90CF90BF90AF90A9
:104D50009F908F907F9008951092950010929400EC
:104D60001092881E1092891E10928A1E10928B1E1D
:104D700085E00E94360590938D1E80938C1E2091B5
:104D8000160130911701A90148505109B4E0569518
:104D90004795BA95E1F7241B350BB901680F791FC8
:104DA0007093170160931601FB0124E0F695E795D7
:104DB0002A95E1F7E817F907A0F420911401309142
:104DC0001501A90148505109A4E056954795AA95A7
:104DD000E1F7241B350B280F391F30931501209361
:104DE00014018E179F07A0F4209112013091130136
:104DF000A90148505109F4E056954795FA95E1F715
:104E0000241B350B280F391F3093130120931201F7
:104E1000209114013091150140911201509113011C
:104E2000420F531F20911101FA01E20FF11D9F0162
:104E3000F093101EE0930F1EAB014E1B5F0BE4E0DE
:104E400056954795EA95E1F78417950718F488EC8D
:104E500090E011C0260F371F44E0369527954A95FC
:104E6000E1F72817390798F38091111E9091121ECF
:104E7000009729F001979093121E8093111E2091A4
:104E800094003091950043E3429FC001439F900DF1
:104E9000112468EE73E00E949927CB01A0E0B0E0F6
:104EA0008093881E9093891EA0938A1EB0938B1EB8
:104EB00088EC9DE10E941F2480918C1E81580E94E5
:104EC00032248CED96E10E941F248AED9DE10E9420
:104ED0001F24809112019091130124E096958795EB
:104EE0002A95E1F781580E9432248CED96E10E94C8
:104EF0001F248CEE9DE10E941F248091140190914B
:104F0000150134E0969587953A95E1F781580E940E
:104F100032248CED96E10C941F24991B79E004C097
:104F2000991F961708F0961B881F7A95C9F78095E8
:104F30000895AA1BBB1B51E107C0AA1FBB1FA617E0
:104F4000B70710F0A61BB70B881F991F5A95A9F732
:104F500080959095BC01CD010895A1E21A2EAA1B5F
:104F6000BB1BFD010DC0AA1FBB1FEE1FFF1FA21719
:104F7000B307E407F50720F0A21BB30BE40BF50B16
:104F8000661F771F881F991F1A9469F7609570959F
:104F9000809590959B01AC01BD01CF010895EE0F66
:104FA000FF1F0024001C0BBE0790F691E02D099412
:104FB000B7FF0C94E0270E94E027821B930B089513
:104FC0000E94EB27A59F900DB49F900DA49F800D8C
:104FD000911D11240895A29FB001B39FC001A39F0A
:104FE000700D811D1124911DB29F700D811D112422
:104FF000911D08955058BB27AA270E9412280C948F
:10500000C5290E94B72938F00E94BE2920F039F442
:105010009F3F19F426F40C94B4290EF4E095E7FBB5
:105020000C948529E92F0E94D62958F3BA176207F4
:1050300073078407950720F079F4A6F50C94102ADD
:105040000EF4E0950B2EBA2FA02D0B01B9019001A3
:105050000C01CA01A0011124FF27591B99F0593FE7
:1050600050F4503E68F11A16F040A22F232F342F2F
:105070004427585FF3CF469537952795A795F0407D
:105080005395C9F77EF41F16BA0B620B730B840B92
:10509000BAF09150A1F0FF0FBB1F661F771F881F4A
:1050A000C2F70EC0BA0F621F731F841F48F48795A2
:1050B00077956795B795F7959E3F08F0B0CF939594
:1050C000880F08F09927EE0F9795879508950E940D
:1050D000612908F481E008950E9480280C94C52974
:1050E0000E94BE2958F00E94B72940F029F45F3F82
:1050F00029F00C94852951110C94112A0C94B4298F
:105100000E94D62968F39923B1F3552391F3951B97
:10511000550BBB27AA2762177307840738F09F5FD8
:105120005F4F220F331F441FAA1FA9F335D00E2E45
:105130003AF0E0E832D091505040E695001CCAF7B2
:105140002BD0FE2F29D0660F771F881FBB1F261775
:1051500037074807AB07B0E809F0BB0B802DBF014C
:10516000FF2793585F4F3AF09E3F510578F00C941B
:1051700085290C94112A5F3FE4F3983ED4F3869579
:1051800077956795B795F7959F5FC9F7880F911D3C
:105190009695879597F90895E1E0660F771F881F28
:1051A000BB1F621773078407BA0720F0621B730BDB
:1051B000840BBA0BEE1F88F7E09508950E94DE2954
:1051C00088F09F5798F0B92F9927B751B0F0E1F0C8
:1051D000660F771F881F991F1AF0BA95C9F714C078
:1051E000B13091F00E94102AB1E008950C94102A79
:1051F000672F782F8827B85F39F0B93FCCF38695B1
:1052000077956795B395D9F73EF49095809570950D
:1052100061957F4F8F4F9F4F0895E89409C097FB8A
:105220003EF490958095709561957F4F8F4F9F4F7D
:105230009923A9F0F92F96E9BB279395F6958795C1
:1052400077956795B795F111F8CFFAF4BB0F11F484
:1052500060FF1BC06F5F7F4F8F4F9F4F16C088232B
:1052600011F096E911C0772321F09EE8872F762F61
:1052700005C0662371F096E8862F70E060E02AF0A2
:105280009A95660F771F881FDAF7880F969587958E
:1052900097F908950E94F82990F09F3748F49111EA
:1052A00016F00C94112A60E070E080E89FEB0895FE
:1052B00026F41B16611D711D811D0C948B290C9405
:1052C000A629990F0008550FAA0BE0E8FEEF161665
:1052D0001706E807F907C0F012161306E407F507EA
:1052E00098F0621B730B840B950B39F40A2661F05E
:1052F000232B242B252B21F408950A2609F4A14001
:10530000A6958FEF811D811D089597F99F6780E80D
:1053100070E060E00895882371F4772321F09850BD
:10532000872B762F07C0662311F499270DC0905163
:10533000862B70E060E02AF09A95660F771F881F31
:10534000DAF7880F9695879597F908959F3F31F082
:10535000915020F4879577956795B795880F911DA3
:105360009695879597F908959FEF80EC089500240E
:105370000A941616170618060906089500240A94BA
:1053800012161306140605060895092E0394000C40
:1053900011F4882352F0BB0F40F4BF2B11F460FFCF
:1053A00004C06F5F7F4F8F4F9F4F089557FD9058F8
:1053B000440F551F59F05F3F71F04795880F97FBD9
:1053C000991F61F09F3F79F0879508951216130693
:1053D0001406551FF2CF4695F1DF08C016161706C2
:1053E0001806991FF1CF86957105610508940895F7
:1053F0000E94DE29A0F0BEE7B91788F4BB279F38CA
:1054000060F41616B11D672F782F8827985FF7CFA5
:10541000869577956795B11D93959639C8F308954C
:10542000E894BB2766277727CB0197F908950E9458
:10543000612908F48FEF08950E942F2A0C94C52942
:105440000E94B72938F00E94BE2920F0952311F060
:105450000C9485290C94B42911240C94112A0E94CF
:10546000D62970F3959FC1F3950F50E0551F629FA9
:10547000F001729FBB27F00DB11D639FAA27F00DAD
:10548000B11DAA1F649F6627B00DA11D661F829FD4
:105490002227B00DA11D621F739FB00DA11D621FB9
:1054A000839FA00D611D221F749F3327A00D611DD6
:1054B000231F849F600D211D822F762F6A2F1124B8
:1054C0009F5750409AF0F1F088234AF0EE0FFF1FEB
:1054D000BB1F661F771F881F91505040A9F79E3F42
:1054E000510580F00C9485290C94112A5F3FE4F358
:1054F000983ED4F3869577956795B795F795E79598
:105500009F5FC1F7FE2B880F911D9695879597F9A0
:105510000895FA01EE0FFF1F309621053105A1F124
:105520006115710561F48038BFE39B0749F1689408
:105530009038810561F08038BFEF9B0741F09923D7
:105540004AF5FF3FE1053105210519F1E89408947A
:10555000E795D901AA2329F4AB2FBE2FF85FD0F32A
:1055600010C0FF5F70F4A695E0F7F73950F019F01E
:10557000FF3A38F49F779F930DD00F9007FC905817
:10558000089546F00C94B42960E070E080E89FE351
:1055900008954FE79F775F934F933F932F930E9418
:1055A000A82B2F913F914F915F910E941C2A0C9440
:1055B000052B0E94DE29E8F09E37E8F09639B8F412
:1055C0009E3848F4672F782F8827985FF9CF869503
:1055D0007795679593959539D0F3B62FB1706B0F8A
:1055E000711D811D20F487957795679593950C948F
:1055F0008B290C94A6290C94112A29F416F00C94EA
:1056000085290C94102A0C94B4290E94DE29A8F351
:105610009638A0F707F80F92E8942BE33AEA48EBA4
:105620005FE70E94322A0F920F920F924DB75EB73A
:105630000F920E94F02BE4E3F1E00E94372B4F9190
:105640005F91EF91FF91E595EE1FFF1F49F0FE5727
:10565000E0684427EE0F441FFA95E1F74195550B9A
:105660000E946A2B0F9007FE0C945E2B0895DF9327
:10567000CF931F930F93FF92EF92DF927B018C01E8
:10568000689406C0DA2EEF010E942F2AFE01E894EA
:10569000A5912591359145915591A6F3EF010E9471
:1056A0001228FE019701A801DA9469F7DF90EF90C4
:1056B000FF900F911F91CF91DF9108959B01AC0155
:1056C00060E070E080E89FE30C946C280C948529DE
:1056D0000C94A6290E94DE29D8F39923C9F3940FCC
:1056E000511DA3F39150504094F059F0882332F0AB
:1056F000660F771F881F91505040C1F79E3F51059C
:105700002CF7880F911D9695879597F908955F3F1F
:10571000ACF0983E9CF0BB27869577956795B7953A
:1057200008F4B1609395C1F7BB0F58F711F460FF0F
:10573000E8CF6F5F7F4F8F4F9F4FE3CF0C94112ABD
:1057400016F00C94A6290C94B42968940C9485291D
:105750000E94DE29A8F39923C1F3AEF3DF93CF9320
:105760001F930F93FF92C92FDD2788232AF02197DB
:10577000660F771F881FDAF720E030E040E85FEB24
:105780009FE3883920F0803E38F021968F770E9481
:10579000FB27ECE5F1E004C00E94FB27E9E8F1E01B
:1057A0000E94372B8B01BE01EC01FB2E6F57710954
:1057B0007595771F880B990B0E940F2928E132E716
:1057C00041E35FE30E942F2AAF2D9801AE01FF90C5
:1057D0000F911F91CF91DF910E9412280C94C5293F
:1057E000FA01DC01AA0FBB1F9B01AC01BF5728F4D3
:1057F000222733274427507820C0B75190F4AB2F8D
:105800000024469537952795011CA395D2F30020D7
:1058100071F0220F331F441FB395DAF30ED00C94AE
:10582000FA2761307105A0E88A07B94630F49B0178
:10583000AC016627772788279078309621F020835F
:105840003183428353830895FC0188279927E89484
:1058500021912032E9F3293010F02E30C8F32B3299
:1058600041F02D3239F4689404C00E94612D820FFA
:10587000911D219120532A30C0F31EF490958195FB
:105880009F4F0895283008F027E03327DA01990F59
:10589000311D87FD916000966105710539F4326014
:1058A0002E5F3D9330E32A95E1F708959F3F30F056
:1058B00080387105610509F03C5F3C5F3D93913094
:1058C00008F08068911DDF93CF931F930F93FF9291
:1058D000EF92192F987F9695E92F96959695E90F57
:1058E000FF27E85EFD4F99273327EE24FF24A70109
:1058F000E70105900894079428F4360FE71EF81E78
:10590000491F511D660F771F881F991F0694A1F725
:105910000590079428F4E70EF81E491F561FC11D75
:10592000770F881F991F661F0694A1F705900794AB
:1059300028F4F80E491F561FC71FD11D880F991F45
:10594000661F771F0694A1F70590079420F4490F6E
:10595000561FC71FD81F990F661F771F881F0694F1
:10596000A9F784911095177041F0D695C795579572
:105970004795F794E7941A95C1F7EEEBF1E0689438
:105980001590159135916591959105907FE27395EC
:10599000E118F10A430B560BC90BD009C0F7E10C13
:1059A000F11E431F561FC91FD01D7EF4703311F422
:1059B0008A95E6CFE894015030F0080F0AF40027EA
:1059C000021708F4202F2395022F7A3328F079E369
:1059D0007D932A95E9F710C07D932A9589F6069460
:1059E00097956795379517951794E118F10A430B2A
:1059F000560BC90BD00998F023957E9173957A3395
:105A000008F070E37C932013B8F77E9170617D936A
:105A100030F0839571E37D9370E32A95E1F71124CB
:105A2000EF90FF900F911F91CF91DF91992787FD04
:105A300090950895FC010590615070400110D8F7D1
:105A4000809590958E0F9F1F0895FB01DC010D90AE
:105A50000020E9F7119701900D920020E1F70895D9
:105A6000FB01DC018D91019080190110D9F3990B94
:105A70000895FB01DC0101900D920020E1F70895EB
:105A8000FC016150704001900110D8F7809590950D
:105A90008E0F9F1F08954532510520F4423010F0BB
:105AA0000C94562DFB011082CB010895BB274A3080
:105AB00031F4992322F4BDE2909581959F4F0C9487
:105AC0006A2D7AE0979F902D879F802D910D11244C
:105AD0000895BB27FB015527AA27880F991FAA1FE6
