:100000000C9465010C9484010C9484010C9484017B
:100010000C9484010C9484010C94A51F0C9484010D
:100020000C9484010C9484010C9484010C9484013C
:100030000C9484010C9484010C9484010C945B1F37
:100040000C94721F0C9484010C9484010C94840110
:100050000C9484010C9484010C9484010C9484010C
:100060000C94CF1F0C9484010C9484010C94840193
:100070000C9484010C9484010C9484010C948401EC
:100080000C9484010C9484010C948401AC1E441FD4
:10009000441F441F441F441F441FA31ED41E441F5B
:1000A000D01E441F9C1E991EC41EC81ECC1E8C1E32
:1000B000951E881EB01E921EB41E441F441F441F6E
:1000C000441F441F441F441F781E171FE81E7D1E37
:1000D0001D1F1B1F441F421F441F441F441FB81EE7
:1000E000F41EF01E6B1EF81E1F1FBC1E721E691E22
:1000F000401FEC1E6D1E821EAA1E191F441F441FA6
:10010000441F441F441F441F441F441FFB1ED81E8E
:100110000B1FDC1E441FE01E441FE41EC01E441FB4
:10012000071F031F111F141F441F0E1F441F441FCE
:10013000441FFF1E07634236B79BD8A71A3968567B
:1001400018AEBAAB558C1D3CB7CC5763BD6DEDFDF9
:10015000753EF6177231BF000000803F08000000B6
:10016000BE922449123EABAAAA2ABECDCCCC4C3EAC
:1001700000000080BEABAAAAAA3E00000000BF009B
:100180000000803F0000000000084178D3BB438797
:10019000D1133D190E3CC3BD4282AD2B3E68EC82AB
:1001A00076BED98FE1A93E4C80EFFFBE01C4FF7F30
:1001B0003F00000000006E616E00696E6600004046
:1001C0007A10F35A00A0724E18090010A5D4E80066
:1001D00000E87648170000E40B54020000CA9A3B7E
:1001E000000000E1F5050000809698000000404204
:1001F0000F000000A0860100000010270000000092
:10020000E803000000006400000000000A00000095
:1002100000000100000000002C76D888DC674F0841
:1002200023DFC1DFAE59E1B1B796E5E3E453C63A47
:10023000E651997696E8E6C28426EB898C9B62EDBE
:10024000407C6FFCEFBC9C9F40F2BAA56FA5F49078
:10025000055A2AF75C936B6CF9676DC11BFCE0E4EF
:100260000D47FEF520E6B500D0ED902E0300943545
:1002700077050080841E080000204E0A000000C898
:100280000C333333330F986E12831141EF8D2114E9
:10029000893BE65516CFFEE6DB18D1844B381BF7B9
:1002A0007C1D901DA4BBE424203284725E22810058
:1002B000C9F124ECA1E53D272569207365632E2053
:1002C000666F72206D656E75000011241FBECFEF42
:1002D000D0E4DEBFCDBF1DE1A0E0B1E0E8E8FBE582
:1002E00000E00BBF02C007900D92AA39B107D9F701
:1002F0002EE1AAE9BDE101C01D92A832B207E1F7E3
:100300000E94D01F0C94C22D0C9400002F923F929B
:100310004F925F926F927F928F929F92AF92BF9215
:10032000CF92DF92EF92FF920F931F93CF93DF93C1
:10033000CDB7DEB760970FB6F894DEBF0FBECDBF66
:100340007C011B016A01FC0117821682838181FFF7
:1003500044C39E012F5F3F4F3901F7019381F101A3
:1003600093FD859193FF81911F01882309F431C387
:10037000853239F493FD859193FF81911F01853278
:1003800039F4B70190E00E94E92C56016501E5CFF0
:1003900010E0512C912CFFE1F915D8F08B3279F057
:1003A00038F4803279F08332A1F4F92DF0612EC057
:1003B0008D3261F0803369F4292D21602DC0392DF3
:1003C0003260932E892D8460982E2AC0E92DE86032
:1003D00015C097FC2DC020ED280F2A3088F496FE1A
:1003E00006C03AE0139F200D1124122F19C08AE095
:1003F000589E200D1124522EE92DE0629E2E10C031
:100400008E3231F496FCE5C2F92DF0649F2E08C0BF
:100410008C3621F4292D2068922E02C0883641F4B2
:10042000F10193FD859193FF81911F018111B3CF5C
:100430009BEB980F933020F4992D9061805E07C05C
:100440009BE9980F933008F066C1992D9F7E96FF27
:1004500016E09F73992E853619F49064992E08C082
:10046000863621F4392F3068932E02C011111150B5
:1004700097FE07C01C3350F444244394410E27E0F8
:100480000BC0183038F027E017E005C027E09CE3E8
:10049000492E02C0212F412C560184E0A80EB11C28
:1004A000F6016081718182819381042DA3010E94F4
:1004B000A82B6C01F981FC87F0FF02C0F3FF06C096
:1004C00091FC06C092FE06C000E205C00DE203C02A
:1004D0000BE201C000E08C858C7019F001115AC24A
:1004E0009BC297FE10C04C0CFC85F4FF04C08A81AF
:1004F000813309F44A94141474F528E0241578F52E
:1005000088E0482E2CC096FC2AC0812F90E08C15E4
:100510009D059CF03CEFC3163FEFD30674F0892D88
:100520008068982E0AC0E2E0F0E0EC0FFD1FE10FBA
:10053000F11D8081803319F411501111F4CF97FE11
:100540000EC044244394410E812F90E0C816D90672
:100550002CF41C1904C04424439401C010E097FEFD
:1005600006C01C141D0434F4C601019605C085E0C4
:1005700090E002C081E090E001110196112331F07A
:10058000212F30E02F5F3F4F820F931F252D30E04A
:100590008217930714F4581A01C0512C892D8970C1
:1005A00049F4552039F0B70180E290E00E94E92C2F
:1005B0005A94F7CF002329F0B701802F90E00E94D2
:1005C000E92C93FC09C0552039F0B70180E390E095
:1005D0000E94E92C5A94F7CF97FE4CC04601D7FEF3
:1005E00002C0812C912CC60188199909F301E80FEA
:1005F000F91FFE87ED87960124193109388B2F8763
:10060000012F10E01195019511093FEF8316930614
:1006100029F4B7018EE290E00E94E92CC814D904B5
:100620004CF08F8598898815990524F4ED85FE8511
:10063000818101C080E3F1E08F1A91082D853E850C
:100640002F5F3F4F3E872D87801691062CF0B70114
:1006500090E00E94E92CD9CFC814D90441F49A81C2
:10066000963320F4953319F43C8534FF81E3B701C8
:1006700090E04EC08A81813319F09C859F7E9C87D3
:10068000B70190E00E94E92C111105C094FC18C03C
:1006900085E690E017C0B7018EE290E00E94E92C59
:1006A0001E5F82E001E0080FF301E80FF11D808179
:1006B000B70190E00E94E92C802F0113F3CFE6CF21
:1006C00085E490E0B7010E94E92CD7FC06C0C11474
:1006D000D10441F4EC85E4FF05C0D194C194D10864
:1006E0008DE201C08BE2B70190E00E94E92C80E32B
:1006F0002AE0C216D1042CF08F5FFAE0CF1AD1089D
:10070000F7CFB70190E00E94E92CB701C601C0966F
:100710000E94E92C54C1833631F0833779F0833558
:1007200009F056C020C0560132E0A30EB11CF601FC
:100730008081898301E010E0630112C05601F2E07C
:10074000AF0EB11CF601C080D18096FE03C0612FB0
:1007500070E002C06FEF7FEFC6010E94A62C8C01F3
:10076000F92DFF7714C0560122E0A20EB11CF6014C
:10077000C080D18096FE03C0612F70E002C06FEF91
:100780007FEFC6010E94802C8C01F92DF0689F2E0E
:10079000F3FD1AC0852D90E008171907A8F4B701DA
:1007A00080E290E00E94E92C5A94F4CFF60197FC85
:1007B000859197FE81916F01B70190E00E94E92C2D
:1007C00051105A94015011090115110579F7F7C01C
:1007D000843611F0893661F5560197FE09C024E090
:1007E000A20EB11CF60160817181828193810AC0E1
:1007F000F2E0AF0EB11CF60160817181072E000C92
:10080000880B990BF92DFF769F2E97FF09C09095C5
:100810008095709561957F4F8F4F9F4FF0689F2E09
:100820002AE030E0A3010E94542DC82EC6183FC014
:10083000092D853721F40F7E2AE030E01DC0097FA5
:100840008F3691F018F4883559F0C3C0803719F00D
:10085000883711F0BEC0006104FF09C0046007C002
:1008600094FE08C0066006C028E030E005C020E124
:1008700030E002C020E132E0560107FF09C084E009
:10088000A80EB11CF601608171818281938108C03C
:10089000F2E0AF0EB11CF6016081718180E090E062
:1008A000A3010E94542DC82EC6180F77902E96FED5
:1008B0000BC0092D0E7FC11650F494FE0AC092FCA5
:1008C00008C0092D0E7E05C0DC2C092D03C0DC2CD0
:1008D00001C0D12E04FF0DC0FE01EC0DF11D808181
:1008E000803311F4097E09C002FF06C0D394D3946B
:1008F00004C0802F867809F0D39403FD11C000FF57
:1009000006C01C2DD51480F4150D1D190DC0D5146D
:1009100058F4B70180E290E00E94E92CD394F7CF1D
:10092000D51410F45D1801C0512C04FF10C0B7019C
:1009300080E390E00E94E92C02FF17C001FD03C094
:1009400088E790E002C088E590E0B7010CC0802FF6
:10095000867859F001FF02C08BE201C080E207FDFA
:100960008DE2B70190E00E94E92CC11638F4B7017E
:1009700080E390E00E94E92C1150F7CFCA94F30174
:10098000EC0DF11D8081B70190E00E94E92CC110AF
:10099000F5CF15C0F4E0F51560F584E0581A93FE24
:1009A0001FC0011127C02C8523FF2AC006EB11E0D0
:1009B000392D3071932EF8018491811124C0552076
:1009C00009F4E4CCB70180E290E00E94E92C5A944B
:1009D000F6CFF7018681978126C08FEF9FEF23C066
:1009E000B70180E290E00E94E92C5A945110F8CFB0
:1009F000D8CF512CB701802F90E00E94E92CD3CFA3
:100A00000AEB11E0D5CF91108052B70190E00E941F
:100A1000E92C0F5F1F4FCFCF23E0251510F483E0A3
:100A2000BDCF512CC0CF60960FB6F894DEBF0FBE7D
:100A3000CDBFDF91CF911F910F91FF90EF90DF908D
:100A4000CF90BF90AF909F908F907F906F905F906E
:100A50004F903F902F90089583B7817F826083BF2E
:100A6000EAE7F0E0808188608083089590917C00BF
:100A7000907E90937C0090917C00892B80937C00E9
:100A800080917A00806480937A0080917A0086FF5A
:100A9000FCCF809178009091790008951F93CF93B7
:100AA000DF9310E1C0E0D0E083B7816083BF889519
:100AB00083B78E7F83BF87E00E943605C80FD91F9A
:100AC000115091F7CE019695879596958795DF9170
:100AD000CF911F910895249A2C9A259A2E9A279A9D
:100AE0008CB581608CBD8CB580618CBD8CB580640B
:100AF0008CBD08958EBD0DB407FEFDCF0895CF9334
:100B0000DF93EB010E947A058D2F0E947A058C2FCE
:100B1000DF91CF910C947A052C9886E00E947A059B
:100B20002C9A0895CF92DF92EF92FF926B017C0195
:100B30002C9883E00E947A05C701B6010E947F05C8
:100B400080E00E947A052C9A8EB5FF90EF90DF909E
:100B5000CF900895CF92DF92EF92FF92CF936B01E7
:100B60007C01C42F0E948C052C9882E00E947A059B
:100B7000C701B6010E947F058C2F0E947A050DB433
:100B800007FEFDCF2C9ACF91FF90EF90DF90CF9092
:100B90000895CF92DF92EF92FF92CF93DF936B0194
:100BA0007C012C9883E00E947A05C701B6010E945F
:100BB0007F0580E00E947A05CEB5D0E0DC2FCC27FF
:100BC00080E00E947A058EB52C9A9E01280F311D77
:100BD000C901DF91CF91FF90EF90DF90CF90089502
:100BE000CF92DF92EF92FF92CF93DF936B017C0164
:100BF000EA010E948C052C9882E00E947A05C701C8
:100C0000B6010E947F058D2F0E947A058C2F0E94CD
:100C10007A052C9ADF91CF91FF90EF90DF90CF90E3
:100C20000895CF92DF92EF92FF92C12CD12C7601E2
:100C30000E948C052C9882E00E947A05C701B601BB
:100C40000E947F0580E00E947A058FEFC81AD80ABB
:100C5000E80AF80A2C9A8FEFC816D806E104F104C6
:100C600039F7FF90EF90DF90CF9008950E944607EC
:100C700084EC0E945F078091B900887F883199F5E4
:100C800088E191E00E94852388E10E94A22487E404
:100C900099E10E94852380E00E945F078091B9005E
:100CA000887F883201F580E591E00E94852388E203
:100CB0000E94A22487E499E10E94852384E00E9497
:100CC0005F078091B900887F883269F484E791E0FA
:100CD0000E94852388E20E94A22487E499E10E9471
:100CE00085230C944B070895CF930E94460784EC0C
:100CF0000E945F078091B900887F883101F588E103
:100D000091E00E94852388E10E94A22487E499E172
:100D10000E94852381E00E945F078091B900887F4F
:100D2000883269F482E991E00E94852388E20E947A
:100D3000A22487E499E10E9485230E944B0786EB59
:100D400091E00E94852387E499E10E9485230E9417
:100D5000460785EC0E945F07C091B900C87F8C2FC1
:100D60000E94A22487E499E10E948523C034D1F433
:100D700080EC91E00E94852380E40E94A22487E415
:100D800099E10E9485230E945707C82F8EEF91E0BA
:100D90000E9485238C2F0E94A22487E499E10E945F
:100DA000852301C0C0E08C2FCF9108951F93CF936E
:100DB000DF930E94460784EC0E945F078091B90090
:100DC000887F883159F488E191E00E94852388E189
:100DD0000E94A22487E499E10E9485238FE80E9463
:100DE0005F078091B900887F883269F480E192E0E2
:100DF0000E94852388E20E94A22487E499E10E9450
:100E000085230E944B070E94460785EC0E945F07DE
:100E10008091B900887F803409F584E392E00E94D4
:100E2000852380E40E94A22487E499E10E9485231F
:100E30000E944F07182F0E945707C82F0E944B0788
:100E4000D0E0D12B81E792E00E948523CE010E9461
:100E5000B12387E499E10E94852302C0C0E0D0E07D
:100E6000CE01DF91CF911F91089588B1836088B939
:100E700086E48093B800ECEBF0E0808184608083AE
:100E800008958091BC0087FFFCCF089584EA809389
:100E9000BC000C94410784E98093BC00089584EC65
:100EA0008093BC000E9441078091BB00089584E8B4
:100EB0008093BC000E9441078091BB0008958093FD
:100EC000BB0084E88093BC000C944107CF93C82FEB
:100ED0000E9446078EE40E945F078C2F88600E9464
:100EE0005F07CF910C944B071F93CF93DF93D82FBD
:100EF00011E0611101C010E0D4FF02C080E101C027
:100F000080E0D5FD8062D6FD8064D7FD8068C82F63
:100F1000C12B8C2F84600E94660787EA91E60197B7
:100F2000F1F700C000008C2F0E946607D0FF02C0BE
:100F300080E101C080E0D1FD8062D2FD8064D3FDFC
:100F40008068182B812F84600E94660787EA91E6EB
:100F50000197F1F700C00000812FDF91CF911F9121
:100F60000C94660760E081E00E94740760E080E80E
:100F70000E94740710929A1D089560E080E80E9414
:100F8000740710929A1D0895CF93C4E0C150B1F038
:100F900084E30E9466078FE493EC0197F1F700C0A9
:100FA000000080E30E9466079FE72AE186E09150F7
:100FB00020408040E1F700C00000E8CF84E20E94BA
:100FC00066078FE493EC0197F1F700C0000080E220
:100FD0000E9466078FE493EC0197F1F700C00000D0
:100FE00060E088E20E94740760E08CE00E94740771
:100FF000CF910C94B207CF93C82F80919A1D803166
:1010000021F460E080EC0E94740780919A1D803288
:1010100031F460E080E80E94740710929A1D80917C
:101020009A1D8F5F80939A1D61E08C2FCF910C9455
:1010300074070F931F93CF93DF93EC018E01888188
:101040008823F1F080919A1D803121F460E080ECDA
:101050000E94740780919A1D803231F460E080E82C
:101060000E94740710929A1D80919A1D8F5F809341
:101070009A1D219661E0F80180810E947407DECFFD
:10108000DF91CF911F910F9108954F925F926F92D0
:101090007F928F929F92AF92BF92CF92DF92EF9208
:1010A000FF920F931F93CF93DF93CDB7DEB7649773
:1010B0000FB6F894DEBF0FBECDBFFE01B79681908C
:1010C00091907F01712C6E018BE0C80ED11CFE0146
:1010D00031965F0180E3682E2401FFEF4F1A5F0A0B
:1010E000F4018491882309F4A6C0853209F08FC0E9
:1010F00084010E5F1F4FF2018491282F30E02053AE
:1011000031092A303105D8F589831A82C5010E9438
:101110008A2B782E94012D5F3F4FF80104910936F8
:1011200051F138F40236E1F10336D1F0890148017A
:10113000D3CF033731F0083779F10F36B9F789018A
:1011400028C08901F70180809180F2E0EF0EF11C48
:10115000F40181914F01882351F30E94FB07F8CFDE
:1011600089014701F2E08F0E911CF70180810E94F6
:10117000FB077401DCCF890198014AE012C089366F
:10118000D9F308F448C08337E9F2883731F08F3655
:1011900071F6980148E005C08901980140E101C05D
:1011A00042E050E04701F2E08F0E911CF701808190
:1011B00091818901B6010E94B12CF601CF018C19F1
:1011C0009D0921912111FACF272D30E08217930735
:1011D000C4F4781AF501872D90E09F012A193B0984
:1011E0002817390714F46192F8CFF501E80FF91FB9
:1011F0001082B601C5010E948B2CB501C6010E9468
:101200009F2CC6010E9419087401712C90CF0E9476
:10121000FB0782018CCF823651F44701F2E08F0E3A
:10122000911CF7018081918142E050E0C3CF833669
:1012300009F497CF7CCF64960FB6F894DEBF0FBE4B
:10124000CDBFDF91CF911F910F91FF90EF90DF9075
:10125000CF90BF90AF909F908F907F906F905F9056
:101260004F90089550E05093890040938800882360
:1012700019F0109A549A02C01098549850938B0009
:1012800040938A00662319F0119A559A089511988F
:10129000559808954093B300882319F0129A569AEE
:1012A00002C0129856984093B400662319F0139A1E
:1012B000579A0895139857980895CF93DF93C82F9E
:1012C000D82FD6958D2F0E9498231F92DF938DE7FC
:1012D00092E09F938F938BEF9DE19F938F930E945A
:1012E000252D8BEF9DE10E9419080F900F900F9014
:1012F0000F900F900F90C0FF07C080E892E00E940F
:10130000852385E892E006C08FE892E00E9485235D
:1013100084E992E00E94190888E892E0DF91CF9179
:101320000C9419081092C50084E08093C400E0EC8E
:10133000F0E080818260808388E18093C10086E054
:101340008093C20008950F931F93CF938C01C62FF3
:1013500067E972E00E94962C892B21F44C2F60E003
:1013600081E01EC06FE972E0C8010E94962C892BB3
:1013700069F44C2F60E081E00E944A094C2F61E043
:1013800080E0CF911F910F910C94320965EA72E0D1
:10139000C8010E94962C892B49F44C2F61E080E013
:1013A0000E944A094C2F60E081E0EBCF6AEA72E0CC
:1013B000C8010E94962C892B21F44C2F61E080E01B
:1013C000DBCF63EB72E0C8010E94962C892B41F4BD
:1013D00040E060E080E00E944A0940E060E0D0CF59
:1013E00089EB92E00E94852387E499E1CF911F91D8
:1013F0000F910C9485232F923F924F925F926F92A0
:101400007F928F929F92AF92BF92CF92DF92EF9294
:10141000FF920F931F93CF93DF9300D000D000D0A3
:10142000CDB7DEB7182F6E83B42E022FC82ED12C65
:10143000E12CF12C24E2C21AD1082FEFE20AF20AC1
:10144000C701B6010E9492058D831031E0F08FEC48
:1014500092E026960FB6F894DEBF0FBECDBFDF91A7
:10146000CF911F910F91FF90EF90DF90CF90BF90A1
:10147000AF909F908F907F906F905F904F903F9034
:101480002F900C9485238B2D90E0A0E0B0E0898311
:101490009A83AB83BC839D8197FD6CC1AE8144EF81
:1014A000242E33243394A7FDD8C09A170CF07BC0A8
:1014B000BD816B2FBB0F770B880B990B0E94752892
:1014C000AB01BC01812F0E9498224E81C701B60159
:1014D0000E94AA0569817A818B819C810E94732870
:1014E0002B013C0120E030E44CE955E40E948229C4
:1014F0004B015C0120E030E040E85FE30E94CD2733
:1015000087FD22C020E03FEF4FE757E4C501B4015B
:101510000E947D2918169CF420E030E040E251E45E
:10152000C301B2010E9482290E94442861157105FD
:1015300081F0C1010197F1F761507109F7CFC50141
:10154000B4010E94442802C061E070E0CB01019721
:10155000F1F72D81200F2D833E8132170CF0A8CF9B
:1015600085E093E00E948523812F0E94982388E2E2
:1015700093E00E9485233CEDC32EDD24DA94E12C18
:10158000F12C812F90E09A838983B3C0C501B40107
:101590000E944428CB010197F1F7BD81B01BBD83A8
:1015A0002E81B217ECF2AD816A2FAA0F770B880B50
:1015B000990B0E947528AB01BC01812F0E949822D3
:1015C0004E81C701B6010E94AA0569817A818B818B
:1015D0009C810E9473282B013C0120E030E44CE9FF
:1015E00055E40E9482294B015C0120E030E040E894
:1015F0005FE30E94CD2787FD1FC020E03FEF4FE74C
:1016000057E4C501B4010E947D2918160CF0BECF25
:1016100020E030E040E251E4C301B2010E9482299F
:101620000E9444286115710509F4B7CFC1010197E3
:10163000F1F761507109F6CF61E070E0ABCFC50101
:10164000B4010E944428CB010197F1F78D81801BE2
:101650008D839E8189170CF483CF3D81632F330FD7
:10166000770B880B990B0E947528AB01BC01812F69
:101670000E9498224E81C701B6010E94AA05698185
:101680007A818B819C810E9473282B013C0120E090
:1016900030E44CE955E40E9482294B015C0120E0D2
:1016A00030E040E85FE30E94CD2787FD1FC020E0C7
:1016B0003FEF4FE757E4C501B4010E947D2918169A
:1016C0000CF0BDCF20E030E040E251E4C301B201B4
:1016D0000E9482290E9444286115710509F4B6CF41
:1016E000C1010197F1F761507109F6CF61E070E037
:1016F000AACF87E393E00E948523C6010E94B1230D
:1017000088E493E00E948523C701B6010E949205F8
:101710000E949823C6018496A981BA81A817B907A7
:1017200021F481E593E00E948523BFEFCB1ADB0A09
:10173000EB0AFB0A2CEEC2162FEFD206E104F104ED
:10174000C1F626960FB6F894DEBF0FBECDBFDF916F
:10175000CF911F910F91FF90EF90DF90CF90BF90AE
:10176000AF909F908F907F906F905F904F903F9041
:101770002F9008953E8137FD5DC024EF222E332443
:101780003394AD816A2FAA0F770B880B990B0E94B7
:101790007528AB01BC01812F0E9498224E81C701A0
:1017A000B6010E94AA0569817A818B819C810E9481
:1017B00073282B013C0120E030E44CE955E40E9401
:1017C00082294B015C0120E030E040E85FE30E94A9
:1017D000CD2787FD22C020E03FEF4FE757E4C5014A
:1017E000B4010E947D2918169CF420E030E040E20C
:1017F00051E4C301B2010E9482290E94442861156C
:10180000710581F0C1010197F1F761507109F7CFBE
:10181000C501B4010E94442802C061E070E0CB0120
:101820000197F1F7BD81B00FBD832E812B170CF00E
:10183000A8CF96CE3D818E8194EF292E3324339408
:1018400038170CF067C0AD816A2FAA0F770B880B91
:10185000990B0E947528AB01BC01812F0E94982230
:101860004E81C701B6010E94AA0569817A818B81E8
:101870009C810E9473282B013C0120E030E44CE95C
:1018800055E40E9482294B015C0120E030E040E8F1
:101890005FE30E94CD2787FD22C020E03FEF4FE7A6
:1018A00057E4C501B4010E947D2918169CF420E07C
:1018B00030E040E251E4C301B2010E9482290E945B
:1018C00044286115710581F0C1010197F1F761505C
:1018D0007109F7CFC501B4010E94442802C061E03C
:1018E00070E0CB010197F1F7BD81B00FBD832E8170
:1018F0002B170CF0A8CF34CEC501B4010E944428A8
:10190000CB010197F1F78D81801B8D839E81891713
:101910000CF426CE3D81632F330F770B880B990B88
:101920000E947528AB01BC01812F0E9498224E8134
:10193000C701B6010E94AA0569817A818B819C81C9
:101940000E9473282B013C0120E030E44CE955E46F
:101950000E9482294B015C0120E030E040E85FE317
:101960000E94CD2787FD1FC020E03FEF4FE757E4DF
:10197000C501B4010E947D2918160CF0BDCF20E0EE
:1019800030E040E251E4C301B2010E9482290E948A
:1019900044286115710509F4B6CFC1010197F1F72B
:1019A00061507109F6CF61E070E0AACF1F93CF9329
:1019B000DF9381E693E00E9485238CE893E00E9408
:1019C00085230E94C024D82F89EA93E00E948523B2
:1019D0000E94C024C82F88EC93E00E9485230E94B7
:1019E0007E238D3261F018F48B3231F00EC08033DB
:1019F00019F0813321F009C08FE094E003C0C19554
:101A00008AE294E00E94852306C081E494E00E946B
:101A10008523C0E0D4E60E947E238EE794E00E94F6
:101A200085230E94C024182F8FE994E00E9485230B
:101A30000E94C024282F412F6C2F8D2F0E94FB095C
:101A400087EC94E0DF91CF911F910C948523CF9385
:101A5000C82F21E0482F60E080E00E94FB0921E0D0
:101A60004C2F60E084E00E94FB0921E04C2F60E0F5
:101A700083E00E94FB0921E04C2F60E082E00E949D
:101A8000FB0921E04C2F60E081E00E94FB0921E08E
:101A90004C2F60E085E00E94FB0921E04C2F6EE1B5
:101AA00086E00E94FB0921E04C2F60E087E00E9465
:101AB000FB0921E04C2F60E08BE00E94FB0921E054
:101AC0004C2F60E08AE00E94FB0921E04C2F60E08F
:101AD00089E00E94FB0921E04C2F60E088E00E9431
:101AE000FB0921E04C2F60E08CE00E94FB0921E023
:101AF0004C2F6CEE8DE0CF910C94FB09CF93C82F47
:101B000021E0482F60E087E00E94FB0921E04C2F94
:101B100060E08BE00E94FB0921E04C2F60E08AE04E
:101B20000E94FB0921E04C2F60E089E00E94FB0944
:101B300021E04C2F60E088E00E94FB0921E04C2F5F
:101B400060E08CE00E94FB0921E04C2F6CEE8DE000
:101B5000CF910C94FB09CF93C82F21E0482F60E070
:101B600080E00E94FB0921E04C2F60E084E00E94AD
:101B7000FB0921E04C2F60E083E00E94FB0921E09B
:101B80004C2F60E082E00E94FB0921E04C2F60E0D6
:101B900081E00E94FB0921E04C2F60E085E00E947B
:101BA000FB0921E04C2F6EE186E0CF910C94FB09FC
:101BB000CF93C82F21E0482F6EE186E00E94FB09F9
:101BC00021E04C2F60E085E00E94FB0921E04C2FD2
:101BD00066EF80E00E94FB0921E04C2F62EB82E07F
:101BE0000E94FB0921E04C2F6FE684E00E94FB0974
:101BF00021E04C2F65E383E00E94FB0921E04C2F9C
:101C000061E981E00E94FB0921E04C2F67EE8DE045
:101C10000E94FB0921E04C2F60E08CE00E94FB0950
:101C200021E04C2F60E087E00E94FB0921E04C2F6F
:101C30006AEB89E00E94FB0921E04C2F6BE78BE007
:101C40000E94FB0921E04C2F65E38AE00E94FB091A
:101C500021E04C2F64E688E0CF910C94FB09CF93F0
:101C6000C82F21E0482F67EE8DE00E94FB0921E09C
:101C70004C2F60E08CE00E94FB0921E04C2F60E0DB
:101C800087E00E94FB0921E04C2F6AEB89E00E946B
:101C9000FB0921E04C2F6BE78BE00E94FB0921E060
:101CA0004C2F65E38AE00E94FB0921E04C2F64E69B
:101CB00088E0CF910C94FB09CF93C82F21E0482FE7
:101CC0006EE186E00E94FB0921E04C2F60E085E098
:101CD0000E94FB0921E04C2F66EF80E00E94FB0987
:101CE00021E04C2F62EB82E00E94FB0921E04C2FA7
:101CF0006FE684E00E94FB0921E04C2F65E383E05E
:101D00000E94FB0921E04C2F61E981E0CF910C9406
:101D1000FB09CF93C82F21E0482F66EF80E00E9497
:101D2000FB0921E04C2F62EB82E00E94FB0921E0DD
:101D30004C2F6FE684E00E94FB0921E04C2F65E305
:101D400083E00E94FB0921E04C2F66EA81E00E94BB
:101D5000FB0921E04C2F60E085E00E94FB0921E0B7
:101D60004C2F6EE186E00E94FB0921E04C2F60E0E1
:101D700087E00E94FB0921E04C2F6AEB89E00E947A
:101D8000FB0921E04C2F6DE78BE00E94FB0921E06D
:101D90004C2F65E38AE00E94FB0921E04C2F60E5AF
:101DA00088E00E94FB0921E04C2F60E08CE00E945B
:101DB000FB0921E04C2F6CEE8DE0CF910C94FB09D8
:101DC000CF93C82F21E0482F66EF80E00E94FB09E7
:101DD00021E04C2F65E584E00E94FB0921E04C2FB7
:101DE00060E082E00E94FB0921E04C2F65E383E084
:101DF0000E94FB0921E04C2F66EA81E00E94FB096A
:101E000021E04C2F6CE985E00E94FB0921E04C2F7A
:101E10006EEC86E00E94FB0921E04C2F60E087E039
:101E20000E94FB0921E04C2F6AE58BE00E94FB0930
:101E300021E04C2F60E089E00E94FB0921E04C2F5B
:101E40006CE38AE00E94FB0921E04C2F6AE488E001
:101E50000E94FB0921E04C2F6CE38CE00E94FB09FF
:101E600021E04C2F60EB8DE0CF910C94FB09CF93D8
:101E7000C82F21E0482F66EF80E00E94FB0921E097
:101E80004C2F65E584E00E94FB0921E04C2F60E0C7
:101E900082E00E94FB0921E04C2F65E383E00E9471
:101EA000FB0921E04C2F66EA81E00E94FB0921E05A
:101EB0004C2F60E085E00E94FB0921E04C2F68E296
:101EC00086E00E94FB0921E04C2F60E087E00E9441
:101ED000FB0921E04C2F6AE58BE00E94FB0921E021
:101EE0004C2F60E089E00E94FB0921E04C2F6CE35D
:101EF0008AE00E94FB0921E04C2F6AE488E00E94FE
:101F0000FB0921E04C2F60E08CE00E94FB0921E0FE
:101F10004C2F68EF8DE0CF910C94FB09CF93C82F25
:101F200021E0482F66EF80E00E94FB0921E04C2F62
:101F300069E684E00E94FB0921E04C2F63ED82E01A
:101F40000E94FB0921E04C2F60E087E00E94FB0922
:101F500021E04C2F63E78BE00E94FB0921E04C2F2E
:101F60006CED89E0CF910C94FB0921E0482F67E3E9
:101F70008EE00C94FB09CF93C82F6AEE7FEF80E0D0
:101F800090E00E949205873344F464E0680F21E0FA
:101F90004C2F8EE0CF910C94FB09CF910895CF93F5
:101FA000C82F6AEE7FEF80E090E00E949205823FAA
:101FB00044F06CEF680F21E04C2F8EE0CF910C9431
:101FC000FB09CF91089521E0482F61EF8EE00C943A
:101FD000FB0921E0482F6AE08EE00C94FB09CF93C7
:101FE000C82F21E0482F66EF80E00E94FB0921E026
:101FF0004C2F69E684E00E94FB0921E04C2F60E051
:1020000082E00E94FB0921E04C2F66EA81E00E94F9
:10201000FB0921E04C2F68EF83E00E94FB0921E0DF
:102020004C2F60E084E00E94FB0921E04C2F6DE220
:1020300080E00E94FB0921E04C2F66EF80E00E94C7
:10204000FB0921E04C2F6DE280E00E94FB0921E0BA
:102050004C2F66EF80E00E94FB098C2F0E94B50F89
:102060008C2F0E94E30F8C2F0E94E90F21E04C2F50
:1020700060E087E00E94FB0921E04C2F63E78BE0E2
:102080000E94FB0921E04C2F60E089E00E94FB09DF
:1020900021E04C2F6CE488E00E94FB0921E04C2FEA
:1020A00060E08AE00E94FB0921E04C2F60E08BE0B9
:1020B000CF910C94FB09FF920F931F93CF93DF9363
:1020C000D82F64EE7FEF80E090E00E949205F82E1A
:1020D00065EE7FEF80E090E00E949205082F66EEAB
:1020E0007FEF80E090E00E949205182F67EE7FEF6F
:1020F00080E090E00E949205C82F84E28F153CF4A6
:102100006CEF6F0D21E04D2F88E00E94FB09083233
:102110003CF464E0600F21E04D2F89E00E94FB0950
:102120001B303CF06DEF610F21E04D2F8AE00E94E3
:10213000FB091C1664F46DEF6C0F21E04D2F8BE052
:10214000DF91CF911F910F91FF900C94FB09DF91CC
:10215000CF911F910F91FF900895FF920F931F93BE
:10216000CF93DF93D82F6DED7FEF80E090E00E945A
:102170009205F82E6EED7FEF80E090E00E949205D0
:10218000082F6FED7FEF80E090E00E949205182FFE
:1021900060EE7FEF80E090E00E949205C82F8CED0A
:1021A000F8163CF464E06F0D21E04D2F81E00E94B1
:1021B000FB0908323CF464E0600F21E04D2F82E01F
:1021C0000E94FB091B303CF06DEF610F21E04D2FA9
:1021D00083E00E94FB091C1664F46DEF6C0F21E094
:1021E0004D2F84E0DF91CF911F910F91FF900C94C0
:1021F000FB09DF91CF911F910F91FF900895FF92FE
:102200000F931F93CF93DF93D82F64EE7FEF80E07F
:1022100090E00E949205F82E65EE7FEF80E090E05E
:102220000E949205082F66EE7FEF80E090E00E940A
:102230009205182F67EE7FEF80E090E00E949205F4
:10224000C82F83E68F153CF064E06F0D21E04D2F21
:1022500088E00E94FB0908323CF464E0600F21E052
:102260004D2F89E00E94FB091B303CF06DEF610FA0
:1022700021E04D2F8AE00E94FB091C1664F46DEFEB
:102280006C0F21E04D2F8BE0DF91CF911F910F91CB
:10229000FF900C94FB09DF91CF911F910F91FF905C
:1022A0000895FF920F931F93CF93DF93D82F6DED77
:1022B0007FEF80E090E00E949205F82E6EED7FEFB8
:1022C00080E090E00E949205082F6FED7FEF80E0A4
:1022D00090E00E949205182F60EE7FEF80E090E082
:1022E0000E949205C82F8DE9F8163CF06CEF6F0D37
:1022F00021E04D2F81E00E94FB0908323CF464E0AC
:10230000600F21E04D2F82E00E94FB091B303CF062
:102310006DEF610F21E04D2F83E00E94FB091C1639
:1023200064F46DEF6C0F21E04D2F84E0DF91CF91CD
:102330001F910F91FF900C94FB09DF91CF911F919A
:102340000F91FF900895CF93C82F6CED7FEF80E041
:1023500090E00E9492058D3744F465E0680F21E01B
:102360004C2F80E0CF910C94FB09CF910895CF932F
:10237000C82F6CED7FEF80E090E00E949205873FD0
:1023800044F06BEF680F21E04C2F80E0CF910C946C
:10239000FB09CF910895CF93C82F63EE7FEF80E0C4
:1023A00090E00E9492058A3044F465E0680F21E0D5
:1023B0004C2F87E0CF910C94FB09CF910895CF93D8
:1023C000C82F63EE7FEF80E090E00E949205843892
:1023D00044F06BEF680F21E04C2F87E0CF910C9415
:1023E000FB09CF910895CF93C82F62EE7FEF80E075
:1023F00090E00E9492058C3344F465E0680F21E080
:102400004C2F86E0CF910C94FB09CF910895CF9388
:10241000C82F62EE7FEF80E090E00E949205803C42
:1024200044F06BEF680F21E04C2F86E0CF910C94C5
:10243000FB09CF910895CF93C82F69EE7FEF80E01D
:1024400090E00E9492058A3044F465E0680F21E034
:102450004C2F8DE0CF910C94FB09CF910895CF9331
:10246000C82F69EE7FEF80E090E00E9492058938E6
:1024700044F06BEF680F21E04C2F8DE0CF910C946E
:10248000FB09CF910895CF93C82F61EE7FEF80E0D5
:1024900090E00E9492058D3744F465E0680F21E0DA
:1024A0004C2F85E0CF910C94FB09CF910895CF93E9
:1024B000C82F61EE7FEF80E090E00E9492058438A3
:1024C00044F06BEF680F21E04C2F85E0CF910C9426
:1024D000FB09CF910895CF93C82F68EE7FEF80E07E
:1024E00090E00E9492058D3744F465E0680F21E08A
:1024F0004C2F8CE0CF910C94FB09CF910895CF9392
:10250000C82F68EE7FEF80E090E00E94920584384B
:1025100044F06BEF680F21E04C2F8CE0CF910C94CE
:10252000FB09CF910895CF93C82F21E0482F60E099
:1025300087E00E94FB0921E04C2F6AE58BE00E94B6
:10254000FB0921E04C2F60E089E00E94FB0921E0BB
:102550004C2F60E08AE00E94FB0921E04C2F64E6EA
:1025600088E00E94FB0921E04C2F68E789E00E9487
:10257000FB0921E04C2F6CE38CE00E94FB0921E079
:102580004C2F60EB8DE0CF910C94FB09CF92DF9242
:10259000EF920F931F93CF93DF936C01162FD42FDD
:1025A000C22F8FEF94E00E948523C6010E94B123C1
:1025B0008AE30E94772380E20E94772386E095E0F9
:1025C0000E948523812F0E9498238AE30E9477230B
:1025D00080E20E9477238EE095E00E9485238D2F74
:1025E0000E9498238AE30E94772380E20E94772347
:1025F00084E195E00E9485238C2F0E9498238AE332
:102600000E94772380E20E9477238BE195E00E946D
:102610008523802F0E9498238AE30E94772380E2FB
:102620000E94772381E295E00E9485238E2D0E94EF
:1026300098238DE00E9477238AE0DF91CF911F914C
:102640000F91EF90DF90CF900C9477234F925F9291
:102650006F927F928F929F92AF92BF92CF92DF92B2
:10266000EF92FF92CF93DF9300D000D0CDB7DEB7CB
:1026700020E030E048EC52E40E9482290E943F2A88
:1026800020E030E048EC52E40E94D2276B017C014C
:1026900020E030E040E251E40E94D2274B015C018F
:1026A00020E030E040E452E40E9461270E94442888
:1026B000862F0E947723C501B4010E94B0282B0108
:1026C0003C0120E030E040E452E4C701B6010E9442
:1026D00061274B015C0120E030E040E251E4C3019E
:1026E000B2010E9482299B01AC01C501B4010E9484
:1026F00060270E944428862F0E9477238EE20E9442
:10270000772320E030E040E251E4C701B6010E94A7
:1027100082294B015C01C701B6010E94B0282B0140
:102720003C0120E030E040E452E4C501B4010E94E5
:10273000612769837A838B839C8320E030E040E2C9
:1027400051E4C301B2010E9482299B01AC0169815D
:102750007A818B819C810E9460270E944428862F69
:102760000E947723C501B4010E94B0284B015C018F
:1027700020E030E048EC52E4C701B6010E94822913
:1027800020E030E040E452E40E9461276B017C01CC
:1027900020E030E040E251E4C501B4010E9482290A
:1027A0009B01AC01C701B6010E9460270E9444282A
:1027B000862F0E94772387E499E10F900F900F9066
:1027C0000F90DF91CF91FF90EF90DF90CF90BF906F
:1027D000AF909F908F907F906F905F904F900C94F0
:1027E00085230F931F93CF93DF938C01EB0187E237
:1027F00095E00E9485238BE395E00E948523C80124
:102800000E94B12380E20E9477238AE30E9477230B
:1028100080E20E94772384E495E00E948523CE0124
:102820000E94B12386E796E1DF91CF911F910F912E
:102830000C948523FC0140E050E0A6E0B8E0461788
:10284000570788F420E030E02E173F0731F08A2F39
:102850008A95F1F72F5F3F4FF7CF95B19B2795B939
:102860004E0F5F1FECCF0895609100017091010140
:1028700083E194E00E941A146091000170910101BB
:1028800081EA93E00E941A146091000170910101A5
:1028900089E492E00E941A140E94B2070E94BD07C8
:1028A0008CE495E00E9419088BE595E00E941908D8
:1028B00089E695E00E9485238CE995E00E948523B6
:1028C00080ED95E00E94852387E096E00E948523B5
:1028D0008CE296E00E94852382E696E00E948523A2
:1028E00080E996E00E94852386EC96E00E9485238D
:1028F00081E097E00E9485238EE297E00E94852385
:1029000081E597E00E94852382E897E00E94852375
:102910008CE995E00E94852383EA97E00E94852355
:1029200081EE97E00E94852383E098E00E94852352
:102930008DE298E00E9485238BE498E00E94852335
:102940008AE698E00E9485238CE995E00E94852321
:102950008AE898E00E94852389EC98E00E9485230C
:1029600087EE98E00E94852386E099E00E94852307
:1029700082E299E00E94852384E499E00E94852305
:1029800082E699E00E94852388E899E00E948523E9
:102990008EEA99E00E9485238CE995E00E948523C8
:1029A00088EE99E00E94852387E29AE00E948523C1
:1029B00082E69AE00E94852383ED9AE00E948523B7
:1029C00084E49BE00E9485238EE69BE00E948523A1
:1029D00081E99BE00E9485238AEB9BE00E9485238E
:1029E00083EE9BE00E94852382E19CE00E94852388
:1029F00081E49CE00E94852380E79CE00E9485237F
:102A00008FE99CE00E9485238EEC9CE00E94852348
:102A10008AEF9CE00E94852387E29DE00E94852347
:102A200084E59DE00E94852382E89DE00E94852345
:102A300083EC9DE00E94852384E09EE00E94852334
:102A400085E49EE00E9485238CE995E00E94852321
:102A500086E89EE00E94852385EC9EE00E94852307
:102A60008AEF9EE00E9485238FE29FE00E948523EB
:102A700084E69FE00E94852389E99FE00E948523E8
:102A800080ED9FE00E94852387E090E10E948523EE
:102A90008EE390E10E94852385E790E10C948523E5
:102AA000809106018F5F80930601809106018D3031
:102AB00058F010920601809107019091080101964B
:102AC00090930801809307010895809105018F5F1D
:102AD0008093050180910501803220F0109205015C
:102AE0000C9450150895809104018F5F8093040128
:102AF00080910401883120F0109204010E94651534
:102B0000609100017091010180ED91E00E941A1422
:102B100088EE93E024EF31E0F9013197F1F7019766
:102B2000D9F760910001709101018DE093E00E945E
:102B30001A1488EE93E024EF31E0F9013197F1F7B0
:102B40000197D9F760910001709101018DE093E048
:102B50000E941A1488EE93E024EF31E0F9013197D6
:102B6000F1F70197D9F7609100017091010180EDB3
:102B700091E00E941A1488EE93E024EF31E0F9010D
:102B80003197F1F70197D9F7609100017091010138
:102B900080ED91E00C941A14CF92DF92EF92FF92A5
:102BA000809103018F5F80930301809103018C3337
:102BB00020F0109203010E9473150E94B2076091E9
:102BC00000017091010189E492E00E941A1488EEDC
:102BD00093E024EF31E0F9013197F1F70197D9F74C
:102BE000609100017091010188ED93E00E941A1438
:102BF00088EE93E024EF31E0F9013197F1F7019786
:102C0000D9F7609100017091010188ED93E00E9475
:102C10001A140E944E05BC0180E090E00E947328C7
:102C200022E630E140E450E40E94822926EB33EFB3
:102C300041EA50E40E94822920E030E040E859E374
:102C40000E9482296093AD1D7093AE1D8093AF1DCD
:102C50009093B01D84EB90E10E9485236091AD1D9F
:102C60007091AE1D8091AF1D9091B01D0E942613F2
:102C70008091B01D8F938091AF1D8F938091AE1D79
:102C80008F938091AD1D8F9382ED90E19F938F93F1
:102C900087EE9DE19F938F930E94252D0E94B2079E
:102CA0000E94BD0788ED90E10E94190887EE9DE122
:102CB0000E94190881EE90E10E9419080E943606D0
:102CC0000E94740680939D1D2DB73EB7285F3F4F2D
:102CD0000FB6F8943EBF0FBE2DBF80FD11C081E737
:102CE00092E00E9485230E94D60690939C1D8093BB
:102CF0009B1D0E94B12387E499E10E94852308C0AF
:102D000085EE90E10E9485230E94740680939D1DAC
:102D100080919C1D8F9380919B1D8F9389EF90E1F3
:102D20009F938F9381E19EE19F938F930E94252D26
:102D30008CEF90E10E94190881E19EE10E94190840
:102D400084E091E10E941908C090AD1DD090AE1DA5
:102D5000E090AF1DF090B01D0F900F900F900F906E
:102D60000F900F9020E030E040E751E4C701B6013A
:102D70000E947D2987FD03C080EF9FEF36C020E0D1
:102D800030E040E651E4C701B6010E947D2987FD8D
:102D900003C080EE9FEF29C020E030E040E551E421
:102DA000C701B6010E947D2987FD03C083EC9FEF18
:102DB0001CC020E030E040E251E4C701B6010E94AF
:102DC0007D2987FD03C087EC9FE30FC020E030E042
:102DD00040E251E4C701B6010E94CD2787FF03C03E
:102DE0008FE99FEB02C08FE79FE3FF90EF90DF90AA
:102DF000CF900C941B23809102018F5F809302017E
:102E0000809102018C3320F0109202010E94CC15B7
:102E100060910001709101018DE693E00E941A1407
:102E200084EF91E024EF31E0F9013197F1F7019758
:102E3000D9F760910001709101018DE093E00C944D
:102E40001A1486B182FB882780F98093E01D86B131
:102E500083FB882780F98093BF1D8091E01D81113D
:102E600013C08091BF1D882331F08091E31D9091A4
:102E7000E41D019605C08091E31D9091E41D01972A
:102E80009093E41D8093E31D089586B1829581702F
:102E90008093BE1D86B185FB882780F98093B41D81
:102EA0008091BE1D811113C08091B41D811106C097
:102EB0008091C71D9091C81D019605C08091C71DC6
:102EC0009091C81D01979093C81D8093C71D0895C8
:102ED0000E94B2070E94BD0787E091E10E94190895
:102EE000609100017091010186EB91E00E941A143B
:102EF00084EF91E024EF31E0F9013197F1F7019788
:102F0000D9F7609100017091010186EB91E00E9478
:102F10001A1484EF91E024EF31E0F9013197F1F7D1
:102F20000197D9F7609100017091010186EB91E062
:102F30000E941A1480E197E224EF31E0F901319701
:102F4000F1F70197D9F783E191E10E94852385E3A9
:102F500091E10E94852389E591E10E94852360919A
:102F600000017091010186EB91E00E941A1483E741
:102F700091E10E9485230E94B2070E94BD0783E869
:102F800091E10E9419080E94C0248093060160917B
:102F900000017091010186EB91E00E941A148BE808
:102FA00091E10E9485230E94B2070E94BD0789E932
:102FB00091E10E9419080E94C0248093050160914C
:102FC00000017091010186EB91E00E941A148FE9D3
:102FD00091E10E9485230E94B2070E94BD078EEAFC
:102FE00091E10E9419080E94C0248093040160911D
:102FF00000017091010186EB91E00E941A1485EBAB
:1030000091E10E9485230E94B2070E94BD0787ECD0
:1030100091E10E9419080E94C024809303016091ED
:1030200000017091010186EB91E00E941A1481ED7C
:1030300091E10E9485230E94B2070E94BD0783EEA2
:1030400091E10E941908609100017091010186EBE5
:1030500091E00E941A140E94C024809302016091A2
:1030600000017091010186EB91E00E941A14109208
:10307000A11D1092A01D87E499E10E9485238DEE89
:1030800091E10E94852380E292E10E9485230E94C3
:10309000B2070E94BD078AE392E10E94190888E9FD
:1030A0009AE324EF31E0F9013197F1F70197D9F76D
:1030B0000C94B2070E94B2070E94BD0782E492E11D
:1030C0000E94190883E592E10E94190860910001AD
:1030D0007091010183E194E00E941A146091000153
:1030E0007091010181EA93E00E941A14609100013D
:1030F0007091010189E492E00E941A1483E191E148
:103100000E94852385E391E10E9485238BE592E16E
:103110000E94852385E992E10E94852380E197E260
:1031200024EF31E0F9013197F1F70197D9F70E94C7
:10313000B2070E94BD0785EB92E10E9419080E9428
:10314000C02480930E01609100017091010186EB13
:1031500091E00E941A1480EC92E10E9485230E9463
:10316000B2070E94BD078CEE92E10E9419080E94EE
:10317000C02480930F01609100017091010186EBE2
:1031800091E00E941A1488EF92E10E94852380E169
:1031900097E224EF31E0F9013197F1F70197D9F780
:1031A0000E94B2070E94BD0789E193E10E941908BD
:1031B0000E94C02480930B01609100017091010175
:1031C00086EB91E00E941A1486E293E10E94852327
:1031D00080E197E224EF31E0F9013197F1F70197AF
:1031E000D9F70E94B2070E94BD078CE493E10E94C8
:1031F00019080E94C02480930D0160910001709114
:10320000010186EB91E00E941A148BE593E10E9484
:10321000852380E197E224EF31E0F9013197F1F75E
:103220000197D9F70E94B2070E94BD0786E893E193
:103230000E9419088CEE92E10E9419080E94C02495
:1032400080930C01609100017091010186EB91E087
:103250000E941A1487E993E10E94852380E197E296
:1032600024EF31E0F9013197F1F70197D9F70E9486
:10327000B2070E94BD0788EB93E10E9419080E94E3
:10328000C02480930A01609100017091010186EBD6
:1032900091E00E941A1485EC93E10E94852380E15D
:1032A00097E224EF31E0F9013197F1F70197D9F76F
:1032B0000E94B2070E94BD0784EF93E10E941908A3
:1032C00085E094E10E9419080E94C02480930901BE
:1032D000609100017091010186EB91E00E941A1447
:1032E00086E194E10E94852384E594E10E94852390
:1032F0000E94B2070E94BD078FE694E10E94190860
:103300008AE392E10E94190888E99AE324EF31E008
:10331000F9013197F1F70197D9F70C94B2070E94A0
:10332000B2070E94BD0780E894E10E94190881E974
:1033300094E10E941908609100017091010183E1FC
:1033400094E00E941A14609100017091010181EAD9
:1033500093E00E941A14609100017091010189E4C8
:1033600092E00E941A1483E191E10E94852385E393
:1033700091E10E9485238DE994E10E94852360916B
:1033800000017091010186EB91E00E941A1482EC19
:1033900094E10E948523609100017091010186EB08
:1033A00091E00E941A1481EE94E10E9485230E940C
:1033B0007E238093C21D609100017091010186EB14
:1033C00091E00E941A148091C21D893709F0A8C0AB
:1033D0008EEF94E10E94852384E295E10E9485238B
:1033E000609100017091010186EB91E00E941A1436
:1033F0000E943C2570939F1D60939E1D86E595E17C
:103400000E94852380919E1D90919F1D0E94B12353
:1034100087E499E10E9485230E94B2070E94BD07BC
:1034200086E695E10E9419081092221E1092231E32
:103430001092241E1092251E10921E1E10921F1E06
:103440001092201E1092211E1092C31D1092C41DB6
:103450001092C51D1092C61D80919E1D90919F1DBA
:10346000A0E0B0E04091C31D5091C41D6091C51D06
:103470007091C61D84179507A607B70708F444C0C6
:103480000E94122640911E1E50911F1E6091201E08
:103490007091211E8091221E9091231EA091241EC6
:1034A000B091251E840F951FA61FB71F80931E1E67
:1034B00090931F1EA093201EB093211E88E795E1D4
:1034C0000E94852360911E1E70911F1E8091201EF8
:1034D0009091211E0E94EC2387E499E10E948523AC
:1034E0008091C31D9091C41DA091C51DB091C61DB2
:1034F0000196A11DB11D8093C31D9093C41DA0937F
:10350000C51DB093C61DA8CF85E895E10E9485230F
:103510000E94B2070E94BD0786EA95E10C94190843
:10352000609100017091010186EB91E00E941A14F4
:1035300086EB95E10C948523609100017091010167
:1035400083E194E00E941A146091000170910101DE
:1035500081EA93E00E941A146091000170910101C8
:1035600089E492E00E941A140E94B2070E94BD07EB
:103570008BED95E10E9419088AEE95E10E94852362
:103580008AE096E10E9485238CE296E10E948523E1
:103590008EE496E10E9485231092CA1D1092C91DE7
:1035A0008091C91D9091CA1DC39740F585E796E1AA
:1035B0000E9485238091C91D0E94982384E796E18B
:1035C0000E9485236091C91D7091CA1D80E090E022
:1035D0000E9492050E94982384E796E10E94852329
:1035E00087E499E10E9485238091C91D9091CA1DAD
:1035F00001969093CA1D8093C91DD2CF88E796E1AA
:103600000E94852380EA96E10E9485230E947E2302
:10361000853601F1873739F581E397E10E948523EB
:103620000E94C0248093B31D8FE697E10E948523FA
:103630000E94C024482F90E09093CA1D8093C91D1A
:103640006091B31D70E080E090E00E94AA0587E4DD
:1036500099E10BC08EEC96E10E9485230E94110631
:1036600084E197E102C08CEA97E10C948523EF9204
:10367000FF920F931F93CF93DF9362E070E080E09F
:1036800090E00E94C9059093E61D8093E51D0E947D
:10369000BD070E94B20783EC97E10E9419081F92B0
:1036A00085E08F9388EB92E09F938F930E9445086B
:1036B00084ED97E10E94852385E00E9498238AEE9D
:1036C00097E10E9485230F900F900F900F9080E05C
:1036D00090E0DC0144EF51E085309105A105B10592
:1036E00061F020E137E2FA013197F1F72150310919
:1036F000D1F70196A11DB11DEFCF8093C31D90930B
:10370000C41DA093C51DB093C61D8091C00087FF46
:1037100010C08091C6008D3661F481E08093E21D77
:10372000C0E0D0E00CE310E094EFE92EFF24F39426
:1037300006C01092E21DC0E0D0E00AC12C9A809130
:10374000E21D882309F404C189E098E10E948523E1
:103750000E94B2070E94BD078DE398E10E941908FC
:1037600060E070E0CB010E94C905A0E0B0E080936A
:10377000B91D9093BA1DA093BB1DB093BC1D8CE8DE
:1037800092E00E9485238091B91D9091BA1D049703
:103790000E94B12382E598E10E9485238CE892E0A3
:1037A0000E9485238091E51D9091E61D0E94B12322
:1037B00088E698E10E94852387E898E10E948523A6
:1037C0008BEA98E10E94852380ED98E10E94852391
:1037D00085EF98E10E94852389E199E10E94852384
:1037E00080E399E10E9485230E947E238F3309F4B0
:1037F0006AC038F48C3309F44BC08E3309F453C0DB
:10380000A2C0853609F466C0833709F47BC08436CC
:1038100009F099C02C9883E00E947A0564E070E07A
:1038200080E090E00E947F0584E090E0A0E0B0E0BE
:103830008093C31D9093C41DA093C51DB093C61D56
:103840004091C31D5091C41D6091C51D7091C61D4E
:103850008091B91D9091BA1DA091BB1DB091BC1D66
:10386000481759076A077B0708F068CF80E00E9475
:103870007A058EB50E945D098091C31D9091C41D8B
:10388000A091C51DB091C61D0196A11DB11DD0CF3F
:103890004091E51D5091E61D4A30510508F44FCF87
:1038A000455051090BC04091E51D5091E61D483E21
:1038B0008DEF580708F043CF4B5F5F4F5093E61DE5
:1038C0004093E51D18C01093E61D0093E51D4CE3E1
:1038D00050E011C08AE499E10E9485230E941106FC
:1038E00044E050E060E070E0CB010E94F0054091C0
:1038F000E51D5091E61D62E070E080E090E00E94DE
:10390000F0051DCF8AE799E10E9485230E94E424F7
:10391000EC0187E499E10E94852387E999E10E94FF
:1039200085230E94B2070E94BD078EEA99E10E949A
:10393000190880E29EE4F7013197F1F70197D9F772
:103940001092E21DFCCE8DEB99E10E948523F7CE0B
:103950000E94B2070E94BD0700E010E084EFE82E4D
:10396000FF24F39460E070E0CB010E94C905A0E061
:10397000B0E08093B91D9093BA1DA093BB1DB09386
:10398000BC1D0E94460780E90E945F0780E00E94FC
:103990005F070E94460781E90E945F070E944F0768
:1039A0008093E11D0E9457078093BD1D0E944B0725
:1039B0000E94460780E90E945F0780E00E945F073F
:1039C0000E94460781E90E945F070E944F0780938B
:1039D000E11D0E9457078093BD1D0E944B078091F7
:1039E000E11D982F990F8091BD1D881F8827881F82
:1039F000892B8093DF1D0E945D096091B91D709134
:103A0000BA1D8091BB1D9091BC1D4091DF1D0E948D
:103A1000AA054091B91D5091BA1D6091BB1D7091CE
:103A2000BC1D4F3F8FEF580761057105E0F00F5F38
:103A30001F4FC017D10708F095CF8EED99E10E9476
:103A400085230E94B2070E94BD0788EF99E10E947A
:103A5000190889E09AE1DF91CF911F910F91FF90B2
:103A6000EF900C9419084F5F5F4F6F4F7F4F40935B
:103A7000B91D5093BA1D6093BB1D7093BC1D60E0CF
:103A800070E0CB010E94F0054091E51D5091E61DCC
:103A900060E070E080E090E0DC0184179507A60705
:103AA000B70760F420E137E2F7013197F1F72150D1
:103AB0003109D1F70196A11DB11DEFCF8093C31D30
:103AC0009093C41DA093C51DB093C61DB0CF0E9496
:103AD000B2070E94BD0784E19AE10E94190884E0C0
:103AE0000E9436059093B21D8093B11D84E29AE145
:103AF0000E94852380910F1E9091101E0E94B12379
:103B000086E796E10E94852386E00E943605909321
:103B1000101E80930F1E85E39AE10E9485238091F9
:103B2000B11D9091B21D0E94B1238091B11D909161
:103B3000B21D0E942E239B01AC01CB01DA018093C0
:103B4000B51D9093B61DA093B71DB093B81D5F939C
:103B50004F933F932F9382ED90E19F938F938BEC44
:103B60009DE19F938F930E94252D84E59AE10E9409
:103B700085238BEC9DE10E9485238DB79EB7089627
:103B80000FB6F8949EBF0FBE8DBF87EC9CE10C94DE
:103B90008523EF920F930E94B2070E94BD0786E62D
:103BA0009AE10E9419089BB184E089278BB984E0CF
:103BB0000E9436059093B21D8093B11D84E29AE174
:103BC0000E94852380910F1E9091101E0E94B123A8
:103BD00086E796E10E94852386E00E943605909351
:103BE000101E80930F1E85E39AE10E948523809129
:103BF000B11D9091B21D0E94B1238091B11D909191
:103C0000B21D0E942E239B01AC01CB01DA018093EF
:103C1000B51D9093B61DA093B71DB093B81D5F93CB
:103C20004F933F932F9382ED90E19F938F938BEC73
:103C30009DE19F938F930E94252D84E59AE10E9438
:103C400085238BEC9DE10E94852387EC9CE10E94FB
:103C500085230E9472236091C71D7091C81D8091B9
:103C6000E31D9091E41D0E94F11386E796E10E9406
:103C70008523E0900201009103012091040140910D
:103C800005016091060180910701909108010E9451
:103C9000C6128DB79EB708960FB6F8949EBF0FBE9A
:103CA0008DBF87EC9CE10F91EF900C948523809160
:103CB000C00087FFFFC0E091C6008E2F90E0FC019E
:103CC000B397E435F10508F0DFC0EA5BFF4F0C94D1
:103CD00035270C9468170C945A1860910E018AEAE3
:103CE00092E004C060910E0187E992E00C94A30970
:103CF00060910E0185EA92E0F9CF60910E018FE9A3
:103D000092E0F4CF60E083EB92E00E94A309D0C080
:103D10006FEF80910F0104C080910F016FEF8195CB
:103D20000C944E2386E20C94BB0F80910B010C94F3
:103D3000E90F86E20C94CF0F8FEF9FEF0E941B23B9
:103D400087E79AE192C080E090E00E941B238CE814
:103D50009AE18BC00C94D60C80910D010C94270D28
:103D600080910D010C947E0D80910D010C94AB0D92
:103D700080910D010C942F0E80910D010C945C0E1E
:103D800080910D010C94D80D80910D010C94890E39
:103D900080910D010C94E00E80910D010C94370F71
:103DA00080910D010C948E0F80910D010C94EF0FFA
:103DB00080910A010C942F1280910A010C941B121D
:103DC00080910A010C94071280910A010C94F3115E
:103DD000809109010C946B12809109010C947F125F
:103DE000809109010C944312809109010C9457129F
:103DF0008EE10C94931280910C010C94CB11809164
:103E00000C010C94DF1180910C010C94A311809192
:103E10000C010C94B71183E20C945B1083E20C94B8
:103E2000FF1083E20C94AD1083E20C9451110C94BA
:103E30008F190C94371B0C949C1A0C94671D0E94CC
:103E400036060E94740680939D1D80FD10C081E798
:103E500092E00E9485230E94D60690939C1D809339
:103E60009B1D0E94B12387E499E10C94852385EE84
:103E700090E10E9485230E94740680939D1D089501
:103E80000C94C91D0C94341482EA9AE10E94852393
:103E9000609100017091010186EB91E00E941A147B
:103EA00060910001709101018EE991E00E941A1465
:103EB0000C94722308951F920F920FB60F92112443
:103EC0008F939F938091A01D9091A11D0196909337
:103ED000A11D8093A01D9F918F910F900FBE0F90F9
:103EE0001F9018951F920F920FB60F9211240BB6C8
:103EF0000F928F939F93EF93FF93E091A81D809172
:103F00001001E80FE770E093A81DF0E0E65AF24ECA
:103F1000808185B9E091A81DF0E0E65AF24E8081DB
:103F200088B98091A61D9091A71D01969093A71D19
:103F30008093A61DFF91EF919F918F910F900BBEE3
:103F40000F900FBE0F901F9018951F920F920FB6F3
:103F50000F9211240BB60F922F933F934F935F93C1
:103F60006F937F938F939F93AF93BF93EF93FF9341
:103F70000E9421170E944517FF91EF91BF91AF91C9
:103F80009F918F917F916F915F914F913F912F9171
:103F90000F900BBE0F900FBE0F901F9018951895A5
:103FA0000E94920987EC9AE10E9485230E946B058A
:103FB0008AEE9AE10E9485230E9435078CE09BE1FE
:103FC0000E9485230E94C4078FE29BE10E94852303
:103FD00084B5826084BD85B5856085BD8FEF87BD62
:103FE00081E59BE10E948523809180008160809320
:103FF00080008091810083608093810080918000A7
:10400000806A8093800080916F00816080936F0050
:1040100087E79BE10E9485238091B00081608093B7
:10402000B0008091B10084608093B1008091B000B5
:10403000806A8093B0008DE99BE10E948523809186
:10404000910081608093910083EC9BE10E94852325
:1040500080917C00806480937C0080917A008660EF
:1040600080937A0080917A00806880937A0089EE4C
:104070009BE10E94852380916800846080936800A2
:1040800080916D00846080936D008BE09CE10E94C4
:1040900085230E942C0580917E00806F80937E0096
:1040A00088B18C6388B981B1836081B981B18C603A
:1040B00081B984B1836084B987B1806C87B9239A50
:1040C000529A78948EE29CE10E94852381E69CE1DD
:1040D0000E94852385E99CE10E94852389E695E07D
:1040E0000E9485238CE995E00E94852380ED95E070
:1040F0000E94852387E096E00E9485238CE296E06B
:104100000E94852382E696E00E94852380E996E05E
:104110000E94852386EC96E00E94852381E097E04B
:104120000E9485238EE297E00E94852381E597E037
:104130000E94852382E897E00E9485238CE995E020
:104140000E94852383EA97E00E94852381EE97E011
:104150000E94852383E098E00E9485238DE298E009
:104160000E9485238BE498E00E9485238AE698E0EC
:104170000E9485238CE995E00E9485238AE898E0D7
:104180000E94852389EC98E00E94852387EE98E0C1
:104190000E94852386E099E00E94852382E299E0CF
:1041A0000E94852384E499E00E94852382E699E0B9
:1041B0000E94852388E899E00E9485238EEA99E091
:1041C0000E9485238CE995E00E94852388EE99E082
:1041D0000E94852387E29AE00E94852382E69AE086
:1041E0000E94852383ED9AE00E94852384E49BE06E
:1041F0000E9485238EE69BE00E94852381E99BE057
:104200000E9485238AEB9BE00E94852383EE9BE03E
:104210000E94852382E19CE00E94852381E49CE04A
:104220000E94852380E79CE00E9485238FE99CE023
:104230000E9485238EEC9CE00E9485238AEF9CE0FF
:104240000E94852387E29DE00E94852384E59DE00E
:104250000E94852382E89DE00E94852383EC9DE0F7
:104260000E94852384E09EE00E94852385E49EE0F1
:104270000E9485238CE995E00E94852386E89EE0D4
:104280000E94852385EC9EE00E9485238AEF9EE0B4
:104290000E9485238FE29FE00E94852384E69FE0B1
:1042A0000E94852389E99FE00E94852380ED9FE09D
:1042B0000E94852387E090E10E9485238EE390E1B0
:1042C0000E94852385E790E10E9485238BEC9CE189
:1042D0000E9485230E9446070E94C40786E3E82EB9
:1042E0008DE1F82ECAE4DDE1870194EFC92EDD24CB
:1042F000D3940E94BD0782EE9CE10E94190883EFCF
:104300009CE10E94190880E090E00E941B236091CC
:10431000000170910101F801819191918F010E943A
:104320001A1484EF91E0F6013197F1F70197D9F76C
:10433000C017D107F1F60E94B20700E513EC0E9406
:10434000BD0783E09DE10E9419088FEF9FEF0E9457
:104350001B236091000170910101888199810E9465
:104360001A14C8010197F1F72297EC16FD0639F7E8
:104370000E94B207CCE0D0E004EF11E00E94BD073C
:1043800083E19DE10E94190884E29DE10E941908E1
:1043900080E090E00E941B23609100017091010178
:1043A00088ED93E00E941A1488EE93E0F8013197AB
:1043B000F1F70197D9F760910001709101018DE645
:1043C00093E00E941A148FEF9FEF0E941B23219706
:1043D000A9F60E94B2070E944B07C0E5D0E008EBA7
:1043E00018E8BE010D2E000C880B990B0E94752851
:1043F000AB01BC0180E00E949822C8010197F1F74F
:104400002196CE3BD10569F762E370E080EA0E9415
:104410001F2221E042E36AE08EE00E94FB098091C6
:10442000A01D9091A11D843C944031F41092A11DD7
:104430001092A01D0E94FB160E94571EF0CFEF9213
:10444000FF921F93CF93DF931F92CDB7DEB7182F44
:104450007B0170931D1E60931C1E80931B1E0E9487
:104460004607812F0E945F0780E00E945F0781E37B
:104470000E945F070E944B07B70180E090E00E9416
:10448000732820E030E040E855E40E9482292FE1C3
:1044900035E84BE65FE30E9482299B01AC0160E2B4
:1044A0007CEB8EEB9BE40E94D22720E030E040E8DA
:1044B0005FE30E9460270E94442869830E944607A8
:1044C000812F0E945F078EEF0E945F0789810E9403
:1044D0005F070E944B0787E893E10197F1F700C05F
:1044E00000000E944607812F0E945F0780E00E9423
:1044F0005F0781EA0E945F070E944B0787E893E10C
:104500000197F1F700C000000E944607812F0E942A
:104510005F0781E00E945F0784E00E945F070E94BE
:104520004B070F90DF91CF911F91FF90EF9008956F
:10453000CF92DF92EF92FF92CF93C82F6A017B0157
:1045400020E030E04AEF52E4C701B6010E947D2925
:1045500018168CF020E030E04AEF52ECC701B601AB
:104560000E94CD2787FF0DC0C12CD12C9AEFE92ED8
:1045700092ECF92E06C0C12CD12C8AEFE82E82E4F1
:10458000F82E25E535E545ED50E4C701B6010E945A
:10459000822920E030E84BEB54E40E9461270E941E
:1045A000442880E090E00E9473286B017C016091B8
:1045B0001C1E70911D1E80E090E00E9473289B01DC
:1045C000AC0160E074E284E799E40E94D2270E9483
:1045D000442880E090E00E9473289B01AC01C70151
:1045E000B6010E94D22720E030E040E855E40E9466
:1045F00082290E9444287B010E94460780911B1E4D
:104600000E945F078C2F880F880F8A5F0E945F07C8
:1046100080E00E945F0780E00E945F078E2D0E946D
:104620005F078F2D0E945F07CF91FF90EF90DF9083
:10463000CF900C944B07CF93DF93D82FC92F0E94B4
:10464000460780E40E945F078D2F0E945F078C2F32
:104650000E945F07DF91CF910C944B07BC0180E073
:1046600090E00E94732829E23CE54FE65FEB0E9450
:10467000EF2922E538E646E256E40E94822920E04E
:1046800030E040E251E40E9460276093A21D7093E5
:10469000A31D8093A41D9093A51D0895181624F4BE
:1046A00092E09093100104C09EEF909310018195C9
:1046B00067BD1092A71D1092A61D90916E0092608A
:1046C00090936E00082E000C990B2091A61D30913E
:1046D000A71D82179307C9F780916E008D7F809385
:1046E0006E000895289829984698479808959091C3
:1046F000C00095FFFCCF8093C60008958091C00054
:1047000087FFFCCF8091C60008950F931F93CF932E
:104710008C01C0E0F801EC0FF11D8081882321F0AD
:104720000E947723CF5FF6CFCF911F910F9108950D
:10473000CF93C82F64E60E94F326805D0E94772302
:104740002AE08C2F622F0E94F326C92F0E94F326A5
:1047500080E3890F0E94772380E38C0FCF910C9424
:1047600077230F931F93CF93DF938C0160E177E260
:104770000E94FF2680E3860F0E947723C80168EE1F
:1047800073E00E94FF26CB01CAE0D0E0BE010E9488
:10479000FF26805D0E947723C80164E670E00E94D6
:1047A000FF26CB01BE010E94FF26805D0E94772379
:1047B000C801BE010E94FF26182FCB01BE010E9436
:1047C000FF26805D0E94772380E3810FDF91CF91E8
:1047D0001F910F910C9477238F929F92AF92BF926B
:1047E000CF92DF92EF92FF92CF934B015C0120E0DA
:1047F0003AEC4AE95BE30E94132780E3820F0E94B0
:104800007723C501B40120E031EE45EF55E00E9469
:1048100013278AE0C82ED12CE12CF12CCA01B90152
:10482000A70196010E94132780E3860F0E94772339
:10483000C501B40120E836E948E950E00E94132799
:10484000CA01B901A70196010E94132780E3860FD0
:104850000E947723C501B40120E432E44FE050E028
:104860000E941327CA01B901A70196010E941327CC
:1048700080E3860F0E947723C501B40120EA36E861
:1048800041E050E00E941327CA01B901A701960137
:104890000E94132780E3860F0E947723C501B4018D
:1048A00020E137E240E050E00E941327CA01B9013D
:1048B000A70196010E94132780E3860F0E947723A9
:1048C000C501B40128EE33E040E050E00E94132718
:1048D000CA01B901A70196010E94132780E3860F40
:1048E0000E947723C501B40124E630E040E050E0A7
:1048F0000E941327CA01B901A70196010E9413273C
:1049000080E3860F0E947723C501B401A7019601B9
:104910000E941327C62FCA01B901A70196010E9460
:10492000132780E3860F0E94772380E38C0FCF91BB
:10493000FF90EF90DF90CF90BF90AF909F908F90BF
:104940000C9477231F93CF93DF931F92CDB7DEB7DD
:10495000898317E0898190E0012E02C095958795A3
:104960000A94E2F780FF02C081E301C080E30E9465
:104970007723115078F70F90DF91CF911F91089511
:104980000F931F93CF93DF93D0E3C0E310E30E9414
:104990007E23082F0E9477230D3021F01C2FCD2F6E
:1049A000D02FF5CF1053D05384E6189FD00D11248B
:1049B000CC0FC0568C2F880F880F8C0F8D0FDF9176
:1049C000CF911F910F910895EF92FF920F931F9334
:1049D000CF93DF9300E3C0E3D0E310E380E3F82E4E
:1049E0000E947E23E82E0E9477238DE0E81631F0A6
:1049F000F12E1D2FDC2FC02F0E2DF2CF2F2D30E0EA
:104A00002053310980E197E2289FA001299F500D92
:104A1000389F500D1124212F30E02053310968EECA
:104A200073E0269FC001279F900D369F900D1124A3
:104A3000840F951F2D2F30E02053310964E6629FCB
:104A4000A001639F500D1124840F951F2C2F30E07F
:104A5000205331096AE0629FA001639F500D112429
:104A6000840F951F800F911DC097DF91CF911F91EB
:104A70000F91FF90EF9008957F928F929F92AF9247
:104A8000BF92CF92DF92EF92FF920F931F93CF933B
:104A9000DF93D0E3C0E310E300E380E3F82E90E37C
:104AA000E92E20E3D22E30E3C32E40E3742E50E3F0
:104AB000B52E0E947E23A82E0E9477238DE0A81693
:104AC00059F0B72C7C2CCD2CDE2CEF2CF02E012FA6
:104AD0001C2FCD2FDA2DEDCFAB2DB0E0D09720E0FD
:104AE0003AEC4AE95BE30E943E274B015C01A72DAB
:104AF000B0E0D09720E031EE45EF55E00E943E2730
:104B0000860E971EA81EB91EAC2DB0E0D09720E8E7
:104B100036E948E950E00E943E27860E971EA81EFF
:104B2000B91EAD2DB0E0D09720E432E44FE050E064
:104B30000E943E27860E971EA81EB91EAE2DB0E01D
:104B4000D09720EA36E841E050E00E943E27860EEA
:104B5000971EA81EB91E8F2D90E0C09740E157E226
:104B6000849F9001859F300D949F300D1124C901C1
:104B7000330FAA0BBB0B880E991EAA1EBB1E802FDB
:104B800090E0C09728EE33E0829FA001839F500DF4
:104B9000929F500D1124CA01550FAA0BBB0BB501F2
:104BA000A401480F591F6A1F7B1F812F90E0C097F7
:104BB00024E6289F4001299F900C1124C401990CE0
:104BC000AA0BBB0B4A015B01880E991EAA1EBB1ED5
:104BD0002C2F30E0205331094AE0429FC001439F0F
:104BE000900D1124092E000CAA0BBB0B880D991DEA
:104BF000AA1DBB1D8D0F911DA11DB11DBC01CD01B5
:104C00006053710981099109DF91CF911F910F9133
:104C1000FF90EF90DF90CF90BF90AF909F908F90DC
:104C20007F90089510929500109294001092221E89
:104C30001092231E1092241E1092251E85E00E94C1
:104C400036059093271E8093261E209116013091E1
:104C50001701A90148505109B4E056954795BA95F6
:104C6000E1F7241B350BB901680F791F7093170109
:104C700060931601FB0124E0F695E7952A95E1F78C
:104C8000E817F907A0F42091140130911501A9014A
:104C900048505109A4E056954795AA95E1F7241B81
:104CA000350B280F391F30931501209314018E17EF
:104CB0009F07A0F42091120130911301A9014850DF
:104CC0005109F4E056954795FA95E1F7241B350B09
:104CD000280F391F309313012093120120911401E2
:104CE000309115014091120150911301420F531F51
:104CF00020911101FA01E20FF11D9F01F093AA1D0D
:104D0000E093A91DAB014E1B5F0BE4E05695479560
:104D1000EA95E1F78417950718F488EC90E011C044
:104D2000260F371F44E0369527954A95E1F7281757
:104D3000390798F38091AB1D9091AC1D009729F035
:104D400001979093AC1D8093AB1D209194003091FE
:104D5000950043E3429FC001439F900D112468EEEC
:104D600073E00E94FF26CB01A0E0B0E08093221EFA
:104D70009093231EA093241EB093251E82E69DE1EE
:104D80000E9485238091261E81580E94982386E7E1
:104D900096E10E94852384E79DE10E94852380910E
:104DA00012019091130124E0969587952A95E1F7D9
:104DB00081580E94982386E796E10E94852386E821
:104DC0009DE10E948523809114019091150134E0AA
:104DD000969587953A95E1F781580E94982386E742
:104DE00096E10C948523991B79E004C0991F9617CE
:104DF00008F0961B881F7A95C9F780950895AA1B1D
:104E0000BB1B51E107C0AA1FBB1FA617B70710F0B5
:104E1000A61BB70B881F991F5A95A9F780959095E7
:104E2000BC01CD010895A1E21A2EAA1BBB1BFD01F6
:104E30000DC0AA1FBB1FEE1FFF1FA217B307E40779
:104E4000F50720F0A21BB30BE40BF50B661F771FD1
:104E5000881F991F1A9469F76095709580959095B1
:104E60009B01AC01BD01CF010895EE0FFF1F00248F
:104E7000001C0BBE0790F691E02D0994B7FF0C942F
:104E800046270E944627821B930B08950E945127B4
:104E9000A59F900DB49F900DA49F800D911D11248E
:104EA0000895A29FB001B39FC001A39F700D811D03
:104EB0001124911DB29F700D811D1124911D089523
:104EC0005058BB27AA270E9478270C942B290E94B0
:104ED0001D2938F00E94242920F039F49F3F19F44D
:104EE00026F40C941A290EF4E095E7FB0C94EB28B9
:104EF000E92F0E943C2958F3BA1762077307840709
:104F0000950720F079F4A6F50C9476290EF4E09537
:104F10000B2EBA2FA02D0B01B90190010C01CA0173
:104F2000A0011124FF27591B99F0593F50F4503E1E
:104F300068F11A16F040A22F232F342F4427585F10
:104F4000F3CF469537952795A795F0405395C9F728
:104F50007EF41F16BA0B620B730B840BBAF09150E0
:104F6000A1F0FF0FBB1F661F771F881FC2F70EC07F
:104F7000BA0F621F731F841F48F487957795679552
:104F8000B795F7959E3F08F0B0CF9395880F08F03E
:104F90009927EE0F9795879508950E94C72808F4E2
:104FA00081E008950E94E6270C942B290E94242971
:104FB00058F00E941D2940F029F45F3F29F00C941D
:104FC000EB2851110C9477290C941A290E943C2942
:104FD00068F39923B1F3552391F3951B550BBB2728
:104FE000AA2762177307840738F09F5F5F4F220F6D
:104FF000331F441FAA1FA9F335D00E2E3AF0E0E864
:1050000032D091505040E695001CCAF72BD0FE2FAD
:1050100029D0660F771F881FBB1F26173707480741
:10502000AB07B0E809F0BB0B802DBF01FF279358F9
:105030005F4F3AF09E3F510578F00C94EB280C94AA
:1050400077295F3FE4F3983ED4F38695779567958B
:10505000B795F7959F5FC9F7880F911D969587952E
:1050600097F90895E1E0660F771F881FBB1F62174D
:1050700073078407BA0720F0621B730B840BBA0B0B
:10508000EE1F88F7E09508950E94442988F09F5705
:1050900098F0B92F9927B751B0F0E1F0660F771F5C
:1050A000881F991F1AF0BA95C9F714C0B13091F052
:1050B0000E947629B1E008950C947629672F782F05
:1050C0008827B85F39F0B93FCCF386957795679517
:1050D000B395D9F73EF490958095709561957F4F83
:1050E0008F4F9F4F0895E89409C097FB3EF4909529
:1050F0008095709561957F4F8F4F9F4F9923A9F0B1
:10510000F92F96E9BB279395F6958795779567953F
:10511000B795F111F8CFFAF4BB0F11F460FF1BC083
:105120006F5F7F4F8F4F9F4F16C0882311F096E916
:1051300011C0772321F09EE8872F762F05C06623C4
:1051400071F096E8862F70E060E02AF09A95660F7D
:10515000771F881FDAF7880F9695879597F9089536
:105160000E945E2990F09F3748F4911116F00C943C
:10517000772960E070E080E89FEB089526F41B1625
:10518000611D711D811D0C94F1280C940C29990F3F
:105190000008550FAA0BE0E8FEEF16161706E80701
:1051A000F907C0F012161306E407F50798F0621B22
:1051B000730B840B950B39F40A2661F0232B242BF7
:1051C000252B21F408950A2609F4A140A6958FEF16
:1051D000811D811D089597F99F6780E870E060E068
:1051E0000895882371F4772321F09850872B762F28
:1051F00007C0662311F499270DC09051862B70E0EB
:1052000060E02AF09A95660F771F881FDAF7880FFB
:105210009695879597F908959F3F31F0915020F426
:10522000879577956795B795880F911D9695879582
:1052300097F908959FEF80EC089500240A941616BC
:10524000170618060906089500240A941216130674
:10525000140605060895092E0394000C11F4882302
:1052600052F0BB0F40F4BF2B11F460FF04C06F5F1E
:105270007F4F8F4F9F4F089557FD9058440F551FF4
:1052800059F05F3F71F04795880F97FB991F61F0C8
:105290009F3F79F087950895121613061406551F3F
:1052A000F2CF4695F1DF08C0161617061806991FAB
:1052B000F1CF869571056105089408950E944429EF
:1052C000A0F0BEE7B91788F4BB279F3860F4161624
:1052D000B11D672F782F8827985FF7CF8695779530
:1052E0006795B11D93959639C8F30895E894BB2747
:1052F00066277727CB0197F908950E94C72808F4FD
:105300008FEF08950E9495290C942B290E941D2946
:1053100038F00E94242920F0952311F00C94EB28FA
:105320000C941A2911240C9477290E943C2970F3BB
:10533000959FC1F3950F50E0551F629FF001729F3A
:10534000BB27F00DB11D639FAA27F00DB11DAA1F49
:10535000649F6627B00DA11D661F829F2227B00D96
:10536000A11D621F739FB00DA11D621F839FA00D21
:10537000611D221F749F3327A00D611D231F849F71
:10538000600D211D822F762F6A2F11249F575040C8
:105390009AF0F1F088234AF0EE0FFF1FBB1F661F43
:1053A000771F881F91505040A9F79E3F510580F00C
:1053B0000C94EB280C9477295F3FE4F3983ED4F3E8
:1053C000869577956795B795F795E7959F5FC1F7B0
:1053D000FE2B880F911D9695879597F90895FA01F0
:1053E000EE0FFF1F309621053105A1F16115710502
:1053F00061F48038BFE39B0749F1689490388105D8
:1054000061F08038BFEF9B0741F099234AF5FF3FD9
:10541000E1053105210519F1E8940894E795D901D2
:10542000AA2329F4AB2FBE2FF85FD0F310C0FF5F83
:1054300070F4A695E0F7F73950F019F0FF3A38F418
:105440009F779F930DD00F9007FC9058089546F0DA
:105450000C941A2960E070E080E89FE308954FE71C
:105460009F775F934F933F932F930E940E2B2F9123
:105470003F914F915F910E9482290C946B2A0E9468
:105480004429E8F09E37E8F09639B8F49E3848F49D
:10549000672F782F8827985FF9CF8695779567953E
:1054A00093959539D0F3B62FB1706B0F711D811D97
:1054B00020F487957795679593950C94F1280C9433
:1054C0000C290C94772929F416F00C94EB280C94F1
:1054D00076290C941A290E944429A8F39638A0F73B
:1054E00007F80F92E8942BE33AEA48EB5FE70E9453
:1054F00098290F920F920F924DB75EB70F920E94AC
:10550000562BE4E3F1E00E949D2A4F915F91EF91C9
:10551000FF91E595EE1FFF1F49F0FE57E068442715
:10552000EE0F441FFA95E1F74195550B0E94D02AE2
:105530000F9007FE0C94C42A0895DF93CF931F9316
:105540000F93FF92EF92DF927B018C01689406C06B
:10555000DA2EEF010E949529FE01E894A59125918C
:10556000359145915591A6F3EF010E947827FE01F0
:105570009701A801DA9469F7DF90EF90FF900F91FF
:105580001F91CF91DF9108959B01AC0160E070E025
:1055900080E89FE30C94D2270C94EB280C940C2900
:1055A0000E944429D8F39923C9F3940F511DA3F302
:1055B0009150504094F059F0882332F0660F771FD5
:1055C000881F91505040C1F79E3F51052CF7880F1E
:1055D000911D9695879597F908955F3FACF0983E99
:1055E0009CF0BB27869577956795B79508F4B160D1
:1055F0009395C1F7BB0F58F711F460FFE8CF6F5FC9
:105600007F4F8F4F9F4FE3CF0C94772916F00C9468
:105610000C290C941A2968940C94EB280E944429B4
:10562000A8F39923C1F3AEF3DF93CF931F930F93A6
:10563000FF92C92FDD2788232AF02197660F771F55
:10564000881FDAF720E030E040E85FEB9FE388391D
:1056500020F0803E38F021968F770E946127ECE59C
:10566000F1E004C00E946127E9E8F1E00E949D2A70
:105670008B01BE01EC01FB2E6F5771097595771FE9
:10568000880B990B0E94752828E132E741E35FE31C
:105690000E949529AF2D9801AE01FF900F911F91A7
:1056A000CF91DF910E9478270C942B29FA01DC011D
:1056B000AA0FBB1F9B01AC01BF5728F42227332739
:1056C0004427507820C0B75190F4AB2F0024469562
:1056D00037952795011CA395D2F3002071F0220F76
:1056E000331F441FB395DAF30ED00C94602761305A
:1056F0007105A0E88A07B94630F49B01AC01662722
:10570000772788279078309621F020833183428351
:1057100053830895FC0188279927E894219120322A
:10572000E9F3293010F02E30C8F32B3241F02D323E
:1057300039F4689404C00E94C72C820F911D2191F6
:1057400020532A30C0F31EF4909581959F4F089501
:10575000283008F027E03327DA01990F311D87FD43
:10576000916000966105710539F432602E5F3D93BA
:1057700030E32A95E1F708959F3F30F080387105B6
:10578000610509F03C5F3C5F3D93913008F0806813
:10579000911DDF93CF931F930F93FF92EF92192FD9
:1057A000987F9695E92F96959695E90FFF27E85EE5
:1057B000FD4F99273327EE24FF24A701E701059029
:1057C0000894079428F4360FE71EF81E491F511D50
:1057D000660F771F881F991F0694A1F705900794FD
:1057E00028F4E70EF81E491F561FC11D770F881FAA
:1057F000991F661F0694A1F70590079428F4F80EE8
:10580000491F561FC71FD11D880F991F661F771F7D
:105810000694A1F70590079420F4490F561FC71F5F
:10582000D81F990F661F771F881F0694A9F78491C8
:105830001095177041F0D695C79557954795F794F1
:10584000E7941A95C1F7EEEBF1E068941590159185
:1058500035916591959105907FE27395E118F10A74
:10586000430B560BC90BD009C0F7E10CF11E431FC7
:10587000561FC91FD01D7EF4703311F48A95E6CFF0
:10588000E894015030F0080F0AF40027021708F4DA
:10589000202F2395022F7A3328F079E37D932A95E0
:1058A000E9F710C07D932A9589F606949795679538
:1058B000379517951794E118F10A430B560BC90B4E
:1058C000D00998F023957E9173957A3308F070E3B0
:1058D0007C932013B8F77E9170617D9330F08395AF
:1058E00071E37D9370E32A95E1F71124EF90FF9027
:1058F0000F911F91CF91DF91992787FD9095089582
:10590000FC010590615070400110D8F7809590958A
:105910008E0F9F1F0895FB01DC010D900020E9F719
:10592000119701900D920020E1F70895FB01DC0131
:105930008D91019080190110D9F3990B0895FB0105
:10594000DC0101900D920020E1F70895FC01615007
:10595000704001900110D8F7809590958E0F9F1F91
:1059600008954532510520F4423010F00C94BC2CBF
:10597000FB011082CB010895BB274A3031F49923F3
:1059800022F4BDE2909581959F4F0C94D02C7AE043
:10599000979F902D879F802D910D11240895BB27EF
:1059A000FB015527AA27880F991FAA1FA41710F0DB
:1059B000A41B83955051B9F7A05DAA3308F0A95DE7
:1059C000A193009779F7B111B1931192CB010C9487
:1059D000B22D0F931F93CF93DF93FB01238121FD02
:1059E00003C08FEF9FEF2CC022FF16C04681578166
:1059F000248135814217530744F4A081B1819D0170
:105A00002F5F3F4F318320838C93268137812F5F17
:105A10003F4F3783268314C08B01EC01FB010084C8
:105A2000F185E02D0995892BE1F6D80116968D9127
:105A30009C911797019617969C938E931697CE017B
:105A4000DF91CF911F910F9108950F931F93CF93E3
:105A5000DF93CDB7DEB72E970FB6F894DEBF0FBE3B
:105A6000CDBF0D891E8986E08C831A8309838FEF51
:105A70009FE79E838D83AE01475E5F4F6F89788D70
:105A8000CE0101960E948601EF81F885E00FF11F9B
:105A900010822E960FB6F894DEBF0FBECDBFDF91F9
:105AA000CF911F910F910895FA01AA27283051F143
:105AB000203181F1E8946F936E7F6E5F7F4F8F4F3F
:105AC0009F4FAF4FB1E03ED0B4E03CD0670F781F9E
:105AD000891F9A1FA11D680F791F8A1F911DA11D83
